{
  "_format": "hh-sol-artifact-1",
  "contractName": "GovernorContract",
  "sourceName": "contracts/Governance_standard/GovernorContract.sol",
  "abi": [
    {
      "inputs": [
        {
          "internalType": "contract ERC20Votes",
          "name": "_token",
          "type": "address"
        },
        {
          "internalType": "contract TimelockController",
          "name": "_timelock",
          "type": "address"
        },
        {
          "internalType": "uint256",
          "name": "_quorumPercentage",
          "type": "uint256"
        },
        {
          "internalType": "uint256",
          "name": "_votingPeriod",
          "type": "uint256"
        },
        {
          "internalType": "uint256",
          "name": "_votingDelay",
          "type": "uint256"
        }
      ],
      "stateMutability": "nonpayable",
      "type": "constructor"
    },
    {
      "anonymous": false,
      "inputs": [
        {
          "indexed": false,
          "internalType": "uint256",
          "name": "proposalId",
          "type": "uint256"
        }
      ],
      "name": "ProposalCanceled",
      "type": "event"
    },
    {
      "anonymous": false,
      "inputs": [
        {
          "indexed": false,
          "internalType": "uint256",
          "name": "proposalId",
          "type": "uint256"
        },
        {
          "indexed": false,
          "internalType": "address",
          "name": "proposer",
          "type": "address"
        },
        {
          "indexed": false,
          "internalType": "address[]",
          "name": "targets",
          "type": "address[]"
        },
        {
          "indexed": false,
          "internalType": "uint256[]",
          "name": "values",
          "type": "uint256[]"
        },
        {
          "indexed": false,
          "internalType": "string[]",
          "name": "signatures",
          "type": "string[]"
        },
        {
          "indexed": false,
          "internalType": "bytes[]",
          "name": "calldatas",
          "type": "bytes[]"
        },
        {
          "indexed": false,
          "internalType": "uint256",
          "name": "startBlock",
          "type": "uint256"
        },
        {
          "indexed": false,
          "internalType": "uint256",
          "name": "endBlock",
          "type": "uint256"
        },
        {
          "indexed": false,
          "internalType": "string",
          "name": "description",
          "type": "string"
        }
      ],
      "name": "ProposalCreated",
      "type": "event"
    },
    {
      "anonymous": false,
      "inputs": [
        {
          "indexed": false,
          "internalType": "uint256",
          "name": "proposalId",
          "type": "uint256"
        }
      ],
      "name": "ProposalExecuted",
      "type": "event"
    },
    {
      "anonymous": false,
      "inputs": [
        {
          "indexed": false,
          "internalType": "uint256",
          "name": "proposalId",
          "type": "uint256"
        },
        {
          "indexed": false,
          "internalType": "uint256",
          "name": "eta",
          "type": "uint256"
        }
      ],
      "name": "ProposalQueued",
      "type": "event"
    },
    {
      "anonymous": false,
      "inputs": [
        {
          "indexed": false,
          "internalType": "uint256",
          "name": "oldProposalThreshold",
          "type": "uint256"
        },
        {
          "indexed": false,
          "internalType": "uint256",
          "name": "newProposalThreshold",
          "type": "uint256"
        }
      ],
      "name": "ProposalThresholdSet",
      "type": "event"
    },
    {
      "anonymous": false,
      "inputs": [
        {
          "indexed": false,
          "internalType": "uint256",
          "name": "oldQuorumNumerator",
          "type": "uint256"
        },
        {
          "indexed": false,
          "internalType": "uint256",
          "name": "newQuorumNumerator",
          "type": "uint256"
        }
      ],
      "name": "QuorumNumeratorUpdated",
      "type": "event"
    },
    {
      "anonymous": false,
      "inputs": [
        {
          "indexed": false,
          "internalType": "address",
          "name": "oldTimelock",
          "type": "address"
        },
        {
          "indexed": false,
          "internalType": "address",
          "name": "newTimelock",
          "type": "address"
        }
      ],
      "name": "TimelockChange",
      "type": "event"
    },
    {
      "anonymous": false,
      "inputs": [
        {
          "indexed": true,
          "internalType": "address",
          "name": "voter",
          "type": "address"
        },
        {
          "indexed": false,
          "internalType": "uint256",
          "name": "proposalId",
          "type": "uint256"
        },
        {
          "indexed": false,
          "internalType": "uint8",
          "name": "support",
          "type": "uint8"
        },
        {
          "indexed": false,
          "internalType": "uint256",
          "name": "weight",
          "type": "uint256"
        },
        {
          "indexed": false,
          "internalType": "string",
          "name": "reason",
          "type": "string"
        }
      ],
      "name": "VoteCast",
      "type": "event"
    },
    {
      "anonymous": false,
      "inputs": [
        {
          "indexed": false,
          "internalType": "uint256",
          "name": "oldVotingDelay",
          "type": "uint256"
        },
        {
          "indexed": false,
          "internalType": "uint256",
          "name": "newVotingDelay",
          "type": "uint256"
        }
      ],
      "name": "VotingDelaySet",
      "type": "event"
    },
    {
      "anonymous": false,
      "inputs": [
        {
          "indexed": false,
          "internalType": "uint256",
          "name": "oldVotingPeriod",
          "type": "uint256"
        },
        {
          "indexed": false,
          "internalType": "uint256",
          "name": "newVotingPeriod",
          "type": "uint256"
        }
      ],
      "name": "VotingPeriodSet",
      "type": "event"
    },
    {
      "inputs": [],
      "name": "BALLOT_TYPEHASH",
      "outputs": [
        {
          "internalType": "bytes32",
          "name": "",
          "type": "bytes32"
        }
      ],
      "stateMutability": "view",
      "type": "function"
    },
    {
      "inputs": [],
      "name": "COUNTING_MODE",
      "outputs": [
        {
          "internalType": "string",
          "name": "",
          "type": "string"
        }
      ],
      "stateMutability": "pure",
      "type": "function"
    },
    {
      "inputs": [
        {
          "internalType": "uint256",
          "name": "",
          "type": "uint256"
        }
      ],
      "name": "Proposals",
      "outputs": [
        {
          "internalType": "uint256",
          "name": "",
          "type": "uint256"
        }
      ],
      "stateMutability": "view",
      "type": "function"
    },
    {
      "inputs": [
        {
          "internalType": "uint256",
          "name": "proposalId",
          "type": "uint256"
        },
        {
          "internalType": "uint8",
          "name": "support",
          "type": "uint8"
        }
      ],
      "name": "castVote",
      "outputs": [
        {
          "internalType": "uint256",
          "name": "",
          "type": "uint256"
        }
      ],
      "stateMutability": "nonpayable",
      "type": "function"
    },
    {
      "inputs": [
        {
          "internalType": "uint256",
          "name": "proposalId",
          "type": "uint256"
        },
        {
          "internalType": "uint8",
          "name": "support",
          "type": "uint8"
        },
        {
          "internalType": "uint8",
          "name": "v",
          "type": "uint8"
        },
        {
          "internalType": "bytes32",
          "name": "r",
          "type": "bytes32"
        },
        {
          "internalType": "bytes32",
          "name": "s",
          "type": "bytes32"
        }
      ],
      "name": "castVoteBySig",
      "outputs": [
        {
          "internalType": "uint256",
          "name": "",
          "type": "uint256"
        }
      ],
      "stateMutability": "nonpayable",
      "type": "function"
    },
    {
      "inputs": [
        {
          "internalType": "uint256",
          "name": "proposalId",
          "type": "uint256"
        },
        {
          "internalType": "uint8",
          "name": "support",
          "type": "uint8"
        },
        {
          "internalType": "string",
          "name": "reason",
          "type": "string"
        }
      ],
      "name": "castVoteWithReason",
      "outputs": [
        {
          "internalType": "uint256",
          "name": "",
          "type": "uint256"
        }
      ],
      "stateMutability": "nonpayable",
      "type": "function"
    },
    {
      "inputs": [
        {
          "internalType": "address[]",
          "name": "targets",
          "type": "address[]"
        },
        {
          "internalType": "uint256[]",
          "name": "values",
          "type": "uint256[]"
        },
        {
          "internalType": "bytes[]",
          "name": "calldatas",
          "type": "bytes[]"
        },
        {
          "internalType": "bytes32",
          "name": "descriptionHash",
          "type": "bytes32"
        }
      ],
      "name": "execute",
      "outputs": [
        {
          "internalType": "uint256",
          "name": "",
          "type": "uint256"
        }
      ],
      "stateMutability": "payable",
      "type": "function"
    },
    {
      "inputs": [
        {
          "internalType": "address",
          "name": "account",
          "type": "address"
        },
        {
          "internalType": "uint256",
          "name": "blockNumber",
          "type": "uint256"
        }
      ],
      "name": "getVotes",
      "outputs": [
        {
          "internalType": "uint256",
          "name": "",
          "type": "uint256"
        }
      ],
      "stateMutability": "view",
      "type": "function"
    },
    {
      "inputs": [
        {
          "internalType": "uint256",
          "name": "proposalId",
          "type": "uint256"
        },
        {
          "internalType": "address",
          "name": "account",
          "type": "address"
        }
      ],
      "name": "hasVoted",
      "outputs": [
        {
          "internalType": "bool",
          "name": "",
          "type": "bool"
        }
      ],
      "stateMutability": "view",
      "type": "function"
    },
    {
      "inputs": [
        {
          "internalType": "address[]",
          "name": "targets",
          "type": "address[]"
        },
        {
          "internalType": "uint256[]",
          "name": "values",
          "type": "uint256[]"
        },
        {
          "internalType": "bytes[]",
          "name": "calldatas",
          "type": "bytes[]"
        },
        {
          "internalType": "bytes32",
          "name": "descriptionHash",
          "type": "bytes32"
        }
      ],
      "name": "hashProposal",
      "outputs": [
        {
          "internalType": "uint256",
          "name": "",
          "type": "uint256"
        }
      ],
      "stateMutability": "pure",
      "type": "function"
    },
    {
      "inputs": [],
      "name": "name",
      "outputs": [
        {
          "internalType": "string",
          "name": "",
          "type": "string"
        }
      ],
      "stateMutability": "view",
      "type": "function"
    },
    {
      "inputs": [
        {
          "internalType": "uint256",
          "name": "proposalId",
          "type": "uint256"
        }
      ],
      "name": "proposalDeadline",
      "outputs": [
        {
          "internalType": "uint256",
          "name": "",
          "type": "uint256"
        }
      ],
      "stateMutability": "view",
      "type": "function"
    },
    {
      "inputs": [
        {
          "internalType": "uint256",
          "name": "proposalId",
          "type": "uint256"
        }
      ],
      "name": "proposalEta",
      "outputs": [
        {
          "internalType": "uint256",
          "name": "",
          "type": "uint256"
        }
      ],
      "stateMutability": "view",
      "type": "function"
    },
    {
      "inputs": [
        {
          "internalType": "uint256",
          "name": "proposalId",
          "type": "uint256"
        }
      ],
      "name": "proposalSnapshot",
      "outputs": [
        {
          "internalType": "uint256",
          "name": "",
          "type": "uint256"
        }
      ],
      "stateMutability": "view",
      "type": "function"
    },
    {
      "inputs": [],
      "name": "proposalThreshold",
      "outputs": [
        {
          "internalType": "uint256",
          "name": "",
          "type": "uint256"
        }
      ],
      "stateMutability": "view",
      "type": "function"
    },
    {
      "inputs": [
        {
          "internalType": "uint256",
          "name": "proposalId",
          "type": "uint256"
        }
      ],
      "name": "proposalVotes",
      "outputs": [
        {
          "internalType": "uint256",
          "name": "againstVotes",
          "type": "uint256"
        },
        {
          "internalType": "uint256",
          "name": "forVotes",
          "type": "uint256"
        },
        {
          "internalType": "uint256",
          "name": "abstainVotes",
          "type": "uint256"
        }
      ],
      "stateMutability": "view",
      "type": "function"
    },
    {
      "inputs": [
        {
          "internalType": "address[]",
          "name": "targets",
          "type": "address[]"
        },
        {
          "internalType": "uint256[]",
          "name": "values",
          "type": "uint256[]"
        },
        {
          "internalType": "bytes[]",
          "name": "calldatas",
          "type": "bytes[]"
        },
        {
          "internalType": "string",
          "name": "description",
          "type": "string"
        }
      ],
      "name": "propose",
      "outputs": [
        {
          "internalType": "uint256",
          "name": "",
          "type": "uint256"
        }
      ],
      "stateMutability": "nonpayable",
      "type": "function"
    },
    {
      "inputs": [
        {
          "internalType": "address[]",
          "name": "targets",
          "type": "address[]"
        },
        {
          "internalType": "uint256[]",
          "name": "values",
          "type": "uint256[]"
        },
        {
          "internalType": "bytes[]",
          "name": "calldatas",
          "type": "bytes[]"
        },
        {
          "internalType": "bytes32",
          "name": "descriptionHash",
          "type": "bytes32"
        }
      ],
      "name": "queue",
      "outputs": [
        {
          "internalType": "uint256",
          "name": "",
          "type": "uint256"
        }
      ],
      "stateMutability": "nonpayable",
      "type": "function"
    },
    {
      "inputs": [
        {
          "internalType": "uint256",
          "name": "blockNumber",
          "type": "uint256"
        }
      ],
      "name": "quorum",
      "outputs": [
        {
          "internalType": "uint256",
          "name": "",
          "type": "uint256"
        }
      ],
      "stateMutability": "view",
      "type": "function"
    },
    {
      "inputs": [],
      "name": "quorumDenominator",
      "outputs": [
        {
          "internalType": "uint256",
          "name": "",
          "type": "uint256"
        }
      ],
      "stateMutability": "view",
      "type": "function"
    },
    {
      "inputs": [],
      "name": "quorumNumerator",
      "outputs": [
        {
          "internalType": "uint256",
          "name": "",
          "type": "uint256"
        }
      ],
      "stateMutability": "view",
      "type": "function"
    },
    {
      "inputs": [
        {
          "internalType": "address",
          "name": "target",
          "type": "address"
        },
        {
          "internalType": "uint256",
          "name": "value",
          "type": "uint256"
        },
        {
          "internalType": "bytes",
          "name": "data",
          "type": "bytes"
        }
      ],
      "name": "relay",
      "outputs": [],
      "stateMutability": "nonpayable",
      "type": "function"
    },
    {
      "inputs": [],
      "name": "s_votingDelay",
      "outputs": [
        {
          "internalType": "uint256",
          "name": "",
          "type": "uint256"
        }
      ],
      "stateMutability": "view",
      "type": "function"
    },
    {
      "inputs": [],
      "name": "s_votingPeriod",
      "outputs": [
        {
          "internalType": "uint256",
          "name": "",
          "type": "uint256"
        }
      ],
      "stateMutability": "view",
      "type": "function"
    },
    {
      "inputs": [
        {
          "internalType": "uint256",
          "name": "newProposalThreshold",
          "type": "uint256"
        }
      ],
      "name": "setProposalThreshold",
      "outputs": [],
      "stateMutability": "nonpayable",
      "type": "function"
    },
    {
      "inputs": [
        {
          "internalType": "uint256",
          "name": "newVotingDelay",
          "type": "uint256"
        }
      ],
      "name": "setVotingDelay",
      "outputs": [],
      "stateMutability": "nonpayable",
      "type": "function"
    },
    {
      "inputs": [
        {
          "internalType": "uint256",
          "name": "newVotingPeriod",
          "type": "uint256"
        }
      ],
      "name": "setVotingPeriod",
      "outputs": [],
      "stateMutability": "nonpayable",
      "type": "function"
    },
    {
      "inputs": [],
      "name": "showproposals",
      "outputs": [
        {
          "internalType": "uint256[]",
          "name": "",
          "type": "uint256[]"
        }
      ],
      "stateMutability": "view",
      "type": "function"
    },
    {
      "inputs": [
        {
          "internalType": "uint256",
          "name": "proposalId",
          "type": "uint256"
        }
      ],
      "name": "state",
      "outputs": [
        {
          "internalType": "enum IGovernor.ProposalState",
          "name": "",
          "type": "uint8"
        }
      ],
      "stateMutability": "view",
      "type": "function"
    },
    {
      "inputs": [
        {
          "internalType": "bytes4",
          "name": "interfaceId",
          "type": "bytes4"
        }
      ],
      "name": "supportsInterface",
      "outputs": [
        {
          "internalType": "bool",
          "name": "",
          "type": "bool"
        }
      ],
      "stateMutability": "view",
      "type": "function"
    },
    {
      "inputs": [],
      "name": "timelock",
      "outputs": [
        {
          "internalType": "address",
          "name": "",
          "type": "address"
        }
      ],
      "stateMutability": "view",
      "type": "function"
    },
    {
      "inputs": [],
      "name": "token",
      "outputs": [
        {
          "internalType": "contract IVotes",
          "name": "",
          "type": "address"
        }
      ],
      "stateMutability": "view",
      "type": "function"
    },
    {
      "inputs": [
        {
          "internalType": "uint256",
          "name": "newQuorumNumerator",
          "type": "uint256"
        }
      ],
      "name": "updateQuorumNumerator",
      "outputs": [],
      "stateMutability": "nonpayable",
      "type": "function"
    },
    {
      "inputs": [
        {
          "internalType": "contract TimelockController",
          "name": "newTimelock",
          "type": "address"
        }
      ],
      "name": "updateTimelock",
      "outputs": [],
      "stateMutability": "nonpayable",
      "type": "function"
    },
    {
      "inputs": [],
      "name": "version",
      "outputs": [
        {
          "internalType": "string",
          "name": "",
          "type": "string"
        }
      ],
      "stateMutability": "view",
      "type": "function"
    },
    {
      "inputs": [],
      "name": "votingDelay",
      "outputs": [
        {
          "internalType": "uint256",
          "name": "",
          "type": "uint256"
        }
      ],
      "stateMutability": "view",
      "type": "function"
    },
    {
      "inputs": [],
      "name": "votingPeriod",
      "outputs": [
        {
          "internalType": "uint256",
          "name": "",
          "type": "uint256"
        }
      ],
      "stateMutability": "view",
      "type": "function"
    },
    {
      "stateMutability": "payable",
      "type": "receive"
    }
  ],
  "bytecode": "0x6101606040523480156200001257600080fd5b5060405162005d4538038062005d4583398181016040528101906200003891906200069d565b838386838560006040518060400160405280601081526020017f476f7665726e6f72436f6e7472616374000000000000000000000000000000008152508062000086620001fb60201b60201c565b60008280519060200120905060008280519060200120905060007f8b73c3c69bb8fe3d512ecc4cf759cc79239f7b179b0ffacaa9a75d522b39400f90508260e081815250508161010081815250504660a08181525050620000ef8184846200023860201b60201c565b608081815250503073ffffffffffffffffffffffffffffffffffffffff1660c08173ffffffffffffffffffffffffffffffffffffffff16815250508061012081815250505050505050806000908051906020019062000150929190620004db565b505062000163836200027460201b60201c565b6200017482620002bb60201b60201c565b62000185816200034860201b60201c565b5050508073ffffffffffffffffffffffffffffffffffffffff166101408173ffffffffffffffffffffffffffffffffffffffff168152505050620001cf816200038f60201b60201c565b50620001e1816200043160201b60201c565b508060098190555081600a819055505050505050620009e5565b60606040518060400160405280600181526020017f3100000000000000000000000000000000000000000000000000000000000000815250905090565b600083838346306040516020016200025595949392919062000762565b6040516020818303038152906040528051906020012090509392505050565b7fc565b045403dc03c2eea82b81a0465edad9e2e7fc4d97e11421c209da93d7a9360025482604051620002a9929190620007bf565b60405180910390a18060028190555050565b6000811162000301576040517f08c379a0000000000000000000000000000000000000000000000000000000008152600401620002f89062000873565b60405180910390fd5b7f7e3f7f0708a84de9203036abaa450dccc85ad5ff52f78c170f3edb55cf5e88286003548260405162000336929190620007bf565b60405180910390a18060038190555050565b7fccb45da8d5717e6c4544694297c4ba5cf151d455c9bb0ed4fc7a38411bc05461600454826040516200037d929190620007bf565b60405180910390a18060048190555050565b6200039f620004d260201b60201c565b811115620003e4576040517f08c379a0000000000000000000000000000000000000000000000000000000008152600401620003db9062000931565b60405180910390fd5b60006006549050816006819055507f0553476bf02ef2726e8ce5ced78d63e26e602e4a2257b1f559418e24b4633997818360405162000425929190620007bf565b60405180910390a15050565b7f08f74ea46ef7894f65eabfb5e6e695de773a000b47c529ab559178069b226401600760009054906101000a900473ffffffffffffffffffffffffffffffffffffffff16826040516200048692919062000953565b60405180910390a180600760006101000a81548173ffffffffffffffffffffffffffffffffffffffff021916908373ffffffffffffffffffffffffffffffffffffffff16021790555050565b60006064905090565b828054620004e990620009af565b90600052602060002090601f0160209004810192826200050d576000855562000559565b82601f106200052857805160ff191683800117855562000559565b8280016001018555821562000559579182015b82811115620005585782518255916020019190600101906200053b565b5b5090506200056891906200056c565b5090565b5b80821115620005875760008160009055506001016200056d565b5090565b600080fd5b600073ffffffffffffffffffffffffffffffffffffffff82169050919050565b6000620005bd8262000590565b9050919050565b6000620005d182620005b0565b9050919050565b620005e381620005c4565b8114620005ef57600080fd5b50565b6000815190506200060381620005d8565b92915050565b6000620006168262000590565b9050919050565b60006200062a8262000609565b9050919050565b6200063c816200061d565b81146200064857600080fd5b50565b6000815190506200065c8162000631565b92915050565b6000819050919050565b620006778162000662565b81146200068357600080fd5b50565b60008151905062000697816200066c565b92915050565b600080600080600060a08688031215620006bc57620006bb6200058b565b5b6000620006cc88828901620005f2565b9550506020620006df888289016200064b565b9450506040620006f28882890162000686565b9350506060620007058882890162000686565b9250506080620007188882890162000686565b9150509295509295909350565b6000819050919050565b6200073a8162000725565b82525050565b6200074b8162000662565b82525050565b6200075c81620005b0565b82525050565b600060a0820190506200077960008301886200072f565b6200078860208301876200072f565b6200079760408301866200072f565b620007a6606083018562000740565b620007b5608083018462000751565b9695505050505050565b6000604082019050620007d6600083018562000740565b620007e5602083018462000740565b9392505050565b600082825260208201905092915050565b7f476f7665726e6f7253657474696e67733a20766f74696e6720706572696f642060008201527f746f6f206c6f7700000000000000000000000000000000000000000000000000602082015250565b60006200085b602783620007ec565b91506200086882620007fd565b604082019050919050565b600060208201905081810360008301526200088e816200084c565b9050919050565b7f476f7665726e6f72566f74657351756f72756d4672616374696f6e3a2071756f60008201527f72756d4e756d657261746f72206f7665722071756f72756d44656e6f6d696e6160208201527f746f720000000000000000000000000000000000000000000000000000000000604082015250565b600062000919604383620007ec565b9150620009268262000895565b606082019050919050565b600060208201905081810360008301526200094c816200090a565b9050919050565b60006040820190506200096a600083018562000751565b62000979602083018462000751565b9392505050565b7f4e487b7100000000000000000000000000000000000000000000000000000000600052602260045260246000fd5b60006002820490506001821680620009c857607f821691505b60208210811415620009df57620009de62000980565b5b50919050565b60805160a05160c05160e0516101005161012051610140516152f762000a4e600039600081816117b30152818161216c0152612276015260006124fe015260006125400152600061251f01526000612454015260006124aa015260006124d301526152f76000f3fe60806040526004361061021e5760003560e01c80637d5e81e211610123578063c59057e4116100ab578063ea0217cf1161006f578063ea0217cf146108c4578063eb9019d4146108ed578063ece40cc11461092a578063f8ce560a14610953578063fc0c546a1461099057610264565b8063c59057e4146107c9578063d1dbe7d814610806578063d33219b414610843578063dd4e2ba51461086e578063deaaa7cc1461089957610264565b8063a890c910116100f2578063a890c910146106d2578063ab58fb8e146106fb578063b58131b014610738578063c01f9e3714610763578063c28bc2fa146107a057610264565b80637d5e81e21461061457806397c3d33414610651578063a21684ea1461067c578063a7713a70146106a757610264565b80633bccf4fd116101a657806354fd4d501161017557806354fd4d501461051b578063567813881461054657806370b0f66014610583578063725ae3dc146105ac5780637b3c71d3146105d757610264565b80633bccf4fd146104255780633e4f49e614610462578063438596321461049f578063544ffc9c146104dc57610264565b8063102d7f2c116101ed578063102d7f2c14610325578063160cbed7146103505780632656227d1461038d5780632d63f693146103bd5780633932abb1146103fa57610264565b806301ffc9a71461026957806302a251a3146102a657806306f3f9e6146102d157806306fdde03146102fa57610264565b36610264573073ffffffffffffffffffffffffffffffffffffffff166102426109bb565b73ffffffffffffffffffffffffffffffffffffffff161461026257600080fd5b005b600080fd5b34801561027557600080fd5b50610290600480360381019061028b9190612f5a565b6109ca565b60405161029d9190612fa2565b60405180910390f35b3480156102b257600080fd5b506102bb6109dc565b6040516102c89190612fd6565b60405180910390f35b3480156102dd57600080fd5b506102f860048036038101906102f3919061301d565b6109e6565b005b34801561030657600080fd5b5061030f610a6e565b60405161031c91906130e3565b60405180910390f35b34801561033157600080fd5b5061033a610b00565b6040516103479190612fd6565b60405180910390f35b34801561035c57600080fd5b506103776004803603810190610372919061353a565b610b06565b6040516103849190612fd6565b60405180910390f35b6103a760048036038101906103a2919061353a565b610dde565b6040516103b49190612fd6565b60405180910390f35b3480156103c957600080fd5b506103e460048036038101906103df919061301d565b610f11565b6040516103f19190612fd6565b60405180910390f35b34801561040657600080fd5b5061040f610f7f565b60405161041c9190612fd6565b60405180910390f35b34801561043157600080fd5b5061044c6004803603810190610447919061362e565b610f89565b6040516104599190612fd6565b60405180910390f35b34801561046e57600080fd5b506104896004803603810190610484919061301d565b611013565b6040516104969190613720565b60405180910390f35b3480156104ab57600080fd5b506104c660048036038101906104c1919061373b565b611025565b6040516104d39190612fa2565b60405180910390f35b3480156104e857600080fd5b5061050360048036038101906104fe919061301d565b611090565b6040516105129392919061377b565b60405180910390f35b34801561052757600080fd5b506105306110c8565b60405161053d91906130e3565b60405180910390f35b34801561055257600080fd5b5061056d600480360381019061056891906137b2565b611105565b60405161057a9190612fd6565b60405180910390f35b34801561058f57600080fd5b506105aa60048036038101906105a5919061301d565b611136565b005b3480156105b857600080fd5b506105c16111be565b6040516105ce9190612fd6565b60405180910390f35b3480156105e357600080fd5b506105fe60048036038101906105f9919061384d565b6111c4565b60405161060b9190612fd6565b60405180910390f35b34801561062057600080fd5b5061063b60048036038101906106369190613962565b61122c565b6040516106489190612fd6565b60405180910390f35b34801561065d57600080fd5b50610666611272565b6040516106739190612fd6565b60405180910390f35b34801561068857600080fd5b5061069161127b565b60405161069e9190613af7565b60405180910390f35b3480156106b357600080fd5b506106bc6112d3565b6040516106c99190612fd6565b60405180910390f35b3480156106de57600080fd5b506106f960048036038101906106f49190613b69565b6112dd565b005b34801561070757600080fd5b50610722600480360381019061071d919061301d565b611365565b60405161072f9190612fd6565b60405180910390f35b34801561074457600080fd5b5061074d611441565b60405161075a9190612fd6565b60405180910390f35b34801561076f57600080fd5b5061078a6004803603810190610785919061301d565b611450565b6040516107979190612fd6565b60405180910390f35b3480156107ac57600080fd5b506107c760048036038101906107c29190613bec565b6114be565b005b3480156107d557600080fd5b506107f060048036038101906107eb919061353a565b611590565b6040516107fd9190612fd6565b60405180910390f35b34801561081257600080fd5b5061082d6004803603810190610828919061301d565b6115cc565b60405161083a9190612fd6565b60405180910390f35b34801561084f57600080fd5b506108586115f0565b6040516108659190613c6f565b60405180910390f35b34801561087a57600080fd5b5061088361161a565b60405161089091906130e3565b60405180910390f35b3480156108a557600080fd5b506108ae611657565b6040516108bb9190613c99565b60405180910390f35b3480156108d057600080fd5b506108eb60048036038101906108e6919061301d565b61167b565b005b3480156108f957600080fd5b50610914600480360381019061090f9190613cb4565b611703565b6040516109219190612fd6565b60405180910390f35b34801561093657600080fd5b50610951600480360381019061094c919061301d565b611717565b005b34801561095f57600080fd5b5061097a6004803603810190610975919061301d565b61179f565b6040516109879190612fd6565b60405180910390f35b34801561099c57600080fd5b506109a56117b1565b6040516109b29190613d53565b60405180910390f35b60006109c56117d5565b905090565b60006109d5826117ff565b9050919050565b6000600a54905090565b6109ee6109bb565b73ffffffffffffffffffffffffffffffffffffffff16610a0c611879565b73ffffffffffffffffffffffffffffffffffffffff1614610a62576040517f08c379a0000000000000000000000000000000000000000000000000000000008152600401610a5990613dba565b60405180910390fd5b610a6b81611881565b50565b606060008054610a7d90613e09565b80601f0160208091040260200160405190810160405280929190818152602001828054610aa990613e09565b8015610af65780601f10610acb57610100808354040283529160200191610af6565b820191906000526020600020905b815481529060010190602001808311610ad957829003601f168201915b5050505050905090565b60095481565b600080610b1586868686611590565b905060046007811115610b2b57610b2a6136a9565b5b610b3482611013565b6007811115610b4657610b456136a9565b5b14610b86576040517f08c379a0000000000000000000000000000000000000000000000000000000008152600401610b7d90613ead565b60405180910390fd5b6000600760009054906101000a900473ffffffffffffffffffffffffffffffffffffffff1673ffffffffffffffffffffffffffffffffffffffff1663f27a0c926040518163ffffffff1660e01b815260040160206040518083038186803b158015610bf057600080fd5b505afa158015610c04573d6000803e3d6000fd5b505050506040513d601f19601f82011682018060405250810190610c289190613ee2565b9050600760009054906101000a900473ffffffffffffffffffffffffffffffffffffffff1673ffffffffffffffffffffffffffffffffffffffff1663b1c5f4278888886000896040518663ffffffff1660e01b8152600401610c8e95949392919061412c565b60206040518083038186803b158015610ca657600080fd5b505afa158015610cba573d6000803e3d6000fd5b505050506040513d601f19601f82011682018060405250810190610cde91906141a9565b6008600084815260200190815260200160002081905550600760009054906101000a900473ffffffffffffffffffffffffffffffffffffffff1673ffffffffffffffffffffffffffffffffffffffff16638f2a0bb0888888600089876040518763ffffffff1660e01b8152600401610d5b969594939291906141d6565b600060405180830381600087803b158015610d7557600080fd5b505af1158015610d89573d6000803e3d6000fd5b505050507f9a2e42fd6722813d69113e7d0079d3d940171428df7373df9c7f7617cfda2892828242610dbb919061427b565b604051610dc99291906142d1565b60405180910390a18192505050949350505050565b600080610ded86868686611590565b90506000610dfa82611013565b905060046007811115610e1057610e0f6136a9565b5b816007811115610e2357610e226136a9565b5b1480610e53575060056007811115610e3e57610e3d6136a9565b5b816007811115610e5157610e506136a9565b5b145b610e92576040517f08c379a0000000000000000000000000000000000000000000000000000000008152600401610e8990613ead565b60405180910390fd5b600180600084815260200190815260200160002060020160006101000a81548160ff0219169083151502179055507f712ae1383f79ac853f8d882153778e0260ef8f03b504e2866e0593e04d2b291f82604051610eef9190612fd6565b60405180910390a1610f048288888888611916565b8192505050949350505050565b6000610f6e600160008481526020019081526020016000206000016040518060200160405290816000820160009054906101000a900467ffffffffffffffff1667ffffffffffffffff1667ffffffffffffffff168152505061192a565b67ffffffffffffffff169050919050565b6000600954905090565b600080610fea610fe27f150214d74d59b7d1e90c73fc22ef3d991dd0a76b046543d4d80ab92d2a50328f8989604051602001610fc793929190614309565b60405160208183030381529060405280519060200120611938565b868686611952565b90506110078782886040518060200160405280600081525061197d565b91505095945050505050565b600061101e82611ad1565b9050919050565b60006005600084815260200190815260200160002060030160008373ffffffffffffffffffffffffffffffffffffffff1673ffffffffffffffffffffffffffffffffffffffff16815260200190815260200160002060009054906101000a900460ff16905092915050565b600080600080600560008681526020019081526020016000209050806000015481600101548260020154935093509350509193909250565b60606040518060400160405280600181526020017f3100000000000000000000000000000000000000000000000000000000000000815250905090565b600080611110611879565b905061112d8482856040518060200160405280600081525061197d565b91505092915050565b61113e6109bb565b73ffffffffffffffffffffffffffffffffffffffff1661115c611879565b73ffffffffffffffffffffffffffffffffffffffff16146111b2576040517f08c379a00000000000000000000000000000000000000000000000000000000081526004016111a990613dba565b60405180910390fd5b6111bb81611cc3565b50565b600a5481565b6000806111cf611879565b905061122186828787878080601f016020809104026020016040519081016040528093929190818152602001838380828437600081840152601f19601f8201169050808301925050505050505061197d565b915050949350505050565b60008061123b86868686611d08565b9050600b81908060018154018082558091505060019003906000526020600020016000909190919091505580915050949350505050565b60006064905090565b6060600b8054806020026020016040519081016040528092919081815260200182805480156112c957602002820191906000526020600020905b8154815260200190600101908083116112b5575b5050505050905090565b6000600654905090565b6112e56109bb565b73ffffffffffffffffffffffffffffffffffffffff16611303611879565b73ffffffffffffffffffffffffffffffffffffffff1614611359576040517f08c379a000000000000000000000000000000000000000000000000000000000815260040161135090613dba565b60405180910390fd5b61136281612008565b50565b600080600760009054906101000a900473ffffffffffffffffffffffffffffffffffffffff1673ffffffffffffffffffffffffffffffffffffffff1663d45c443560086000868152602001908152602001600020546040518263ffffffff1660e01b81526004016113d69190613c99565b60206040518083038186803b1580156113ee57600080fd5b505afa158015611402573d6000803e3d6000fd5b505050506040513d601f19601f820116820180604052508101906114269190613ee2565b9050600181146114365780611439565b60005b915050919050565b600061144b6120a7565b905090565b60006114ad600160008481526020019081526020016000206001016040518060200160405290816000820160009054906101000a900467ffffffffffffffff1667ffffffffffffffff1667ffffffffffffffff168152505061192a565b67ffffffffffffffff169050919050565b6114c66109bb565b73ffffffffffffffffffffffffffffffffffffffff166114e4611879565b73ffffffffffffffffffffffffffffffffffffffff161461153a576040517f08c379a000000000000000000000000000000000000000000000000000000000815260040161153190613dba565b60405180910390fd5b6115898483838080601f016020809104026020016040519081016040528093929190818152602001838380828437600081840152601f19601f82011690508083019250505050505050856120b1565b5050505050565b6000848484846040516020016115a99493929190614340565b6040516020818303038152906040528051906020012060001c9050949350505050565b600b81815481106115dc57600080fd5b906000526020600020016000915090505481565b6000600760009054906101000a900473ffffffffffffffffffffffffffffffffffffffff16905090565b60606040518060400160405280602081526020017f737570706f72743d627261766f2671756f72756d3d666f722c6162737461696e815250905090565b7f150214d74d59b7d1e90c73fc22ef3d991dd0a76b046543d4d80ab92d2a50328f81565b6116836109bb565b73ffffffffffffffffffffffffffffffffffffffff166116a1611879565b73ffffffffffffffffffffffffffffffffffffffff16146116f7576040517f08c379a00000000000000000000000000000000000000000000000000000000081526004016116ee90613dba565b60405180910390fd5b611700816120e0565b50565b600061170f8383612168565b905092915050565b61171f6109bb565b73ffffffffffffffffffffffffffffffffffffffff1661173d611879565b73ffffffffffffffffffffffffffffffffffffffff1614611793576040517f08c379a000000000000000000000000000000000000000000000000000000000815260040161178a90613dba565b60405180910390fd5b61179c8161221d565b50565b60006117aa82612262565b9050919050565b7f000000000000000000000000000000000000000000000000000000000000000081565b6000600760009054906101000a900473ffffffffffffffffffffffffffffffffffffffff16905090565b60007f6e665ced000000000000000000000000000000000000000000000000000000007bffffffffffffffffffffffffffffffffffffffffffffffffffffffff1916827bffffffffffffffffffffffffffffffffffffffffffffffffffffffff19161480611872575061187182612338565b5b9050919050565b600033905090565b611889611272565b8111156118cb576040517f08c379a00000000000000000000000000000000000000000000000000000000081526004016118c290614432565b60405180910390fd5b60006006549050816006819055507f0553476bf02ef2726e8ce5ced78d63e26e602e4a2257b1f559418e24b4633997818360405161190a9291906142d1565b60405180910390a15050565b61192385858585856123b2565b5050505050565b600081600001519050919050565b600061194b611945612450565b8361256a565b9050919050565b60008060006119638787878761259d565b91509150611970816126aa565b8192505050949350505050565b600080600160008781526020019081526020016000209050600160078111156119a9576119a86136a9565b5b6119b287611013565b60078111156119c4576119c36136a9565b5b14611a04576040517f08c379a00000000000000000000000000000000000000000000000000000000081526004016119fb906144c4565b60405180910390fd5b6000611a6286611a53846000016040518060200160405290816000820160009054906101000a900467ffffffffffffffff1667ffffffffffffffff1667ffffffffffffffff168152505061192a565b67ffffffffffffffff16611703565b9050611a708787878461287f565b8573ffffffffffffffffffffffffffffffffffffffff167fb8e138887d0aa13bab447e82de9d5c1777041ecd21ca36ba824ff1e6c07ddda488878488604051611abc94939291906144e4565b60405180910390a28092505050949350505050565b600080611add83612a85565b905060046007811115611af357611af26136a9565b5b816007811115611b0657611b056136a9565b5b14611b145780915050611cbe565b6000600860008581526020019081526020016000205490506000801b811415611b41578192505050611cbe565b600760009054906101000a900473ffffffffffffffffffffffffffffffffffffffff1673ffffffffffffffffffffffffffffffffffffffff16632ab0f529826040518263ffffffff1660e01b8152600401611b9c9190613c99565b60206040518083038186803b158015611bb457600080fd5b505afa158015611bc8573d6000803e3d6000fd5b505050506040513d601f19601f82011682018060405250810190611bec919061455c565b15611bfc57600792505050611cbe565b600760009054906101000a900473ffffffffffffffffffffffffffffffffffffffff1673ffffffffffffffffffffffffffffffffffffffff1663584b153e826040518263ffffffff1660e01b8152600401611c579190613c99565b60206040518083038186803b158015611c6f57600080fd5b505afa158015611c83573d6000803e3d6000fd5b505050506040513d601f19601f82011682018060405250810190611ca7919061455c565b15611cb757600592505050611cbe565b6002925050505b919050565b7fc565b045403dc03c2eea82b81a0465edad9e2e7fc4d97e11421c209da93d7a9360025482604051611cf69291906142d1565b60405180910390a18060028190555050565b6000611d12611441565b611d2833600143611d239190614589565b611703565b1015611d69576040517f08c379a0000000000000000000000000000000000000000000000000000000008152600401611d6090614655565b60405180910390fd5b6000611d7e8686868680519060200120611590565b90508451865114611dc4576040517f08c379a0000000000000000000000000000000000000000000000000000000008152600401611dbb906146e7565b60405180910390fd5b8351865114611e08576040517f08c379a0000000000000000000000000000000000000000000000000000000008152600401611dff906146e7565b60405180910390fd5b6000865111611e4c576040517f08c379a0000000000000000000000000000000000000000000000000000000008152600401611e4390614753565b60405180910390fd5b6000600160008381526020019081526020016000209050611eac816000016040518060200160405290816000820160009054906101000a900467ffffffffffffffff1667ffffffffffffffff1667ffffffffffffffff1681525050612b9a565b611eeb576040517f08c379a0000000000000000000000000000000000000000000000000000000008152600401611ee2906147e5565b60405180910390fd5b6000611efd611ef8610f7f565b612bb4565b611f0643612bb4565b611f109190614819565b90506000611f24611f1f6109dc565b612bb4565b82611f2f9190614819565b9050611f478284600001612c0b90919063ffffffff16565b611f5d8184600101612c0b90919063ffffffff16565b7f7d84a6263ae0d98d3329bd7b46bb4e8d6f98cd35a7adb45c274c8b7fd5ebd5e084611f87611879565b8b8b8d5167ffffffffffffffff811115611fa457611fa361310a565b5b604051908082528060200260200182016040528015611fd757816020015b6060815260200190600190039081611fc25790505b508c88888e604051611ff199989796959493929190614994565b60405180910390a183945050505050949350505050565b7f08f74ea46ef7894f65eabfb5e6e695de773a000b47c529ab559178069b226401600760009054906101000a900473ffffffffffffffffffffffffffffffffffffffff168260405161205b929190614a44565b60405180910390a180600760006101000a81548173ffffffffffffffffffffffffffffffffffffffff021916908373ffffffffffffffffffffffffffffffffffffffff16021790555050565b6000600454905090565b60606120d784848460405180606001604052806029815260200161529960299139612c3a565b90509392505050565b60008111612123576040517f08c379a000000000000000000000000000000000000000000000000000000000815260040161211a90614adf565b60405180910390fd5b7f7e3f7f0708a84de9203036abaa450dccc85ad5ff52f78c170f3edb55cf5e8828600354826040516121569291906142d1565b60405180910390a18060038190555050565b60007f000000000000000000000000000000000000000000000000000000000000000073ffffffffffffffffffffffffffffffffffffffff16633a46b1a884846040518363ffffffff1660e01b81526004016121c5929190614aff565b60206040518083038186803b1580156121dd57600080fd5b505afa1580156121f1573d6000803e3d6000fd5b505050506040513d601f19601f820116820180604052508101906122159190613ee2565b905092915050565b7fccb45da8d5717e6c4544694297c4ba5cf151d455c9bb0ed4fc7a38411bc05461600454826040516122509291906142d1565b60405180910390a18060048190555050565b600061226c611272565b6122746112d3565b7f000000000000000000000000000000000000000000000000000000000000000073ffffffffffffffffffffffffffffffffffffffff16638e539e8c856040518263ffffffff1660e01b81526004016122cd9190612fd6565b60206040518083038186803b1580156122e557600080fd5b505afa1580156122f9573d6000803e3d6000fd5b505050506040513d601f19601f8201168201806040525081019061231d9190613ee2565b6123279190614b28565b6123319190614bb1565b9050919050565b60007fbf26d897000000000000000000000000000000000000000000000000000000007bffffffffffffffffffffffffffffffffffffffffffffffffffffffff1916827bffffffffffffffffffffffffffffffffffffffffffffffffffffffff191614806123ab57506123aa82612d4e565b5b9050919050565b600760009054906101000a900473ffffffffffffffffffffffffffffffffffffffff1673ffffffffffffffffffffffffffffffffffffffff1663e38335e5348686866000876040518763ffffffff1660e01b815260040161241795949392919061412c565b6000604051808303818588803b15801561243057600080fd5b505af1158015612444573d6000803e3d6000fd5b50505050505050505050565b60007f000000000000000000000000000000000000000000000000000000000000000073ffffffffffffffffffffffffffffffffffffffff163073ffffffffffffffffffffffffffffffffffffffff161480156124cc57507f000000000000000000000000000000000000000000000000000000000000000046145b156124f9577f00000000000000000000000000000000000000000000000000000000000000009050612567565b6125647f00000000000000000000000000000000000000000000000000000000000000007f00000000000000000000000000000000000000000000000000000000000000007f0000000000000000000000000000000000000000000000000000000000000000612db8565b90505b90565b6000828260405160200161257f929190614c5a565b60405160208183030381529060405280519060200120905092915050565b6000807f7fffffffffffffffffffffffffffffff5d576e7357a4501ddfe92f46681b20a08360001c11156125d85760006003915091506126a1565b601b8560ff16141580156125f05750601c8560ff1614155b156126025760006004915091506126a1565b6000600187878787604051600081526020016040526040516126279493929190614c91565b6020604051602081039080840390855afa158015612649573d6000803e3d6000fd5b505050602060405103519050600073ffffffffffffffffffffffffffffffffffffffff168173ffffffffffffffffffffffffffffffffffffffff161415612698576000600192509250506126a1565b80600092509250505b94509492505050565b600060048111156126be576126bd6136a9565b5b8160048111156126d1576126d06136a9565b5b14156126dc5761287c565b600160048111156126f0576126ef6136a9565b5b816004811115612703576127026136a9565b5b1415612744576040517f08c379a000000000000000000000000000000000000000000000000000000000815260040161273b90614d22565b60405180910390fd5b60026004811115612758576127576136a9565b5b81600481111561276b5761276a6136a9565b5b14156127ac576040517f08c379a00000000000000000000000000000000000000000000000000000000081526004016127a390614d8e565b60405180910390fd5b600360048111156127c0576127bf6136a9565b5b8160048111156127d3576127d26136a9565b5b1415612814576040517f08c379a000000000000000000000000000000000000000000000000000000000815260040161280b90614e20565b60405180910390fd5b600480811115612827576128266136a9565b5b81600481111561283a576128396136a9565b5b141561287b576040517f08c379a000000000000000000000000000000000000000000000000000000000815260040161287290614eb2565b60405180910390fd5b5b50565b60006005600086815260200190815260200160002090508060030160008573ffffffffffffffffffffffffffffffffffffffff1673ffffffffffffffffffffffffffffffffffffffff16815260200190815260200160002060009054906101000a900460ff1615612925576040517f08c379a000000000000000000000000000000000000000000000000000000000815260040161291c90614f44565b60405180910390fd5b60018160030160008673ffffffffffffffffffffffffffffffffffffffff1673ffffffffffffffffffffffffffffffffffffffff16815260200190815260200160002060006101000a81548160ff02191690831515021790555060006002811115612993576129926136a9565b5b60ff168360ff1614156129c057818160000160008282546129b4919061427b565b92505081905550612a7e565b600160028111156129d4576129d36136a9565b5b60ff168360ff161415612a0157818160010160008282546129f5919061427b565b92505081905550612a7d565b600280811115612a1457612a136136a9565b5b60ff168360ff161415612a415781816002016000828254612a35919061427b565b92505081905550612a7c565b6040517f08c379a0000000000000000000000000000000000000000000000000000000008152600401612a7390614fd6565b60405180910390fd5b5b5b5050505050565b6000806001600084815260200190815260200160002090508060020160009054906101000a900460ff1615612abe576007915050612b95565b8060020160019054906101000a900460ff1615612adf576002915050612b95565b6000612aea84610f11565b90506000811415612b30576040517f08c379a0000000000000000000000000000000000000000000000000000000008152600401612b2790615042565b60405180910390fd5b438110612b4257600092505050612b95565b6000612b4d85611450565b9050438110612b625760019350505050612b95565b612b6b85612df2565b8015612b7c5750612b7b85612e39565b5b15612b8d5760049350505050612b95565b600393505050505b919050565b600080826000015167ffffffffffffffff16149050919050565b600067ffffffffffffffff8016821115612c03576040517f08c379a0000000000000000000000000000000000000000000000000000000008152600401612bfa906150d4565b60405180910390fd5b819050919050565b808260000160006101000a81548167ffffffffffffffff021916908367ffffffffffffffff1602179055505050565b606082471015612c7f576040517f08c379a0000000000000000000000000000000000000000000000000000000008152600401612c7690615166565b60405180910390fd5b612c8885612e64565b612cc7576040517f08c379a0000000000000000000000000000000000000000000000000000000008152600401612cbe906151d2565b60405180910390fd5b6000808673ffffffffffffffffffffffffffffffffffffffff168587604051612cf0919061522e565b60006040518083038185875af1925050503d8060008114612d2d576040519150601f19603f3d011682016040523d82523d6000602084013e612d32565b606091505b5091509150612d42828286612e87565b92505050949350505050565b60007f01ffc9a7000000000000000000000000000000000000000000000000000000007bffffffffffffffffffffffffffffffffffffffffffffffffffffffff1916827bffffffffffffffffffffffffffffffffffffffffffffffffffffffff1916149050919050565b60008383834630604051602001612dd3959493929190615245565b6040516020818303038152906040528051906020012090509392505050565b60008060056000848152602001908152602001600020905080600201548160010154612e1e919061427b565b612e2f612e2a85610f11565b61179f565b1115915050919050565b6000806005600084815260200190815260200160002090508060000154816001015411915050919050565b6000808273ffffffffffffffffffffffffffffffffffffffff163b119050919050565b60608315612e9757829050612ee7565b600083511115612eaa5782518084602001fd5b816040517f08c379a0000000000000000000000000000000000000000000000000000000008152600401612ede91906130e3565b60405180910390fd5b9392505050565b6000604051905090565b600080fd5b600080fd5b60007fffffffff0000000000000000000000000000000000000000000000000000000082169050919050565b612f3781612f02565b8114612f4257600080fd5b50565b600081359050612f5481612f2e565b92915050565b600060208284031215612f7057612f6f612ef8565b5b6000612f7e84828501612f45565b91505092915050565b60008115159050919050565b612f9c81612f87565b82525050565b6000602082019050612fb76000830184612f93565b92915050565b6000819050919050565b612fd081612fbd565b82525050565b6000602082019050612feb6000830184612fc7565b92915050565b612ffa81612fbd565b811461300557600080fd5b50565b60008135905061301781612ff1565b92915050565b60006020828403121561303357613032612ef8565b5b600061304184828501613008565b91505092915050565b600081519050919050565b600082825260208201905092915050565b60005b83811015613084578082015181840152602081019050613069565b83811115613093576000848401525b50505050565b6000601f19601f8301169050919050565b60006130b58261304a565b6130bf8185613055565b93506130cf818560208601613066565b6130d881613099565b840191505092915050565b600060208201905081810360008301526130fd81846130aa565b905092915050565b600080fd5b7f4e487b7100000000000000000000000000000000000000000000000000000000600052604160045260246000fd5b61314282613099565b810181811067ffffffffffffffff821117156131615761316061310a565b5b80604052505050565b6000613174612eee565b90506131808282613139565b919050565b600067ffffffffffffffff8211156131a05761319f61310a565b5b602082029050602081019050919050565b600080fd5b600073ffffffffffffffffffffffffffffffffffffffff82169050919050565b60006131e1826131b6565b9050919050565b6131f1816131d6565b81146131fc57600080fd5b50565b60008135905061320e816131e8565b92915050565b600061322761322284613185565b61316a565b9050808382526020820190506020840283018581111561324a576132496131b1565b5b835b81811015613273578061325f88826131ff565b84526020840193505060208101905061324c565b5050509392505050565b600082601f83011261329257613291613105565b5b81356132a2848260208601613214565b91505092915050565b600067ffffffffffffffff8211156132c6576132c561310a565b5b602082029050602081019050919050565b60006132ea6132e5846132ab565b61316a565b9050808382526020820190506020840283018581111561330d5761330c6131b1565b5b835b8181101561333657806133228882613008565b84526020840193505060208101905061330f565b5050509392505050565b600082601f83011261335557613354613105565b5b81356133658482602086016132d7565b91505092915050565b600067ffffffffffffffff8211156133895761338861310a565b5b602082029050602081019050919050565b600080fd5b600067ffffffffffffffff8211156133ba576133b961310a565b5b6133c382613099565b9050602081019050919050565b82818337600083830152505050565b60006133f26133ed8461339f565b61316a565b90508281526020810184848401111561340e5761340d61339a565b5b6134198482856133d0565b509392505050565b600082601f83011261343657613435613105565b5b81356134468482602086016133df565b91505092915050565b600061346261345d8461336e565b61316a565b90508083825260208201905060208402830185811115613485576134846131b1565b5b835b818110156134cc57803567ffffffffffffffff8111156134aa576134a9613105565b5b8086016134b78982613421565b85526020850194505050602081019050613487565b5050509392505050565b600082601f8301126134eb576134ea613105565b5b81356134fb84826020860161344f565b91505092915050565b6000819050919050565b61351781613504565b811461352257600080fd5b50565b6000813590506135348161350e565b92915050565b6000806000806080858703121561355457613553612ef8565b5b600085013567ffffffffffffffff81111561357257613571612efd565b5b61357e8782880161327d565b945050602085013567ffffffffffffffff81111561359f5761359e612efd565b5b6135ab87828801613340565b935050604085013567ffffffffffffffff8111156135cc576135cb612efd565b5b6135d8878288016134d6565b92505060606135e987828801613525565b91505092959194509250565b600060ff82169050919050565b61360b816135f5565b811461361657600080fd5b50565b60008135905061362881613602565b92915050565b600080600080600060a0868803121561364a57613649612ef8565b5b600061365888828901613008565b955050602061366988828901613619565b945050604061367a88828901613619565b935050606061368b88828901613525565b925050608061369c88828901613525565b9150509295509295909350565b7f4e487b7100000000000000000000000000000000000000000000000000000000600052602160045260246000fd5b600881106136e9576136e86136a9565b5b50565b60008190506136fa826136d8565b919050565b600061370a826136ec565b9050919050565b61371a816136ff565b82525050565b60006020820190506137356000830184613711565b92915050565b6000806040838503121561375257613751612ef8565b5b600061376085828601613008565b9250506020613771858286016131ff565b9150509250929050565b60006060820190506137906000830186612fc7565b61379d6020830185612fc7565b6137aa6040830184612fc7565b949350505050565b600080604083850312156137c9576137c8612ef8565b5b60006137d785828601613008565b92505060206137e885828601613619565b9150509250929050565b600080fd5b60008083601f84011261380d5761380c613105565b5b8235905067ffffffffffffffff81111561382a576138296137f2565b5b602083019150836001820283011115613846576138456131b1565b5b9250929050565b6000806000806060858703121561386757613866612ef8565b5b600061387587828801613008565b945050602061388687828801613619565b935050604085013567ffffffffffffffff8111156138a7576138a6612efd565b5b6138b3878288016137f7565b925092505092959194509250565b600067ffffffffffffffff8211156138dc576138db61310a565b5b6138e582613099565b9050602081019050919050565b6000613905613900846138c1565b61316a565b9050828152602081018484840111156139215761392061339a565b5b61392c8482856133d0565b509392505050565b600082601f83011261394957613948613105565b5b81356139598482602086016138f2565b91505092915050565b6000806000806080858703121561397c5761397b612ef8565b5b600085013567ffffffffffffffff81111561399a57613999612efd565b5b6139a68782880161327d565b945050602085013567ffffffffffffffff8111156139c7576139c6612efd565b5b6139d387828801613340565b935050604085013567ffffffffffffffff8111156139f4576139f3612efd565b5b613a00878288016134d6565b925050606085013567ffffffffffffffff811115613a2157613a20612efd565b5b613a2d87828801613934565b91505092959194509250565b600081519050919050565b600082825260208201905092915050565b6000819050602082019050919050565b613a6e81612fbd565b82525050565b6000613a808383613a65565b60208301905092915050565b6000602082019050919050565b6000613aa482613a39565b613aae8185613a44565b9350613ab983613a55565b8060005b83811015613aea578151613ad18882613a74565b9750613adc83613a8c565b925050600181019050613abd565b5085935050505092915050565b60006020820190508181036000830152613b118184613a99565b905092915050565b6000613b24826131b6565b9050919050565b6000613b3682613b19565b9050919050565b613b4681613b2b565b8114613b5157600080fd5b50565b600081359050613b6381613b3d565b92915050565b600060208284031215613b7f57613b7e612ef8565b5b6000613b8d84828501613b54565b91505092915050565b60008083601f840112613bac57613bab613105565b5b8235905067ffffffffffffffff811115613bc957613bc86137f2565b5b602083019150836001820283011115613be557613be46131b1565b5b9250929050565b60008060008060608587031215613c0657613c05612ef8565b5b6000613c14878288016131ff565b9450506020613c2587828801613008565b935050604085013567ffffffffffffffff811115613c4657613c45612efd565b5b613c5287828801613b96565b925092505092959194509250565b613c69816131d6565b82525050565b6000602082019050613c846000830184613c60565b92915050565b613c9381613504565b82525050565b6000602082019050613cae6000830184613c8a565b92915050565b60008060408385031215613ccb57613cca612ef8565b5b6000613cd9858286016131ff565b9250506020613cea85828601613008565b9150509250929050565b6000819050919050565b6000613d19613d14613d0f846131b6565b613cf4565b6131b6565b9050919050565b6000613d2b82613cfe565b9050919050565b6000613d3d82613d20565b9050919050565b613d4d81613d32565b82525050565b6000602082019050613d686000830184613d44565b92915050565b7f476f7665726e6f723a206f6e6c79476f7665726e616e63650000000000000000600082015250565b6000613da4601883613055565b9150613daf82613d6e565b602082019050919050565b60006020820190508181036000830152613dd381613d97565b9050919050565b7f4e487b7100000000000000000000000000000000000000000000000000000000600052602260045260246000fd5b60006002820490506001821680613e2157607f821691505b60208210811415613e3557613e34613dda565b5b50919050565b7f476f7665726e6f723a2070726f706f73616c206e6f742073756363657373667560008201527f6c00000000000000000000000000000000000000000000000000000000000000602082015250565b6000613e97602183613055565b9150613ea282613e3b565b604082019050919050565b60006020820190508181036000830152613ec681613e8a565b9050919050565b600081519050613edc81612ff1565b92915050565b600060208284031215613ef857613ef7612ef8565b5b6000613f0684828501613ecd565b91505092915050565b600081519050919050565b600082825260208201905092915050565b6000819050602082019050919050565b613f44816131d6565b82525050565b6000613f568383613f3b565b60208301905092915050565b6000602082019050919050565b6000613f7a82613f0f565b613f848185613f1a565b9350613f8f83613f2b565b8060005b83811015613fc0578151613fa78882613f4a565b9750613fb283613f62565b925050600181019050613f93565b5085935050505092915050565b600081519050919050565b600082825260208201905092915050565b6000819050602082019050919050565b600081519050919050565b600082825260208201905092915050565b600061402082613ff9565b61402a8185614004565b935061403a818560208601613066565b61404381613099565b840191505092915050565b600061405a8383614015565b905092915050565b6000602082019050919050565b600061407a82613fcd565b6140848185613fd8565b93508360208202850161409685613fe9565b8060005b858110156140d257848403895281516140b3858261404e565b94506140be83614062565b925060208a0199505060018101905061409a565b50829750879550505050505092915050565b6000819050919050565b60008160001b9050919050565b600061411661411161410c846140e4565b6140ee565b613504565b9050919050565b614126816140fb565b82525050565b600060a08201905081810360008301526141468188613f6f565b9050818103602083015261415a8187613a99565b9050818103604083015261416e818661406f565b905061417d606083018561411d565b61418a6080830184613c8a565b9695505050505050565b6000815190506141a38161350e565b92915050565b6000602082840312156141bf576141be612ef8565b5b60006141cd84828501614194565b91505092915050565b600060c08201905081810360008301526141f08189613f6f565b905081810360208301526142048188613a99565b90508181036040830152614218818761406f565b9050614227606083018661411d565b6142346080830185613c8a565b61424160a0830184612fc7565b979650505050505050565b7f4e487b7100000000000000000000000000000000000000000000000000000000600052601160045260246000fd5b600061428682612fbd565b915061429183612fbd565b9250827fffffffffffffffffffffffffffffffffffffffffffffffffffffffffffffffff038211156142c6576142c561424c565b5b828201905092915050565b60006040820190506142e66000830185612fc7565b6142f36020830184612fc7565b9392505050565b614303816135f5565b82525050565b600060608201905061431e6000830186613c8a565b61432b6020830185612fc7565b61433860408301846142fa565b949350505050565b6000608082019050818103600083015261435a8187613f6f565b9050818103602083015261436e8186613a99565b90508181036040830152614382818561406f565b90506143916060830184613c8a565b95945050505050565b7f476f7665726e6f72566f74657351756f72756d4672616374696f6e3a2071756f60008201527f72756d4e756d657261746f72206f7665722071756f72756d44656e6f6d696e6160208201527f746f720000000000000000000000000000000000000000000000000000000000604082015250565b600061441c604383613055565b91506144278261439a565b606082019050919050565b6000602082019050818103600083015261444b8161440f565b9050919050565b7f476f7665726e6f723a20766f7465206e6f742063757272656e746c792061637460008201527f6976650000000000000000000000000000000000000000000000000000000000602082015250565b60006144ae602383613055565b91506144b982614452565b604082019050919050565b600060208201905081810360008301526144dd816144a1565b9050919050565b60006080820190506144f96000830187612fc7565b61450660208301866142fa565b6145136040830185612fc7565b818103606083015261452581846130aa565b905095945050505050565b61453981612f87565b811461454457600080fd5b50565b60008151905061455681614530565b92915050565b60006020828403121561457257614571612ef8565b5b600061458084828501614547565b91505092915050565b600061459482612fbd565b915061459f83612fbd565b9250828210156145b2576145b161424c565b5b828203905092915050565b7f476f7665726e6f72436f6d7061746962696c697479427261766f3a2070726f7060008201527f6f73657220766f7465732062656c6f772070726f706f73616c2074687265736860208201527f6f6c640000000000000000000000000000000000000000000000000000000000604082015250565b600061463f604383613055565b915061464a826145bd565b606082019050919050565b6000602082019050818103600083015261466e81614632565b9050919050565b7f476f7665726e6f723a20696e76616c69642070726f706f73616c206c656e677460008201527f6800000000000000000000000000000000000000000000000000000000000000602082015250565b60006146d1602183613055565b91506146dc82614675565b604082019050919050565b60006020820190508181036000830152614700816146c4565b9050919050565b7f476f7665726e6f723a20656d7074792070726f706f73616c0000000000000000600082015250565b600061473d601883613055565b915061474882614707565b602082019050919050565b6000602082019050818103600083015261476c81614730565b9050919050565b7f476f7665726e6f723a2070726f706f73616c20616c726561647920657869737460008201527f7300000000000000000000000000000000000000000000000000000000000000602082015250565b60006147cf602183613055565b91506147da82614773565b604082019050919050565b600060208201905081810360008301526147fe816147c2565b9050919050565b600067ffffffffffffffff82169050919050565b600061482482614805565b915061482f83614805565b92508267ffffffffffffffff0382111561484c5761484b61424c565b5b828201905092915050565b600081519050919050565b600082825260208201905092915050565b6000819050602082019050919050565b600082825260208201905092915050565b600061489f8261304a565b6148a98185614883565b93506148b9818560208601613066565b6148c281613099565b840191505092915050565b60006148d98383614894565b905092915050565b6000602082019050919050565b60006148f982614857565b6149038185614862565b93508360208202850161491585614873565b8060005b85811015614951578484038952815161493285826148cd565b945061493d836148e1565b925060208a01995050600181019050614919565b50829750879550505050505092915050565b600061497e61497961497484614805565b613cf4565b612fbd565b9050919050565b61498e81614963565b82525050565b6000610120820190506149aa600083018c612fc7565b6149b7602083018b613c60565b81810360408301526149c9818a613f6f565b905081810360608301526149dd8189613a99565b905081810360808301526149f181886148ee565b905081810360a0830152614a05818761406f565b9050614a1460c0830186614985565b614a2160e0830185614985565b818103610100830152614a3481846130aa565b90509a9950505050505050505050565b6000604082019050614a596000830185613c60565b614a666020830184613c60565b9392505050565b7f476f7665726e6f7253657474696e67733a20766f74696e6720706572696f642060008201527f746f6f206c6f7700000000000000000000000000000000000000000000000000602082015250565b6000614ac9602783613055565b9150614ad482614a6d565b604082019050919050565b60006020820190508181036000830152614af881614abc565b9050919050565b6000604082019050614b146000830185613c60565b614b216020830184612fc7565b9392505050565b6000614b3382612fbd565b9150614b3e83612fbd565b9250817fffffffffffffffffffffffffffffffffffffffffffffffffffffffffffffffff0483118215151615614b7757614b7661424c565b5b828202905092915050565b7f4e487b7100000000000000000000000000000000000000000000000000000000600052601260045260246000fd5b6000614bbc82612fbd565b9150614bc783612fbd565b925082614bd757614bd6614b82565b5b828204905092915050565b600081905092915050565b7f1901000000000000000000000000000000000000000000000000000000000000600082015250565b6000614c23600283614be2565b9150614c2e82614bed565b600282019050919050565b6000819050919050565b614c54614c4f82613504565b614c39565b82525050565b6000614c6582614c16565b9150614c718285614c43565b602082019150614c818284614c43565b6020820191508190509392505050565b6000608082019050614ca66000830187613c8a565b614cb360208301866142fa565b614cc06040830185613c8a565b614ccd6060830184613c8a565b95945050505050565b7f45434453413a20696e76616c6964207369676e61747572650000000000000000600082015250565b6000614d0c601883613055565b9150614d1782614cd6565b602082019050919050565b60006020820190508181036000830152614d3b81614cff565b9050919050565b7f45434453413a20696e76616c6964207369676e6174757265206c656e67746800600082015250565b6000614d78601f83613055565b9150614d8382614d42565b602082019050919050565b60006020820190508181036000830152614da781614d6b565b9050919050565b7f45434453413a20696e76616c6964207369676e6174757265202773272076616c60008201527f7565000000000000000000000000000000000000000000000000000000000000602082015250565b6000614e0a602283613055565b9150614e1582614dae565b604082019050919050565b60006020820190508181036000830152614e3981614dfd565b9050919050565b7f45434453413a20696e76616c6964207369676e6174757265202776272076616c60008201527f7565000000000000000000000000000000000000000000000000000000000000602082015250565b6000614e9c602283613055565b9150614ea782614e40565b604082019050919050565b60006020820190508181036000830152614ecb81614e8f565b9050919050565b7f476f7665726e6f72566f74696e6753696d706c653a20766f746520616c72656160008201527f6479206361737400000000000000000000000000000000000000000000000000602082015250565b6000614f2e602783613055565b9150614f3982614ed2565b604082019050919050565b60006020820190508181036000830152614f5d81614f21565b9050919050565b7f476f7665726e6f72566f74696e6753696d706c653a20696e76616c696420766160008201527f6c756520666f7220656e756d20566f7465547970650000000000000000000000602082015250565b6000614fc0603583613055565b9150614fcb82614f64565b604082019050919050565b60006020820190508181036000830152614fef81614fb3565b9050919050565b7f476f7665726e6f723a20756e6b6e6f776e2070726f706f73616c206964000000600082015250565b600061502c601d83613055565b915061503782614ff6565b602082019050919050565b6000602082019050818103600083015261505b8161501f565b9050919050565b7f53616665436173743a2076616c756520646f65736e27742066697420696e203660008201527f3420626974730000000000000000000000000000000000000000000000000000602082015250565b60006150be602683613055565b91506150c982615062565b604082019050919050565b600060208201905081810360008301526150ed816150b1565b9050919050565b7f416464726573733a20696e73756666696369656e742062616c616e636520666f60008201527f722063616c6c0000000000000000000000000000000000000000000000000000602082015250565b6000615150602683613055565b915061515b826150f4565b604082019050919050565b6000602082019050818103600083015261517f81615143565b9050919050565b7f416464726573733a2063616c6c20746f206e6f6e2d636f6e7472616374000000600082015250565b60006151bc601d83613055565b91506151c782615186565b602082019050919050565b600060208201905081810360008301526151eb816151af565b9050919050565b600081905092915050565b600061520882613ff9565b61521281856151f2565b9350615222818560208601613066565b80840191505092915050565b600061523a82846151fd565b915081905092915050565b600060a08201905061525a6000830188613c8a565b6152676020830187613c8a565b6152746040830186613c8a565b6152816060830185612fc7565b61528e6080830184613c60565b969550505050505056fe416464726573733a206c6f772d6c6576656c2063616c6c20776974682076616c7565206661696c6564a2646970667358221220ff74ea7b12a210d5073c95f856590d546695a249a7444a85e58b50b1bfccb0e464736f6c63430008090033",
  "linkReferences": {},
  "deployedLinkReferences": {}
}