{
  "_format": "hh-sol-artifact-1",
  "contractName": "GovernorContract",
  "sourceName": "contracts/Governance_standard/GovernorContract.sol",
  "abi": [
    {
      "inputs": [
        {
          "internalType": "contract ERC20Votes",
          "name": "_token",
          "type": "address"
        },
        {
          "internalType": "contract TimelockController",
          "name": "_timelock",
          "type": "address"
        },
        {
          "internalType": "uint256",
          "name": "_quorumPercentage",
          "type": "uint256"
        },
        {
          "internalType": "uint256",
          "name": "_votingPeriod",
          "type": "uint256"
        },
        {
          "internalType": "uint256",
          "name": "_votingDelay",
          "type": "uint256"
        }
      ],
      "stateMutability": "nonpayable",
      "type": "constructor"
    },
    {
      "anonymous": false,
      "inputs": [
        {
          "indexed": false,
          "internalType": "uint256",
          "name": "proposalId",
          "type": "uint256"
        }
      ],
      "name": "ProposalCanceled",
      "type": "event"
    },
    {
      "anonymous": false,
      "inputs": [
        {
          "indexed": false,
          "internalType": "uint256",
          "name": "proposalId",
          "type": "uint256"
        },
        {
          "indexed": false,
          "internalType": "address",
          "name": "proposer",
          "type": "address"
        },
        {
          "indexed": false,
          "internalType": "address[]",
          "name": "targets",
          "type": "address[]"
        },
        {
          "indexed": false,
          "internalType": "uint256[]",
          "name": "values",
          "type": "uint256[]"
        },
        {
          "indexed": false,
          "internalType": "string[]",
          "name": "signatures",
          "type": "string[]"
        },
        {
          "indexed": false,
          "internalType": "bytes[]",
          "name": "calldatas",
          "type": "bytes[]"
        },
        {
          "indexed": false,
          "internalType": "uint256",
          "name": "startBlock",
          "type": "uint256"
        },
        {
          "indexed": false,
          "internalType": "uint256",
          "name": "endBlock",
          "type": "uint256"
        },
        {
          "indexed": false,
          "internalType": "string",
          "name": "description",
          "type": "string"
        }
      ],
      "name": "ProposalCreated",
      "type": "event"
    },
    {
      "anonymous": false,
      "inputs": [
        {
          "indexed": false,
          "internalType": "uint256",
          "name": "proposalId",
          "type": "uint256"
        }
      ],
      "name": "ProposalExecuted",
      "type": "event"
    },
    {
      "anonymous": false,
      "inputs": [
        {
          "indexed": false,
          "internalType": "uint256",
          "name": "proposalId",
          "type": "uint256"
        },
        {
          "indexed": false,
          "internalType": "uint256",
          "name": "eta",
          "type": "uint256"
        }
      ],
      "name": "ProposalQueued",
      "type": "event"
    },
    {
      "anonymous": false,
      "inputs": [
        {
          "indexed": false,
          "internalType": "uint256",
          "name": "oldProposalThreshold",
          "type": "uint256"
        },
        {
          "indexed": false,
          "internalType": "uint256",
          "name": "newProposalThreshold",
          "type": "uint256"
        }
      ],
      "name": "ProposalThresholdSet",
      "type": "event"
    },
    {
      "anonymous": false,
      "inputs": [
        {
          "indexed": false,
          "internalType": "uint256",
          "name": "oldQuorumNumerator",
          "type": "uint256"
        },
        {
          "indexed": false,
          "internalType": "uint256",
          "name": "newQuorumNumerator",
          "type": "uint256"
        }
      ],
      "name": "QuorumNumeratorUpdated",
      "type": "event"
    },
    {
      "anonymous": false,
      "inputs": [
        {
          "indexed": false,
          "internalType": "address",
          "name": "oldTimelock",
          "type": "address"
        },
        {
          "indexed": false,
          "internalType": "address",
          "name": "newTimelock",
          "type": "address"
        }
      ],
      "name": "TimelockChange",
      "type": "event"
    },
    {
      "anonymous": false,
      "inputs": [
        {
          "indexed": true,
          "internalType": "address",
          "name": "voter",
          "type": "address"
        },
        {
          "indexed": false,
          "internalType": "uint256",
          "name": "proposalId",
          "type": "uint256"
        },
        {
          "indexed": false,
          "internalType": "uint8",
          "name": "support",
          "type": "uint8"
        },
        {
          "indexed": false,
          "internalType": "uint256",
          "name": "weight",
          "type": "uint256"
        },
        {
          "indexed": false,
          "internalType": "string",
          "name": "reason",
          "type": "string"
        }
      ],
      "name": "VoteCast",
      "type": "event"
    },
    {
      "anonymous": false,
      "inputs": [
        {
          "indexed": false,
          "internalType": "uint256",
          "name": "oldVotingDelay",
          "type": "uint256"
        },
        {
          "indexed": false,
          "internalType": "uint256",
          "name": "newVotingDelay",
          "type": "uint256"
        }
      ],
      "name": "VotingDelaySet",
      "type": "event"
    },
    {
      "anonymous": false,
      "inputs": [
        {
          "indexed": false,
          "internalType": "uint256",
          "name": "oldVotingPeriod",
          "type": "uint256"
        },
        {
          "indexed": false,
          "internalType": "uint256",
          "name": "newVotingPeriod",
          "type": "uint256"
        }
      ],
      "name": "VotingPeriodSet",
      "type": "event"
    },
    {
      "inputs": [],
      "name": "BALLOT_TYPEHASH",
      "outputs": [
        {
          "internalType": "bytes32",
          "name": "",
          "type": "bytes32"
        }
      ],
      "stateMutability": "view",
      "type": "function"
    },
    {
      "inputs": [],
      "name": "COUNTING_MODE",
      "outputs": [
        {
          "internalType": "string",
          "name": "",
          "type": "string"
        }
      ],
      "stateMutability": "pure",
      "type": "function"
    },
    {
      "inputs": [
        {
          "internalType": "uint256",
          "name": "",
          "type": "uint256"
        }
      ],
      "name": "Proposals",
      "outputs": [
        {
          "internalType": "uint256",
          "name": "",
          "type": "uint256"
        }
      ],
      "stateMutability": "view",
      "type": "function"
    },
    {
      "inputs": [
        {
          "internalType": "uint256",
          "name": "proposalId",
          "type": "uint256"
        },
        {
          "internalType": "uint8",
          "name": "support",
          "type": "uint8"
        }
      ],
      "name": "castVote",
      "outputs": [
        {
          "internalType": "uint256",
          "name": "",
          "type": "uint256"
        }
      ],
      "stateMutability": "nonpayable",
      "type": "function"
    },
    {
      "inputs": [
        {
          "internalType": "uint256",
          "name": "proposalId",
          "type": "uint256"
        },
        {
          "internalType": "uint8",
          "name": "support",
          "type": "uint8"
        },
        {
          "internalType": "uint8",
          "name": "v",
          "type": "uint8"
        },
        {
          "internalType": "bytes32",
          "name": "r",
          "type": "bytes32"
        },
        {
          "internalType": "bytes32",
          "name": "s",
          "type": "bytes32"
        }
      ],
      "name": "castVoteBySig",
      "outputs": [
        {
          "internalType": "uint256",
          "name": "",
          "type": "uint256"
        }
      ],
      "stateMutability": "nonpayable",
      "type": "function"
    },
    {
      "inputs": [
        {
          "internalType": "uint256",
          "name": "proposalId",
          "type": "uint256"
        },
        {
          "internalType": "uint8",
          "name": "support",
          "type": "uint8"
        },
        {
          "internalType": "string",
          "name": "reason",
          "type": "string"
        }
      ],
      "name": "castVoteWithReason",
      "outputs": [
        {
          "internalType": "uint256",
          "name": "",
          "type": "uint256"
        }
      ],
      "stateMutability": "nonpayable",
      "type": "function"
    },
    {
      "inputs": [
        {
          "internalType": "address[]",
          "name": "targets",
          "type": "address[]"
        },
        {
          "internalType": "uint256[]",
          "name": "values",
          "type": "uint256[]"
        },
        {
          "internalType": "bytes[]",
          "name": "calldatas",
          "type": "bytes[]"
        },
        {
          "internalType": "bytes32",
          "name": "descriptionHash",
          "type": "bytes32"
        }
      ],
      "name": "execute",
      "outputs": [
        {
          "internalType": "uint256",
          "name": "",
          "type": "uint256"
        }
      ],
      "stateMutability": "payable",
      "type": "function"
    },
    {
      "inputs": [
        {
          "internalType": "address",
          "name": "account",
          "type": "address"
        },
        {
          "internalType": "uint256",
          "name": "blockNumber",
          "type": "uint256"
        }
      ],
      "name": "getVotes",
      "outputs": [
        {
          "internalType": "uint256",
          "name": "",
          "type": "uint256"
        }
      ],
      "stateMutability": "view",
      "type": "function"
    },
    {
      "inputs": [
        {
          "internalType": "uint256",
          "name": "proposalId",
          "type": "uint256"
        },
        {
          "internalType": "address",
          "name": "account",
          "type": "address"
        }
      ],
      "name": "hasVoted",
      "outputs": [
        {
          "internalType": "bool",
          "name": "",
          "type": "bool"
        }
      ],
      "stateMutability": "view",
      "type": "function"
    },
    {
      "inputs": [
        {
          "internalType": "address[]",
          "name": "targets",
          "type": "address[]"
        },
        {
          "internalType": "uint256[]",
          "name": "values",
          "type": "uint256[]"
        },
        {
          "internalType": "bytes[]",
          "name": "calldatas",
          "type": "bytes[]"
        },
        {
          "internalType": "bytes32",
          "name": "descriptionHash",
          "type": "bytes32"
        }
      ],
      "name": "hashProposal",
      "outputs": [
        {
          "internalType": "uint256",
          "name": "",
          "type": "uint256"
        }
      ],
      "stateMutability": "pure",
      "type": "function"
    },
    {
      "inputs": [],
      "name": "name",
      "outputs": [
        {
          "internalType": "string",
          "name": "",
          "type": "string"
        }
      ],
      "stateMutability": "view",
      "type": "function"
    },
    {
      "inputs": [
        {
          "internalType": "uint256",
          "name": "proposalId",
          "type": "uint256"
        }
      ],
      "name": "proposalDeadline",
      "outputs": [
        {
          "internalType": "uint256",
          "name": "",
          "type": "uint256"
        }
      ],
      "stateMutability": "view",
      "type": "function"
    },
    {
      "inputs": [
        {
          "internalType": "uint256",
          "name": "proposalId",
          "type": "uint256"
        }
      ],
      "name": "proposalEta",
      "outputs": [
        {
          "internalType": "uint256",
          "name": "",
          "type": "uint256"
        }
      ],
      "stateMutability": "view",
      "type": "function"
    },
    {
      "inputs": [
        {
          "internalType": "uint256",
          "name": "proposalId",
          "type": "uint256"
        }
      ],
      "name": "proposalSnapshot",
      "outputs": [
        {
          "internalType": "uint256",
          "name": "",
          "type": "uint256"
        }
      ],
      "stateMutability": "view",
      "type": "function"
    },
    {
      "inputs": [],
      "name": "proposalThreshold",
      "outputs": [
        {
          "internalType": "uint256",
          "name": "",
          "type": "uint256"
        }
      ],
      "stateMutability": "view",
      "type": "function"
    },
    {
      "inputs": [
        {
          "internalType": "uint256",
          "name": "proposalId",
          "type": "uint256"
        }
      ],
      "name": "proposalVotes",
      "outputs": [
        {
          "internalType": "uint256",
          "name": "againstVotes",
          "type": "uint256"
        },
        {
          "internalType": "uint256",
          "name": "forVotes",
          "type": "uint256"
        },
        {
          "internalType": "uint256",
          "name": "abstainVotes",
          "type": "uint256"
        }
      ],
      "stateMutability": "view",
      "type": "function"
    },
    {
      "inputs": [
        {
          "internalType": "address[]",
          "name": "targets",
          "type": "address[]"
        },
        {
          "internalType": "uint256[]",
          "name": "values",
          "type": "uint256[]"
        },
        {
          "internalType": "bytes[]",
          "name": "calldatas",
          "type": "bytes[]"
        },
        {
          "internalType": "string",
          "name": "description",
          "type": "string"
        }
      ],
      "name": "propose",
      "outputs": [
        {
          "internalType": "uint256",
          "name": "",
          "type": "uint256"
        }
      ],
      "stateMutability": "nonpayable",
      "type": "function"
    },
    {
      "inputs": [
        {
          "internalType": "address[]",
          "name": "targets",
          "type": "address[]"
        },
        {
          "internalType": "uint256[]",
          "name": "values",
          "type": "uint256[]"
        },
        {
          "internalType": "bytes[]",
          "name": "calldatas",
          "type": "bytes[]"
        },
        {
          "internalType": "bytes32",
          "name": "descriptionHash",
          "type": "bytes32"
        }
      ],
      "name": "queue",
      "outputs": [
        {
          "internalType": "uint256",
          "name": "",
          "type": "uint256"
        }
      ],
      "stateMutability": "nonpayable",
      "type": "function"
    },
    {
      "inputs": [
        {
          "internalType": "uint256",
          "name": "blockNumber",
          "type": "uint256"
        }
      ],
      "name": "quorum",
      "outputs": [
        {
          "internalType": "uint256",
          "name": "",
          "type": "uint256"
        }
      ],
      "stateMutability": "view",
      "type": "function"
    },
    {
      "inputs": [],
      "name": "quorumDenominator",
      "outputs": [
        {
          "internalType": "uint256",
          "name": "",
          "type": "uint256"
        }
      ],
      "stateMutability": "view",
      "type": "function"
    },
    {
      "inputs": [],
      "name": "quorumNumerator",
      "outputs": [
        {
          "internalType": "uint256",
          "name": "",
          "type": "uint256"
        }
      ],
      "stateMutability": "view",
      "type": "function"
    },
    {
      "inputs": [
        {
          "internalType": "address",
          "name": "target",
          "type": "address"
        },
        {
          "internalType": "uint256",
          "name": "value",
          "type": "uint256"
        },
        {
          "internalType": "bytes",
          "name": "data",
          "type": "bytes"
        }
      ],
      "name": "relay",
      "outputs": [],
      "stateMutability": "nonpayable",
      "type": "function"
    },
    {
      "inputs": [],
      "name": "s_votingDelay",
      "outputs": [
        {
          "internalType": "uint256",
          "name": "",
          "type": "uint256"
        }
      ],
      "stateMutability": "view",
      "type": "function"
    },
    {
      "inputs": [],
      "name": "s_votingPeriod",
      "outputs": [
        {
          "internalType": "uint256",
          "name": "",
          "type": "uint256"
        }
      ],
      "stateMutability": "view",
      "type": "function"
    },
    {
      "inputs": [
        {
          "internalType": "uint256",
          "name": "newProposalThreshold",
          "type": "uint256"
        }
      ],
      "name": "setProposalThreshold",
      "outputs": [],
      "stateMutability": "nonpayable",
      "type": "function"
    },
    {
      "inputs": [
        {
          "internalType": "uint256",
          "name": "newVotingDelay",
          "type": "uint256"
        }
      ],
      "name": "setVotingDelay",
      "outputs": [],
      "stateMutability": "nonpayable",
      "type": "function"
    },
    {
      "inputs": [
        {
          "internalType": "uint256",
          "name": "newVotingPeriod",
          "type": "uint256"
        }
      ],
      "name": "setVotingPeriod",
      "outputs": [],
      "stateMutability": "nonpayable",
      "type": "function"
    },
    {
      "inputs": [
        {
          "internalType": "uint256",
          "name": "proposalId",
          "type": "uint256"
        }
      ],
      "name": "state",
      "outputs": [
        {
          "internalType": "enum IGovernor.ProposalState",
          "name": "",
          "type": "uint8"
        }
      ],
      "stateMutability": "view",
      "type": "function"
    },
    {
      "inputs": [
        {
          "internalType": "bytes4",
          "name": "interfaceId",
          "type": "bytes4"
        }
      ],
      "name": "supportsInterface",
      "outputs": [
        {
          "internalType": "bool",
          "name": "",
          "type": "bool"
        }
      ],
      "stateMutability": "view",
      "type": "function"
    },
    {
      "inputs": [],
      "name": "timelock",
      "outputs": [
        {
          "internalType": "address",
          "name": "",
          "type": "address"
        }
      ],
      "stateMutability": "view",
      "type": "function"
    },
    {
      "inputs": [],
      "name": "token",
      "outputs": [
        {
          "internalType": "contract IVotes",
          "name": "",
          "type": "address"
        }
      ],
      "stateMutability": "view",
      "type": "function"
    },
    {
      "inputs": [
        {
          "internalType": "uint256",
          "name": "newQuorumNumerator",
          "type": "uint256"
        }
      ],
      "name": "updateQuorumNumerator",
      "outputs": [],
      "stateMutability": "nonpayable",
      "type": "function"
    },
    {
      "inputs": [
        {
          "internalType": "contract TimelockController",
          "name": "newTimelock",
          "type": "address"
        }
      ],
      "name": "updateTimelock",
      "outputs": [],
      "stateMutability": "nonpayable",
      "type": "function"
    },
    {
      "inputs": [],
      "name": "version",
      "outputs": [
        {
          "internalType": "string",
          "name": "",
          "type": "string"
        }
      ],
      "stateMutability": "view",
      "type": "function"
    },
    {
      "inputs": [],
      "name": "votingDelay",
      "outputs": [
        {
          "internalType": "uint256",
          "name": "",
          "type": "uint256"
        }
      ],
      "stateMutability": "view",
      "type": "function"
    },
    {
      "inputs": [],
      "name": "votingPeriod",
      "outputs": [
        {
          "internalType": "uint256",
          "name": "",
          "type": "uint256"
        }
      ],
      "stateMutability": "view",
      "type": "function"
    },
    {
      "stateMutability": "payable",
      "type": "receive"
    }
  ],
  "bytecode": "0x6101606040523480156200001257600080fd5b5060405162005c9538038062005c9583398181016040528101906200003891906200069d565b838386838560006040518060400160405280601081526020017f476f7665726e6f72436f6e7472616374000000000000000000000000000000008152508062000086620001fb60201b60201c565b60008280519060200120905060008280519060200120905060007f8b73c3c69bb8fe3d512ecc4cf759cc79239f7b179b0ffacaa9a75d522b39400f90508260e081815250508161010081815250504660a08181525050620000ef8184846200023860201b60201c565b608081815250503073ffffffffffffffffffffffffffffffffffffffff1660c08173ffffffffffffffffffffffffffffffffffffffff16815250508061012081815250505050505050806000908051906020019062000150929190620004db565b505062000163836200027460201b60201c565b6200017482620002bb60201b60201c565b62000185816200034860201b60201c565b5050508073ffffffffffffffffffffffffffffffffffffffff166101408173ffffffffffffffffffffffffffffffffffffffff168152505050620001cf816200038f60201b60201c565b50620001e1816200043160201b60201c565b508060098190555081600a819055505050505050620009e5565b60606040518060400160405280600181526020017f3100000000000000000000000000000000000000000000000000000000000000815250905090565b600083838346306040516020016200025595949392919062000762565b6040516020818303038152906040528051906020012090509392505050565b7fc565b045403dc03c2eea82b81a0465edad9e2e7fc4d97e11421c209da93d7a9360025482604051620002a9929190620007bf565b60405180910390a18060028190555050565b6000811162000301576040517f08c379a0000000000000000000000000000000000000000000000000000000008152600401620002f89062000873565b60405180910390fd5b7f7e3f7f0708a84de9203036abaa450dccc85ad5ff52f78c170f3edb55cf5e88286003548260405162000336929190620007bf565b60405180910390a18060038190555050565b7fccb45da8d5717e6c4544694297c4ba5cf151d455c9bb0ed4fc7a38411bc05461600454826040516200037d929190620007bf565b60405180910390a18060048190555050565b6200039f620004d260201b60201c565b811115620003e4576040517f08c379a0000000000000000000000000000000000000000000000000000000008152600401620003db9062000931565b60405180910390fd5b60006006549050816006819055507f0553476bf02ef2726e8ce5ced78d63e26e602e4a2257b1f559418e24b4633997818360405162000425929190620007bf565b60405180910390a15050565b7f08f74ea46ef7894f65eabfb5e6e695de773a000b47c529ab559178069b226401600760009054906101000a900473ffffffffffffffffffffffffffffffffffffffff16826040516200048692919062000953565b60405180910390a180600760006101000a81548173ffffffffffffffffffffffffffffffffffffffff021916908373ffffffffffffffffffffffffffffffffffffffff16021790555050565b60006064905090565b828054620004e990620009af565b90600052602060002090601f0160209004810192826200050d576000855562000559565b82601f106200052857805160ff191683800117855562000559565b8280016001018555821562000559579182015b82811115620005585782518255916020019190600101906200053b565b5b5090506200056891906200056c565b5090565b5b80821115620005875760008160009055506001016200056d565b5090565b600080fd5b600073ffffffffffffffffffffffffffffffffffffffff82169050919050565b6000620005bd8262000590565b9050919050565b6000620005d182620005b0565b9050919050565b620005e381620005c4565b8114620005ef57600080fd5b50565b6000815190506200060381620005d8565b92915050565b6000620006168262000590565b9050919050565b60006200062a8262000609565b9050919050565b6200063c816200061d565b81146200064857600080fd5b50565b6000815190506200065c8162000631565b92915050565b6000819050919050565b620006778162000662565b81146200068357600080fd5b50565b60008151905062000697816200066c565b92915050565b600080600080600060a08688031215620006bc57620006bb6200058b565b5b6000620006cc88828901620005f2565b9550506020620006df888289016200064b565b9450506040620006f28882890162000686565b9350506060620007058882890162000686565b9250506080620007188882890162000686565b9150509295509295909350565b6000819050919050565b6200073a8162000725565b82525050565b6200074b8162000662565b82525050565b6200075c81620005b0565b82525050565b600060a0820190506200077960008301886200072f565b6200078860208301876200072f565b6200079760408301866200072f565b620007a6606083018562000740565b620007b5608083018462000751565b9695505050505050565b6000604082019050620007d6600083018562000740565b620007e5602083018462000740565b9392505050565b600082825260208201905092915050565b7f476f7665726e6f7253657474696e67733a20766f74696e6720706572696f642060008201527f746f6f206c6f7700000000000000000000000000000000000000000000000000602082015250565b60006200085b602783620007ec565b91506200086882620007fd565b604082019050919050565b600060208201905081810360008301526200088e816200084c565b9050919050565b7f476f7665726e6f72566f74657351756f72756d4672616374696f6e3a2071756f60008201527f72756d4e756d657261746f72206f7665722071756f72756d44656e6f6d696e6160208201527f746f720000000000000000000000000000000000000000000000000000000000604082015250565b600062000919604383620007ec565b9150620009268262000895565b606082019050919050565b600060208201905081810360008301526200094c816200090a565b9050919050565b60006040820190506200096a600083018562000751565b62000979602083018462000751565b9392505050565b7f4e487b7100000000000000000000000000000000000000000000000000000000600052602260045260246000fd5b60006002820490506001821680620009c857607f821691505b60208210811415620009df57620009de62000980565b5b50919050565b60805160a05160c05160e05161010051610120516101405161524762000a4e60003960008181611725015281816120de01526121e801526000612470015260006124b201526000612491015260006123c60152600061241c0152600061244501526152476000f3fe6080604052600436106102135760003560e01c80637d5e81e211610118578063d1dbe7d8116100a0578063ea0217cf1161006f578063ea0217cf1461088e578063eb9019d4146108b7578063ece40cc1146108f4578063f8ce560a1461091d578063fc0c546a1461095a57610259565b8063d1dbe7d8146107d0578063d33219b41461080d578063dd4e2ba514610838578063deaaa7cc1461086357610259565b8063ab58fb8e116100e7578063ab58fb8e146106c5578063b58131b014610702578063c01f9e371461072d578063c28bc2fa1461076a578063c59057e41461079357610259565b80637d5e81e21461060957806397c3d33414610646578063a7713a7014610671578063a890c9101461069c57610259565b80633bccf4fd1161019b57806354fd4d501161016a57806354fd4d5014610510578063567813881461053b57806370b0f66014610578578063725ae3dc146105a15780637b3c71d3146105cc57610259565b80633bccf4fd1461041a5780633e4f49e6146104575780634385963214610494578063544ffc9c146104d157610259565b8063102d7f2c116101e2578063102d7f2c1461031a578063160cbed7146103455780632656227d146103825780632d63f693146103b25780633932abb1146103ef57610259565b806301ffc9a71461025e57806302a251a31461029b57806306f3f9e6146102c657806306fdde03146102ef57610259565b36610259573073ffffffffffffffffffffffffffffffffffffffff16610237610985565b73ffffffffffffffffffffffffffffffffffffffff161461025757600080fd5b005b600080fd5b34801561026a57600080fd5b5061028560048036038101906102809190612ecc565b610994565b6040516102929190612f14565b60405180910390f35b3480156102a757600080fd5b506102b06109a6565b6040516102bd9190612f48565b60405180910390f35b3480156102d257600080fd5b506102ed60048036038101906102e89190612f8f565b6109b0565b005b3480156102fb57600080fd5b50610304610a38565b6040516103119190613055565b60405180910390f35b34801561032657600080fd5b5061032f610aca565b60405161033c9190612f48565b60405180910390f35b34801561035157600080fd5b5061036c600480360381019061036791906134ac565b610ad0565b6040516103799190612f48565b60405180910390f35b61039c600480360381019061039791906134ac565b610da8565b6040516103a99190612f48565b60405180910390f35b3480156103be57600080fd5b506103d960048036038101906103d49190612f8f565b610edb565b6040516103e69190612f48565b60405180910390f35b3480156103fb57600080fd5b50610404610f49565b6040516104119190612f48565b60405180910390f35b34801561042657600080fd5b50610441600480360381019061043c91906135a0565b610f53565b60405161044e9190612f48565b60405180910390f35b34801561046357600080fd5b5061047e60048036038101906104799190612f8f565b610fdd565b60405161048b9190613692565b60405180910390f35b3480156104a057600080fd5b506104bb60048036038101906104b691906136ad565b610fef565b6040516104c89190612f14565b60405180910390f35b3480156104dd57600080fd5b506104f860048036038101906104f39190612f8f565b61105a565b604051610507939291906136ed565b60405180910390f35b34801561051c57600080fd5b50610525611092565b6040516105329190613055565b60405180910390f35b34801561054757600080fd5b50610562600480360381019061055d9190613724565b6110cf565b60405161056f9190612f48565b60405180910390f35b34801561058457600080fd5b5061059f600480360381019061059a9190612f8f565b611100565b005b3480156105ad57600080fd5b506105b6611188565b6040516105c39190612f48565b60405180910390f35b3480156105d857600080fd5b506105f360048036038101906105ee91906137bf565b61118e565b6040516106009190612f48565b60405180910390f35b34801561061557600080fd5b50610630600480360381019061062b91906138d4565b6111f6565b60405161063d9190612f48565b60405180910390f35b34801561065257600080fd5b5061065b61123c565b6040516106689190612f48565b60405180910390f35b34801561067d57600080fd5b50610686611245565b6040516106939190612f48565b60405180910390f35b3480156106a857600080fd5b506106c360048036038101906106be91906139fb565b61124f565b005b3480156106d157600080fd5b506106ec60048036038101906106e79190612f8f565b6112d7565b6040516106f99190612f48565b60405180910390f35b34801561070e57600080fd5b506107176113b3565b6040516107249190612f48565b60405180910390f35b34801561073957600080fd5b50610754600480360381019061074f9190612f8f565b6113c2565b6040516107619190612f48565b60405180910390f35b34801561077657600080fd5b50610791600480360381019061078c9190613a7e565b611430565b005b34801561079f57600080fd5b506107ba60048036038101906107b591906134ac565b611502565b6040516107c79190612f48565b60405180910390f35b3480156107dc57600080fd5b506107f760048036038101906107f29190612f8f565b61153e565b6040516108049190612f48565b60405180910390f35b34801561081957600080fd5b50610822611562565b60405161082f9190613b01565b60405180910390f35b34801561084457600080fd5b5061084d61158c565b60405161085a9190613055565b60405180910390f35b34801561086f57600080fd5b506108786115c9565b6040516108859190613b2b565b60405180910390f35b34801561089a57600080fd5b506108b560048036038101906108b09190612f8f565b6115ed565b005b3480156108c357600080fd5b506108de60048036038101906108d99190613b46565b611675565b6040516108eb9190612f48565b60405180910390f35b34801561090057600080fd5b5061091b60048036038101906109169190612f8f565b611689565b005b34801561092957600080fd5b50610944600480360381019061093f9190612f8f565b611711565b6040516109519190612f48565b60405180910390f35b34801561096657600080fd5b5061096f611723565b60405161097c9190613be5565b60405180910390f35b600061098f611747565b905090565b600061099f82611771565b9050919050565b6000600a54905090565b6109b8610985565b73ffffffffffffffffffffffffffffffffffffffff166109d66117eb565b73ffffffffffffffffffffffffffffffffffffffff1614610a2c576040517f08c379a0000000000000000000000000000000000000000000000000000000008152600401610a2390613c4c565b60405180910390fd5b610a35816117f3565b50565b606060008054610a4790613c9b565b80601f0160208091040260200160405190810160405280929190818152602001828054610a7390613c9b565b8015610ac05780601f10610a9557610100808354040283529160200191610ac0565b820191906000526020600020905b815481529060010190602001808311610aa357829003601f168201915b5050505050905090565b60095481565b600080610adf86868686611502565b905060046007811115610af557610af461361b565b5b610afe82610fdd565b6007811115610b1057610b0f61361b565b5b14610b50576040517f08c379a0000000000000000000000000000000000000000000000000000000008152600401610b4790613d3f565b60405180910390fd5b6000600760009054906101000a900473ffffffffffffffffffffffffffffffffffffffff1673ffffffffffffffffffffffffffffffffffffffff1663f27a0c926040518163ffffffff1660e01b815260040160206040518083038186803b158015610bba57600080fd5b505afa158015610bce573d6000803e3d6000fd5b505050506040513d601f19601f82011682018060405250810190610bf29190613d74565b9050600760009054906101000a900473ffffffffffffffffffffffffffffffffffffffff1673ffffffffffffffffffffffffffffffffffffffff1663b1c5f4278888886000896040518663ffffffff1660e01b8152600401610c5895949392919061407c565b60206040518083038186803b158015610c7057600080fd5b505afa158015610c84573d6000803e3d6000fd5b505050506040513d601f19601f82011682018060405250810190610ca891906140f9565b6008600084815260200190815260200160002081905550600760009054906101000a900473ffffffffffffffffffffffffffffffffffffffff1673ffffffffffffffffffffffffffffffffffffffff16638f2a0bb0888888600089876040518763ffffffff1660e01b8152600401610d2596959493929190614126565b600060405180830381600087803b158015610d3f57600080fd5b505af1158015610d53573d6000803e3d6000fd5b505050507f9a2e42fd6722813d69113e7d0079d3d940171428df7373df9c7f7617cfda2892828242610d8591906141cb565b604051610d93929190614221565b60405180910390a18192505050949350505050565b600080610db786868686611502565b90506000610dc482610fdd565b905060046007811115610dda57610dd961361b565b5b816007811115610ded57610dec61361b565b5b1480610e1d575060056007811115610e0857610e0761361b565b5b816007811115610e1b57610e1a61361b565b5b145b610e5c576040517f08c379a0000000000000000000000000000000000000000000000000000000008152600401610e5390613d3f565b60405180910390fd5b600180600084815260200190815260200160002060020160006101000a81548160ff0219169083151502179055507f712ae1383f79ac853f8d882153778e0260ef8f03b504e2866e0593e04d2b291f82604051610eb99190612f48565b60405180910390a1610ece8288888888611888565b8192505050949350505050565b6000610f38600160008481526020019081526020016000206000016040518060200160405290816000820160009054906101000a900467ffffffffffffffff1667ffffffffffffffff1667ffffffffffffffff168152505061189c565b67ffffffffffffffff169050919050565b6000600954905090565b600080610fb4610fac7f150214d74d59b7d1e90c73fc22ef3d991dd0a76b046543d4d80ab92d2a50328f8989604051602001610f9193929190614259565b604051602081830303815290604052805190602001206118aa565b8686866118c4565b9050610fd1878288604051806020016040528060008152506118ef565b91505095945050505050565b6000610fe882611a43565b9050919050565b60006005600084815260200190815260200160002060030160008373ffffffffffffffffffffffffffffffffffffffff1673ffffffffffffffffffffffffffffffffffffffff16815260200190815260200160002060009054906101000a900460ff16905092915050565b600080600080600560008681526020019081526020016000209050806000015481600101548260020154935093509350509193909250565b60606040518060400160405280600181526020017f3100000000000000000000000000000000000000000000000000000000000000815250905090565b6000806110da6117eb565b90506110f7848285604051806020016040528060008152506118ef565b91505092915050565b611108610985565b73ffffffffffffffffffffffffffffffffffffffff166111266117eb565b73ffffffffffffffffffffffffffffffffffffffff161461117c576040517f08c379a000000000000000000000000000000000000000000000000000000000815260040161117390613c4c565b60405180910390fd5b61118581611c35565b50565b600a5481565b6000806111996117eb565b90506111eb86828787878080601f016020809104026020016040519081016040528093929190818152602001838380828437600081840152601f19601f820116905080830192505050505050506118ef565b915050949350505050565b60008061120586868686611c7a565b9050600b81908060018154018082558091505060019003906000526020600020016000909190919091505580915050949350505050565b60006064905090565b6000600654905090565b611257610985565b73ffffffffffffffffffffffffffffffffffffffff166112756117eb565b73ffffffffffffffffffffffffffffffffffffffff16146112cb576040517f08c379a00000000000000000000000000000000000000000000000000000000081526004016112c290613c4c565b60405180910390fd5b6112d481611f7a565b50565b600080600760009054906101000a900473ffffffffffffffffffffffffffffffffffffffff1673ffffffffffffffffffffffffffffffffffffffff1663d45c443560086000868152602001908152602001600020546040518263ffffffff1660e01b81526004016113489190613b2b565b60206040518083038186803b15801561136057600080fd5b505afa158015611374573d6000803e3d6000fd5b505050506040513d601f19601f820116820180604052508101906113989190613d74565b9050600181146113a857806113ab565b60005b915050919050565b60006113bd612019565b905090565b600061141f600160008481526020019081526020016000206001016040518060200160405290816000820160009054906101000a900467ffffffffffffffff1667ffffffffffffffff1667ffffffffffffffff168152505061189c565b67ffffffffffffffff169050919050565b611438610985565b73ffffffffffffffffffffffffffffffffffffffff166114566117eb565b73ffffffffffffffffffffffffffffffffffffffff16146114ac576040517f08c379a00000000000000000000000000000000000000000000000000000000081526004016114a390613c4c565b60405180910390fd5b6114fb8483838080601f016020809104026020016040519081016040528093929190818152602001838380828437600081840152601f19601f8201169050808301925050505050505085612023565b5050505050565b60008484848460405160200161151b9493929190614290565b6040516020818303038152906040528051906020012060001c9050949350505050565b600b818154811061154e57600080fd5b906000526020600020016000915090505481565b6000600760009054906101000a900473ffffffffffffffffffffffffffffffffffffffff16905090565b60606040518060400160405280602081526020017f737570706f72743d627261766f2671756f72756d3d666f722c6162737461696e815250905090565b7f150214d74d59b7d1e90c73fc22ef3d991dd0a76b046543d4d80ab92d2a50328f81565b6115f5610985565b73ffffffffffffffffffffffffffffffffffffffff166116136117eb565b73ffffffffffffffffffffffffffffffffffffffff1614611669576040517f08c379a000000000000000000000000000000000000000000000000000000000815260040161166090613c4c565b60405180910390fd5b61167281612052565b50565b600061168183836120da565b905092915050565b611691610985565b73ffffffffffffffffffffffffffffffffffffffff166116af6117eb565b73ffffffffffffffffffffffffffffffffffffffff1614611705576040517f08c379a00000000000000000000000000000000000000000000000000000000081526004016116fc90613c4c565b60405180910390fd5b61170e8161218f565b50565b600061171c826121d4565b9050919050565b7f000000000000000000000000000000000000000000000000000000000000000081565b6000600760009054906101000a900473ffffffffffffffffffffffffffffffffffffffff16905090565b60007f6e665ced000000000000000000000000000000000000000000000000000000007bffffffffffffffffffffffffffffffffffffffffffffffffffffffff1916827bffffffffffffffffffffffffffffffffffffffffffffffffffffffff191614806117e457506117e3826122aa565b5b9050919050565b600033905090565b6117fb61123c565b81111561183d576040517f08c379a000000000000000000000000000000000000000000000000000000000815260040161183490614382565b60405180910390fd5b60006006549050816006819055507f0553476bf02ef2726e8ce5ced78d63e26e602e4a2257b1f559418e24b4633997818360405161187c929190614221565b60405180910390a15050565b6118958585858585612324565b5050505050565b600081600001519050919050565b60006118bd6118b76123c2565b836124dc565b9050919050565b60008060006118d58787878761250f565b915091506118e28161261c565b8192505050949350505050565b6000806001600087815260200190815260200160002090506001600781111561191b5761191a61361b565b5b61192487610fdd565b60078111156119365761193561361b565b5b14611976576040517f08c379a000000000000000000000000000000000000000000000000000000000815260040161196d90614414565b60405180910390fd5b60006119d4866119c5846000016040518060200160405290816000820160009054906101000a900467ffffffffffffffff1667ffffffffffffffff1667ffffffffffffffff168152505061189c565b67ffffffffffffffff16611675565b90506119e2878787846127f1565b8573ffffffffffffffffffffffffffffffffffffffff167fb8e138887d0aa13bab447e82de9d5c1777041ecd21ca36ba824ff1e6c07ddda488878488604051611a2e9493929190614434565b60405180910390a28092505050949350505050565b600080611a4f836129f7565b905060046007811115611a6557611a6461361b565b5b816007811115611a7857611a7761361b565b5b14611a865780915050611c30565b6000600860008581526020019081526020016000205490506000801b811415611ab3578192505050611c30565b600760009054906101000a900473ffffffffffffffffffffffffffffffffffffffff1673ffffffffffffffffffffffffffffffffffffffff16632ab0f529826040518263ffffffff1660e01b8152600401611b0e9190613b2b565b60206040518083038186803b158015611b2657600080fd5b505afa158015611b3a573d6000803e3d6000fd5b505050506040513d601f19601f82011682018060405250810190611b5e91906144ac565b15611b6e57600792505050611c30565b600760009054906101000a900473ffffffffffffffffffffffffffffffffffffffff1673ffffffffffffffffffffffffffffffffffffffff1663584b153e826040518263ffffffff1660e01b8152600401611bc99190613b2b565b60206040518083038186803b158015611be157600080fd5b505afa158015611bf5573d6000803e3d6000fd5b505050506040513d601f19601f82011682018060405250810190611c1991906144ac565b15611c2957600592505050611c30565b6002925050505b919050565b7fc565b045403dc03c2eea82b81a0465edad9e2e7fc4d97e11421c209da93d7a9360025482604051611c68929190614221565b60405180910390a18060028190555050565b6000611c846113b3565b611c9a33600143611c9591906144d9565b611675565b1015611cdb576040517f08c379a0000000000000000000000000000000000000000000000000000000008152600401611cd2906145a5565b60405180910390fd5b6000611cf08686868680519060200120611502565b90508451865114611d36576040517f08c379a0000000000000000000000000000000000000000000000000000000008152600401611d2d90614637565b60405180910390fd5b8351865114611d7a576040517f08c379a0000000000000000000000000000000000000000000000000000000008152600401611d7190614637565b60405180910390fd5b6000865111611dbe576040517f08c379a0000000000000000000000000000000000000000000000000000000008152600401611db5906146a3565b60405180910390fd5b6000600160008381526020019081526020016000209050611e1e816000016040518060200160405290816000820160009054906101000a900467ffffffffffffffff1667ffffffffffffffff1667ffffffffffffffff1681525050612b0c565b611e5d576040517f08c379a0000000000000000000000000000000000000000000000000000000008152600401611e5490614735565b60405180910390fd5b6000611e6f611e6a610f49565b612b26565b611e7843612b26565b611e829190614769565b90506000611e96611e916109a6565b612b26565b82611ea19190614769565b9050611eb98284600001612b7d90919063ffffffff16565b611ecf8184600101612b7d90919063ffffffff16565b7f7d84a6263ae0d98d3329bd7b46bb4e8d6f98cd35a7adb45c274c8b7fd5ebd5e084611ef96117eb565b8b8b8d5167ffffffffffffffff811115611f1657611f1561307c565b5b604051908082528060200260200182016040528015611f4957816020015b6060815260200190600190039081611f345790505b508c88888e604051611f63999897969594939291906148e4565b60405180910390a183945050505050949350505050565b7f08f74ea46ef7894f65eabfb5e6e695de773a000b47c529ab559178069b226401600760009054906101000a900473ffffffffffffffffffffffffffffffffffffffff1682604051611fcd929190614994565b60405180910390a180600760006101000a81548173ffffffffffffffffffffffffffffffffffffffff021916908373ffffffffffffffffffffffffffffffffffffffff16021790555050565b6000600454905090565b60606120498484846040518060600160405280602981526020016151e960299139612bac565b90509392505050565b60008111612095576040517f08c379a000000000000000000000000000000000000000000000000000000000815260040161208c90614a2f565b60405180910390fd5b7f7e3f7f0708a84de9203036abaa450dccc85ad5ff52f78c170f3edb55cf5e8828600354826040516120c8929190614221565b60405180910390a18060038190555050565b60007f000000000000000000000000000000000000000000000000000000000000000073ffffffffffffffffffffffffffffffffffffffff16633a46b1a884846040518363ffffffff1660e01b8152600401612137929190614a4f565b60206040518083038186803b15801561214f57600080fd5b505afa158015612163573d6000803e3d6000fd5b505050506040513d601f19601f820116820180604052508101906121879190613d74565b905092915050565b7fccb45da8d5717e6c4544694297c4ba5cf151d455c9bb0ed4fc7a38411bc05461600454826040516121c2929190614221565b60405180910390a18060048190555050565b60006121de61123c565b6121e6611245565b7f000000000000000000000000000000000000000000000000000000000000000073ffffffffffffffffffffffffffffffffffffffff16638e539e8c856040518263ffffffff1660e01b815260040161223f9190612f48565b60206040518083038186803b15801561225757600080fd5b505afa15801561226b573d6000803e3d6000fd5b505050506040513d601f19601f8201168201806040525081019061228f9190613d74565b6122999190614a78565b6122a39190614b01565b9050919050565b60007fbf26d897000000000000000000000000000000000000000000000000000000007bffffffffffffffffffffffffffffffffffffffffffffffffffffffff1916827bffffffffffffffffffffffffffffffffffffffffffffffffffffffff1916148061231d575061231c82612cc0565b5b9050919050565b600760009054906101000a900473ffffffffffffffffffffffffffffffffffffffff1673ffffffffffffffffffffffffffffffffffffffff1663e38335e5348686866000876040518763ffffffff1660e01b815260040161238995949392919061407c565b6000604051808303818588803b1580156123a257600080fd5b505af11580156123b6573d6000803e3d6000fd5b50505050505050505050565b60007f000000000000000000000000000000000000000000000000000000000000000073ffffffffffffffffffffffffffffffffffffffff163073ffffffffffffffffffffffffffffffffffffffff1614801561243e57507f000000000000000000000000000000000000000000000000000000000000000046145b1561246b577f000000000000000000000000000000000000000000000000000000000000000090506124d9565b6124d67f00000000000000000000000000000000000000000000000000000000000000007f00000000000000000000000000000000000000000000000000000000000000007f0000000000000000000000000000000000000000000000000000000000000000612d2a565b90505b90565b600082826040516020016124f1929190614baa565b60405160208183030381529060405280519060200120905092915050565b6000807f7fffffffffffffffffffffffffffffff5d576e7357a4501ddfe92f46681b20a08360001c111561254a576000600391509150612613565b601b8560ff16141580156125625750601c8560ff1614155b15612574576000600491509150612613565b6000600187878787604051600081526020016040526040516125999493929190614be1565b6020604051602081039080840390855afa1580156125bb573d6000803e3d6000fd5b505050602060405103519050600073ffffffffffffffffffffffffffffffffffffffff168173ffffffffffffffffffffffffffffffffffffffff16141561260a57600060019250925050612613565b80600092509250505b94509492505050565b600060048111156126305761262f61361b565b5b8160048111156126435761264261361b565b5b141561264e576127ee565b600160048111156126625761266161361b565b5b8160048111156126755761267461361b565b5b14156126b6576040517f08c379a00000000000000000000000000000000000000000000000000000000081526004016126ad90614c72565b60405180910390fd5b600260048111156126ca576126c961361b565b5b8160048111156126dd576126dc61361b565b5b141561271e576040517f08c379a000000000000000000000000000000000000000000000000000000000815260040161271590614cde565b60405180910390fd5b600360048111156127325761273161361b565b5b8160048111156127455761274461361b565b5b1415612786576040517f08c379a000000000000000000000000000000000000000000000000000000000815260040161277d90614d70565b60405180910390fd5b6004808111156127995761279861361b565b5b8160048111156127ac576127ab61361b565b5b14156127ed576040517f08c379a00000000000000000000000000000000000000000000000000000000081526004016127e490614e02565b60405180910390fd5b5b50565b60006005600086815260200190815260200160002090508060030160008573ffffffffffffffffffffffffffffffffffffffff1673ffffffffffffffffffffffffffffffffffffffff16815260200190815260200160002060009054906101000a900460ff1615612897576040517f08c379a000000000000000000000000000000000000000000000000000000000815260040161288e90614e94565b60405180910390fd5b60018160030160008673ffffffffffffffffffffffffffffffffffffffff1673ffffffffffffffffffffffffffffffffffffffff16815260200190815260200160002060006101000a81548160ff021916908315150217905550600060028111156129055761290461361b565b5b60ff168360ff161415612932578181600001600082825461292691906141cb565b925050819055506129f0565b600160028111156129465761294561361b565b5b60ff168360ff161415612973578181600101600082825461296791906141cb565b925050819055506129ef565b6002808111156129865761298561361b565b5b60ff168360ff1614156129b357818160020160008282546129a791906141cb565b925050819055506129ee565b6040517f08c379a00000000000000000000000000000000000000000000000000000000081526004016129e590614f26565b60405180910390fd5b5b5b5050505050565b6000806001600084815260200190815260200160002090508060020160009054906101000a900460ff1615612a30576007915050612b07565b8060020160019054906101000a900460ff1615612a51576002915050612b07565b6000612a5c84610edb565b90506000811415612aa2576040517f08c379a0000000000000000000000000000000000000000000000000000000008152600401612a9990614f92565b60405180910390fd5b438110612ab457600092505050612b07565b6000612abf856113c2565b9050438110612ad45760019350505050612b07565b612add85612d64565b8015612aee5750612aed85612dab565b5b15612aff5760049350505050612b07565b600393505050505b919050565b600080826000015167ffffffffffffffff16149050919050565b600067ffffffffffffffff8016821115612b75576040517f08c379a0000000000000000000000000000000000000000000000000000000008152600401612b6c90615024565b60405180910390fd5b819050919050565b808260000160006101000a81548167ffffffffffffffff021916908367ffffffffffffffff1602179055505050565b606082471015612bf1576040517f08c379a0000000000000000000000000000000000000000000000000000000008152600401612be8906150b6565b60405180910390fd5b612bfa85612dd6565b612c39576040517f08c379a0000000000000000000000000000000000000000000000000000000008152600401612c3090615122565b60405180910390fd5b6000808673ffffffffffffffffffffffffffffffffffffffff168587604051612c62919061517e565b60006040518083038185875af1925050503d8060008114612c9f576040519150601f19603f3d011682016040523d82523d6000602084013e612ca4565b606091505b5091509150612cb4828286612df9565b92505050949350505050565b60007f01ffc9a7000000000000000000000000000000000000000000000000000000007bffffffffffffffffffffffffffffffffffffffffffffffffffffffff1916827bffffffffffffffffffffffffffffffffffffffffffffffffffffffff1916149050919050565b60008383834630604051602001612d45959493929190615195565b6040516020818303038152906040528051906020012090509392505050565b60008060056000848152602001908152602001600020905080600201548160010154612d9091906141cb565b612da1612d9c85610edb565b611711565b1115915050919050565b6000806005600084815260200190815260200160002090508060000154816001015411915050919050565b6000808273ffffffffffffffffffffffffffffffffffffffff163b119050919050565b60608315612e0957829050612e59565b600083511115612e1c5782518084602001fd5b816040517f08c379a0000000000000000000000000000000000000000000000000000000008152600401612e509190613055565b60405180910390fd5b9392505050565b6000604051905090565b600080fd5b600080fd5b60007fffffffff0000000000000000000000000000000000000000000000000000000082169050919050565b612ea981612e74565b8114612eb457600080fd5b50565b600081359050612ec681612ea0565b92915050565b600060208284031215612ee257612ee1612e6a565b5b6000612ef084828501612eb7565b91505092915050565b60008115159050919050565b612f0e81612ef9565b82525050565b6000602082019050612f296000830184612f05565b92915050565b6000819050919050565b612f4281612f2f565b82525050565b6000602082019050612f5d6000830184612f39565b92915050565b612f6c81612f2f565b8114612f7757600080fd5b50565b600081359050612f8981612f63565b92915050565b600060208284031215612fa557612fa4612e6a565b5b6000612fb384828501612f7a565b91505092915050565b600081519050919050565b600082825260208201905092915050565b60005b83811015612ff6578082015181840152602081019050612fdb565b83811115613005576000848401525b50505050565b6000601f19601f8301169050919050565b600061302782612fbc565b6130318185612fc7565b9350613041818560208601612fd8565b61304a8161300b565b840191505092915050565b6000602082019050818103600083015261306f818461301c565b905092915050565b600080fd5b7f4e487b7100000000000000000000000000000000000000000000000000000000600052604160045260246000fd5b6130b48261300b565b810181811067ffffffffffffffff821117156130d3576130d261307c565b5b80604052505050565b60006130e6612e60565b90506130f282826130ab565b919050565b600067ffffffffffffffff8211156131125761311161307c565b5b602082029050602081019050919050565b600080fd5b600073ffffffffffffffffffffffffffffffffffffffff82169050919050565b600061315382613128565b9050919050565b61316381613148565b811461316e57600080fd5b50565b6000813590506131808161315a565b92915050565b6000613199613194846130f7565b6130dc565b905080838252602082019050602084028301858111156131bc576131bb613123565b5b835b818110156131e557806131d18882613171565b8452602084019350506020810190506131be565b5050509392505050565b600082601f83011261320457613203613077565b5b8135613214848260208601613186565b91505092915050565b600067ffffffffffffffff8211156132385761323761307c565b5b602082029050602081019050919050565b600061325c6132578461321d565b6130dc565b9050808382526020820190506020840283018581111561327f5761327e613123565b5b835b818110156132a857806132948882612f7a565b845260208401935050602081019050613281565b5050509392505050565b600082601f8301126132c7576132c6613077565b5b81356132d7848260208601613249565b91505092915050565b600067ffffffffffffffff8211156132fb576132fa61307c565b5b602082029050602081019050919050565b600080fd5b600067ffffffffffffffff82111561332c5761332b61307c565b5b6133358261300b565b9050602081019050919050565b82818337600083830152505050565b600061336461335f84613311565b6130dc565b9050828152602081018484840111156133805761337f61330c565b5b61338b848285613342565b509392505050565b600082601f8301126133a8576133a7613077565b5b81356133b8848260208601613351565b91505092915050565b60006133d46133cf846132e0565b6130dc565b905080838252602082019050602084028301858111156133f7576133f6613123565b5b835b8181101561343e57803567ffffffffffffffff81111561341c5761341b613077565b5b8086016134298982613393565b855260208501945050506020810190506133f9565b5050509392505050565b600082601f83011261345d5761345c613077565b5b813561346d8482602086016133c1565b91505092915050565b6000819050919050565b61348981613476565b811461349457600080fd5b50565b6000813590506134a681613480565b92915050565b600080600080608085870312156134c6576134c5612e6a565b5b600085013567ffffffffffffffff8111156134e4576134e3612e6f565b5b6134f0878288016131ef565b945050602085013567ffffffffffffffff81111561351157613510612e6f565b5b61351d878288016132b2565b935050604085013567ffffffffffffffff81111561353e5761353d612e6f565b5b61354a87828801613448565b925050606061355b87828801613497565b91505092959194509250565b600060ff82169050919050565b61357d81613567565b811461358857600080fd5b50565b60008135905061359a81613574565b92915050565b600080600080600060a086880312156135bc576135bb612e6a565b5b60006135ca88828901612f7a565b95505060206135db8882890161358b565b94505060406135ec8882890161358b565b93505060606135fd88828901613497565b925050608061360e88828901613497565b9150509295509295909350565b7f4e487b7100000000000000000000000000000000000000000000000000000000600052602160045260246000fd5b6008811061365b5761365a61361b565b5b50565b600081905061366c8261364a565b919050565b600061367c8261365e565b9050919050565b61368c81613671565b82525050565b60006020820190506136a76000830184613683565b92915050565b600080604083850312156136c4576136c3612e6a565b5b60006136d285828601612f7a565b92505060206136e385828601613171565b9150509250929050565b60006060820190506137026000830186612f39565b61370f6020830185612f39565b61371c6040830184612f39565b949350505050565b6000806040838503121561373b5761373a612e6a565b5b600061374985828601612f7a565b925050602061375a8582860161358b565b9150509250929050565b600080fd5b60008083601f84011261377f5761377e613077565b5b8235905067ffffffffffffffff81111561379c5761379b613764565b5b6020830191508360018202830111156137b8576137b7613123565b5b9250929050565b600080600080606085870312156137d9576137d8612e6a565b5b60006137e787828801612f7a565b94505060206137f88782880161358b565b935050604085013567ffffffffffffffff81111561381957613818612e6f565b5b61382587828801613769565b925092505092959194509250565b600067ffffffffffffffff82111561384e5761384d61307c565b5b6138578261300b565b9050602081019050919050565b600061387761387284613833565b6130dc565b9050828152602081018484840111156138935761389261330c565b5b61389e848285613342565b509392505050565b600082601f8301126138bb576138ba613077565b5b81356138cb848260208601613864565b91505092915050565b600080600080608085870312156138ee576138ed612e6a565b5b600085013567ffffffffffffffff81111561390c5761390b612e6f565b5b613918878288016131ef565b945050602085013567ffffffffffffffff81111561393957613938612e6f565b5b613945878288016132b2565b935050604085013567ffffffffffffffff81111561396657613965612e6f565b5b61397287828801613448565b925050606085013567ffffffffffffffff81111561399357613992612e6f565b5b61399f878288016138a6565b91505092959194509250565b60006139b682613128565b9050919050565b60006139c8826139ab565b9050919050565b6139d8816139bd565b81146139e357600080fd5b50565b6000813590506139f5816139cf565b92915050565b600060208284031215613a1157613a10612e6a565b5b6000613a1f848285016139e6565b91505092915050565b60008083601f840112613a3e57613a3d613077565b5b8235905067ffffffffffffffff811115613a5b57613a5a613764565b5b602083019150836001820283011115613a7757613a76613123565b5b9250929050565b60008060008060608587031215613a9857613a97612e6a565b5b6000613aa687828801613171565b9450506020613ab787828801612f7a565b935050604085013567ffffffffffffffff811115613ad857613ad7612e6f565b5b613ae487828801613a28565b925092505092959194509250565b613afb81613148565b82525050565b6000602082019050613b166000830184613af2565b92915050565b613b2581613476565b82525050565b6000602082019050613b406000830184613b1c565b92915050565b60008060408385031215613b5d57613b5c612e6a565b5b6000613b6b85828601613171565b9250506020613b7c85828601612f7a565b9150509250929050565b6000819050919050565b6000613bab613ba6613ba184613128565b613b86565b613128565b9050919050565b6000613bbd82613b90565b9050919050565b6000613bcf82613bb2565b9050919050565b613bdf81613bc4565b82525050565b6000602082019050613bfa6000830184613bd6565b92915050565b7f476f7665726e6f723a206f6e6c79476f7665726e616e63650000000000000000600082015250565b6000613c36601883612fc7565b9150613c4182613c00565b602082019050919050565b60006020820190508181036000830152613c6581613c29565b9050919050565b7f4e487b7100000000000000000000000000000000000000000000000000000000600052602260045260246000fd5b60006002820490506001821680613cb357607f821691505b60208210811415613cc757613cc6613c6c565b5b50919050565b7f476f7665726e6f723a2070726f706f73616c206e6f742073756363657373667560008201527f6c00000000000000000000000000000000000000000000000000000000000000602082015250565b6000613d29602183612fc7565b9150613d3482613ccd565b604082019050919050565b60006020820190508181036000830152613d5881613d1c565b9050919050565b600081519050613d6e81612f63565b92915050565b600060208284031215613d8a57613d89612e6a565b5b6000613d9884828501613d5f565b91505092915050565b600081519050919050565b600082825260208201905092915050565b6000819050602082019050919050565b613dd681613148565b82525050565b6000613de88383613dcd565b60208301905092915050565b6000602082019050919050565b6000613e0c82613da1565b613e168185613dac565b9350613e2183613dbd565b8060005b83811015613e52578151613e398882613ddc565b9750613e4483613df4565b925050600181019050613e25565b5085935050505092915050565b600081519050919050565b600082825260208201905092915050565b6000819050602082019050919050565b613e9481612f2f565b82525050565b6000613ea68383613e8b565b60208301905092915050565b6000602082019050919050565b6000613eca82613e5f565b613ed48185613e6a565b9350613edf83613e7b565b8060005b83811015613f10578151613ef78882613e9a565b9750613f0283613eb2565b925050600181019050613ee3565b5085935050505092915050565b600081519050919050565b600082825260208201905092915050565b6000819050602082019050919050565b600081519050919050565b600082825260208201905092915050565b6000613f7082613f49565b613f7a8185613f54565b9350613f8a818560208601612fd8565b613f938161300b565b840191505092915050565b6000613faa8383613f65565b905092915050565b6000602082019050919050565b6000613fca82613f1d565b613fd48185613f28565b935083602082028501613fe685613f39565b8060005b8581101561402257848403895281516140038582613f9e565b945061400e83613fb2565b925060208a01995050600181019050613fea565b50829750879550505050505092915050565b6000819050919050565b60008160001b9050919050565b600061406661406161405c84614034565b61403e565b613476565b9050919050565b6140768161404b565b82525050565b600060a08201905081810360008301526140968188613e01565b905081810360208301526140aa8187613ebf565b905081810360408301526140be8186613fbf565b90506140cd606083018561406d565b6140da6080830184613b1c565b9695505050505050565b6000815190506140f381613480565b92915050565b60006020828403121561410f5761410e612e6a565b5b600061411d848285016140e4565b91505092915050565b600060c08201905081810360008301526141408189613e01565b905081810360208301526141548188613ebf565b905081810360408301526141688187613fbf565b9050614177606083018661406d565b6141846080830185613b1c565b61419160a0830184612f39565b979650505050505050565b7f4e487b7100000000000000000000000000000000000000000000000000000000600052601160045260246000fd5b60006141d682612f2f565b91506141e183612f2f565b9250827fffffffffffffffffffffffffffffffffffffffffffffffffffffffffffffffff038211156142165761421561419c565b5b828201905092915050565b60006040820190506142366000830185612f39565b6142436020830184612f39565b9392505050565b61425381613567565b82525050565b600060608201905061426e6000830186613b1c565b61427b6020830185612f39565b614288604083018461424a565b949350505050565b600060808201905081810360008301526142aa8187613e01565b905081810360208301526142be8186613ebf565b905081810360408301526142d28185613fbf565b90506142e16060830184613b1c565b95945050505050565b7f476f7665726e6f72566f74657351756f72756d4672616374696f6e3a2071756f60008201527f72756d4e756d657261746f72206f7665722071756f72756d44656e6f6d696e6160208201527f746f720000000000000000000000000000000000000000000000000000000000604082015250565b600061436c604383612fc7565b9150614377826142ea565b606082019050919050565b6000602082019050818103600083015261439b8161435f565b9050919050565b7f476f7665726e6f723a20766f7465206e6f742063757272656e746c792061637460008201527f6976650000000000000000000000000000000000000000000000000000000000602082015250565b60006143fe602383612fc7565b9150614409826143a2565b604082019050919050565b6000602082019050818103600083015261442d816143f1565b9050919050565b60006080820190506144496000830187612f39565b614456602083018661424a565b6144636040830185612f39565b8181036060830152614475818461301c565b905095945050505050565b61448981612ef9565b811461449457600080fd5b50565b6000815190506144a681614480565b92915050565b6000602082840312156144c2576144c1612e6a565b5b60006144d084828501614497565b91505092915050565b60006144e482612f2f565b91506144ef83612f2f565b9250828210156145025761450161419c565b5b828203905092915050565b7f476f7665726e6f72436f6d7061746962696c697479427261766f3a2070726f7060008201527f6f73657220766f7465732062656c6f772070726f706f73616c2074687265736860208201527f6f6c640000000000000000000000000000000000000000000000000000000000604082015250565b600061458f604383612fc7565b915061459a8261450d565b606082019050919050565b600060208201905081810360008301526145be81614582565b9050919050565b7f476f7665726e6f723a20696e76616c69642070726f706f73616c206c656e677460008201527f6800000000000000000000000000000000000000000000000000000000000000602082015250565b6000614621602183612fc7565b915061462c826145c5565b604082019050919050565b6000602082019050818103600083015261465081614614565b9050919050565b7f476f7665726e6f723a20656d7074792070726f706f73616c0000000000000000600082015250565b600061468d601883612fc7565b915061469882614657565b602082019050919050565b600060208201905081810360008301526146bc81614680565b9050919050565b7f476f7665726e6f723a2070726f706f73616c20616c726561647920657869737460008201527f7300000000000000000000000000000000000000000000000000000000000000602082015250565b600061471f602183612fc7565b915061472a826146c3565b604082019050919050565b6000602082019050818103600083015261474e81614712565b9050919050565b600067ffffffffffffffff82169050919050565b600061477482614755565b915061477f83614755565b92508267ffffffffffffffff0382111561479c5761479b61419c565b5b828201905092915050565b600081519050919050565b600082825260208201905092915050565b6000819050602082019050919050565b600082825260208201905092915050565b60006147ef82612fbc565b6147f981856147d3565b9350614809818560208601612fd8565b6148128161300b565b840191505092915050565b600061482983836147e4565b905092915050565b6000602082019050919050565b6000614849826147a7565b61485381856147b2565b935083602082028501614865856147c3565b8060005b858110156148a15784840389528151614882858261481d565b945061488d83614831565b925060208a01995050600181019050614869565b50829750879550505050505092915050565b60006148ce6148c96148c484614755565b613b86565b612f2f565b9050919050565b6148de816148b3565b82525050565b6000610120820190506148fa600083018c612f39565b614907602083018b613af2565b8181036040830152614919818a613e01565b9050818103606083015261492d8189613ebf565b90508181036080830152614941818861483e565b905081810360a08301526149558187613fbf565b905061496460c08301866148d5565b61497160e08301856148d5565b818103610100830152614984818461301c565b90509a9950505050505050505050565b60006040820190506149a96000830185613af2565b6149b66020830184613af2565b9392505050565b7f476f7665726e6f7253657474696e67733a20766f74696e6720706572696f642060008201527f746f6f206c6f7700000000000000000000000000000000000000000000000000602082015250565b6000614a19602783612fc7565b9150614a24826149bd565b604082019050919050565b60006020820190508181036000830152614a4881614a0c565b9050919050565b6000604082019050614a646000830185613af2565b614a716020830184612f39565b9392505050565b6000614a8382612f2f565b9150614a8e83612f2f565b9250817fffffffffffffffffffffffffffffffffffffffffffffffffffffffffffffffff0483118215151615614ac757614ac661419c565b5b828202905092915050565b7f4e487b7100000000000000000000000000000000000000000000000000000000600052601260045260246000fd5b6000614b0c82612f2f565b9150614b1783612f2f565b925082614b2757614b26614ad2565b5b828204905092915050565b600081905092915050565b7f1901000000000000000000000000000000000000000000000000000000000000600082015250565b6000614b73600283614b32565b9150614b7e82614b3d565b600282019050919050565b6000819050919050565b614ba4614b9f82613476565b614b89565b82525050565b6000614bb582614b66565b9150614bc18285614b93565b602082019150614bd18284614b93565b6020820191508190509392505050565b6000608082019050614bf66000830187613b1c565b614c03602083018661424a565b614c106040830185613b1c565b614c1d6060830184613b1c565b95945050505050565b7f45434453413a20696e76616c6964207369676e61747572650000000000000000600082015250565b6000614c5c601883612fc7565b9150614c6782614c26565b602082019050919050565b60006020820190508181036000830152614c8b81614c4f565b9050919050565b7f45434453413a20696e76616c6964207369676e6174757265206c656e67746800600082015250565b6000614cc8601f83612fc7565b9150614cd382614c92565b602082019050919050565b60006020820190508181036000830152614cf781614cbb565b9050919050565b7f45434453413a20696e76616c6964207369676e6174757265202773272076616c60008201527f7565000000000000000000000000000000000000000000000000000000000000602082015250565b6000614d5a602283612fc7565b9150614d6582614cfe565b604082019050919050565b60006020820190508181036000830152614d8981614d4d565b9050919050565b7f45434453413a20696e76616c6964207369676e6174757265202776272076616c60008201527f7565000000000000000000000000000000000000000000000000000000000000602082015250565b6000614dec602283612fc7565b9150614df782614d90565b604082019050919050565b60006020820190508181036000830152614e1b81614ddf565b9050919050565b7f476f7665726e6f72566f74696e6753696d706c653a20766f746520616c72656160008201527f6479206361737400000000000000000000000000000000000000000000000000602082015250565b6000614e7e602783612fc7565b9150614e8982614e22565b604082019050919050565b60006020820190508181036000830152614ead81614e71565b9050919050565b7f476f7665726e6f72566f74696e6753696d706c653a20696e76616c696420766160008201527f6c756520666f7220656e756d20566f7465547970650000000000000000000000602082015250565b6000614f10603583612fc7565b9150614f1b82614eb4565b604082019050919050565b60006020820190508181036000830152614f3f81614f03565b9050919050565b7f476f7665726e6f723a20756e6b6e6f776e2070726f706f73616c206964000000600082015250565b6000614f7c601d83612fc7565b9150614f8782614f46565b602082019050919050565b60006020820190508181036000830152614fab81614f6f565b9050919050565b7f53616665436173743a2076616c756520646f65736e27742066697420696e203660008201527f3420626974730000000000000000000000000000000000000000000000000000602082015250565b600061500e602683612fc7565b915061501982614fb2565b604082019050919050565b6000602082019050818103600083015261503d81615001565b9050919050565b7f416464726573733a20696e73756666696369656e742062616c616e636520666f60008201527f722063616c6c0000000000000000000000000000000000000000000000000000602082015250565b60006150a0602683612fc7565b91506150ab82615044565b604082019050919050565b600060208201905081810360008301526150cf81615093565b9050919050565b7f416464726573733a2063616c6c20746f206e6f6e2d636f6e7472616374000000600082015250565b600061510c601d83612fc7565b9150615117826150d6565b602082019050919050565b6000602082019050818103600083015261513b816150ff565b9050919050565b600081905092915050565b600061515882613f49565b6151628185615142565b9350615172818560208601612fd8565b80840191505092915050565b600061518a828461514d565b915081905092915050565b600060a0820190506151aa6000830188613b1c565b6151b76020830187613b1c565b6151c46040830186613b1c565b6151d16060830185612f39565b6151de6080830184613af2565b969550505050505056fe416464726573733a206c6f772d6c6576656c2063616c6c20776974682076616c7565206661696c6564a2646970667358221220f6bfb3c57bdfa435e67a0c2e04f50e461602fda43bd4d7fcf5ba3c57851aa31d64736f6c63430008090033",
  "linkReferences": {},
  "deployedLinkReferences": {}
}