{
  "_format": "hh-sol-artifact-1",
  "contractName": "GovernorContract",
  "sourceName": "contracts/Governance_standard/GovernorContract.sol",
  "abi": [
    {
      "inputs": [
        {
          "internalType": "contract ERC20Votes",
          "name": "_token",
          "type": "address"
        },
        {
          "internalType": "contract TimelockController",
          "name": "_timelock",
          "type": "address"
        },
        {
          "internalType": "uint256",
          "name": "_quorumPercentage",
          "type": "uint256"
        },
        {
          "internalType": "uint256",
          "name": "_votingPeriod",
          "type": "uint256"
        },
        {
          "internalType": "uint256",
          "name": "_votingDelay",
          "type": "uint256"
        }
      ],
      "stateMutability": "nonpayable",
      "type": "constructor"
    },
    {
      "anonymous": false,
      "inputs": [
        {
          "indexed": false,
          "internalType": "uint256",
          "name": "proposalId",
          "type": "uint256"
        }
      ],
      "name": "ProposalCanceled",
      "type": "event"
    },
    {
      "anonymous": false,
      "inputs": [
        {
          "indexed": false,
          "internalType": "uint256",
          "name": "proposalId",
          "type": "uint256"
        },
        {
          "indexed": false,
          "internalType": "address",
          "name": "proposer",
          "type": "address"
        },
        {
          "indexed": false,
          "internalType": "address[]",
          "name": "targets",
          "type": "address[]"
        },
        {
          "indexed": false,
          "internalType": "uint256[]",
          "name": "values",
          "type": "uint256[]"
        },
        {
          "indexed": false,
          "internalType": "string[]",
          "name": "signatures",
          "type": "string[]"
        },
        {
          "indexed": false,
          "internalType": "bytes[]",
          "name": "calldatas",
          "type": "bytes[]"
        },
        {
          "indexed": false,
          "internalType": "uint256",
          "name": "startBlock",
          "type": "uint256"
        },
        {
          "indexed": false,
          "internalType": "uint256",
          "name": "endBlock",
          "type": "uint256"
        },
        {
          "indexed": false,
          "internalType": "string",
          "name": "description",
          "type": "string"
        }
      ],
      "name": "ProposalCreated",
      "type": "event"
    },
    {
      "anonymous": false,
      "inputs": [
        {
          "indexed": false,
          "internalType": "uint256",
          "name": "proposalId",
          "type": "uint256"
        }
      ],
      "name": "ProposalExecuted",
      "type": "event"
    },
    {
      "anonymous": false,
      "inputs": [
        {
          "indexed": false,
          "internalType": "uint256",
          "name": "proposalId",
          "type": "uint256"
        },
        {
          "indexed": false,
          "internalType": "uint256",
          "name": "eta",
          "type": "uint256"
        }
      ],
      "name": "ProposalQueued",
      "type": "event"
    },
    {
      "anonymous": false,
      "inputs": [
        {
          "indexed": false,
          "internalType": "uint256",
          "name": "oldProposalThreshold",
          "type": "uint256"
        },
        {
          "indexed": false,
          "internalType": "uint256",
          "name": "newProposalThreshold",
          "type": "uint256"
        }
      ],
      "name": "ProposalThresholdSet",
      "type": "event"
    },
    {
      "anonymous": false,
      "inputs": [
        {
          "indexed": false,
          "internalType": "uint256",
          "name": "oldQuorumNumerator",
          "type": "uint256"
        },
        {
          "indexed": false,
          "internalType": "uint256",
          "name": "newQuorumNumerator",
          "type": "uint256"
        }
      ],
      "name": "QuorumNumeratorUpdated",
      "type": "event"
    },
    {
      "anonymous": false,
      "inputs": [
        {
          "indexed": false,
          "internalType": "address",
          "name": "oldTimelock",
          "type": "address"
        },
        {
          "indexed": false,
          "internalType": "address",
          "name": "newTimelock",
          "type": "address"
        }
      ],
      "name": "TimelockChange",
      "type": "event"
    },
    {
      "anonymous": false,
      "inputs": [
        {
          "indexed": true,
          "internalType": "address",
          "name": "voter",
          "type": "address"
        },
        {
          "indexed": false,
          "internalType": "uint256",
          "name": "proposalId",
          "type": "uint256"
        },
        {
          "indexed": false,
          "internalType": "uint8",
          "name": "support",
          "type": "uint8"
        },
        {
          "indexed": false,
          "internalType": "uint256",
          "name": "weight",
          "type": "uint256"
        },
        {
          "indexed": false,
          "internalType": "string",
          "name": "reason",
          "type": "string"
        }
      ],
      "name": "VoteCast",
      "type": "event"
    },
    {
      "anonymous": false,
      "inputs": [
        {
          "indexed": false,
          "internalType": "uint256",
          "name": "oldVotingDelay",
          "type": "uint256"
        },
        {
          "indexed": false,
          "internalType": "uint256",
          "name": "newVotingDelay",
          "type": "uint256"
        }
      ],
      "name": "VotingDelaySet",
      "type": "event"
    },
    {
      "anonymous": false,
      "inputs": [
        {
          "indexed": false,
          "internalType": "uint256",
          "name": "oldVotingPeriod",
          "type": "uint256"
        },
        {
          "indexed": false,
          "internalType": "uint256",
          "name": "newVotingPeriod",
          "type": "uint256"
        }
      ],
      "name": "VotingPeriodSet",
      "type": "event"
    },
    {
      "inputs": [],
      "name": "BALLOT_TYPEHASH",
      "outputs": [
        {
          "internalType": "bytes32",
          "name": "",
          "type": "bytes32"
        }
      ],
      "stateMutability": "view",
      "type": "function"
    },
    {
      "inputs": [],
      "name": "COUNTING_MODE",
      "outputs": [
        {
          "internalType": "string",
          "name": "",
          "type": "string"
        }
      ],
      "stateMutability": "pure",
      "type": "function"
    },
    {
      "inputs": [
        {
          "internalType": "uint256",
          "name": "",
          "type": "uint256"
        }
      ],
      "name": "Proposals",
      "outputs": [
        {
          "internalType": "uint256",
          "name": "",
          "type": "uint256"
        }
      ],
      "stateMutability": "view",
      "type": "function"
    },
    {
      "inputs": [
        {
          "internalType": "uint256",
          "name": "",
          "type": "uint256"
        }
      ],
      "name": "ProposalsDescription",
      "outputs": [
        {
          "internalType": "string",
          "name": "description",
          "type": "string"
        }
      ],
      "stateMutability": "view",
      "type": "function"
    },
    {
      "inputs": [
        {
          "internalType": "uint256",
          "name": "proposalId",
          "type": "uint256"
        },
        {
          "internalType": "uint8",
          "name": "support",
          "type": "uint8"
        }
      ],
      "name": "castVote",
      "outputs": [
        {
          "internalType": "uint256",
          "name": "",
          "type": "uint256"
        }
      ],
      "stateMutability": "nonpayable",
      "type": "function"
    },
    {
      "inputs": [
        {
          "internalType": "uint256",
          "name": "proposalId",
          "type": "uint256"
        },
        {
          "internalType": "uint8",
          "name": "support",
          "type": "uint8"
        },
        {
          "internalType": "uint8",
          "name": "v",
          "type": "uint8"
        },
        {
          "internalType": "bytes32",
          "name": "r",
          "type": "bytes32"
        },
        {
          "internalType": "bytes32",
          "name": "s",
          "type": "bytes32"
        }
      ],
      "name": "castVoteBySig",
      "outputs": [
        {
          "internalType": "uint256",
          "name": "",
          "type": "uint256"
        }
      ],
      "stateMutability": "nonpayable",
      "type": "function"
    },
    {
      "inputs": [
        {
          "internalType": "uint256",
          "name": "proposalId",
          "type": "uint256"
        },
        {
          "internalType": "uint8",
          "name": "support",
          "type": "uint8"
        },
        {
          "internalType": "string",
          "name": "reason",
          "type": "string"
        }
      ],
      "name": "castVoteWithReason",
      "outputs": [
        {
          "internalType": "uint256",
          "name": "",
          "type": "uint256"
        }
      ],
      "stateMutability": "nonpayable",
      "type": "function"
    },
    {
      "inputs": [
        {
          "internalType": "address[]",
          "name": "targets",
          "type": "address[]"
        },
        {
          "internalType": "uint256[]",
          "name": "values",
          "type": "uint256[]"
        },
        {
          "internalType": "bytes[]",
          "name": "calldatas",
          "type": "bytes[]"
        },
        {
          "internalType": "bytes32",
          "name": "descriptionHash",
          "type": "bytes32"
        }
      ],
      "name": "execute",
      "outputs": [
        {
          "internalType": "uint256",
          "name": "",
          "type": "uint256"
        }
      ],
      "stateMutability": "payable",
      "type": "function"
    },
    {
      "inputs": [
        {
          "internalType": "address",
          "name": "account",
          "type": "address"
        },
        {
          "internalType": "uint256",
          "name": "blockNumber",
          "type": "uint256"
        }
      ],
      "name": "getVotes",
      "outputs": [
        {
          "internalType": "uint256",
          "name": "",
          "type": "uint256"
        }
      ],
      "stateMutability": "view",
      "type": "function"
    },
    {
      "inputs": [
        {
          "internalType": "uint256",
          "name": "proposalId",
          "type": "uint256"
        },
        {
          "internalType": "address",
          "name": "account",
          "type": "address"
        }
      ],
      "name": "hasVoted",
      "outputs": [
        {
          "internalType": "bool",
          "name": "",
          "type": "bool"
        }
      ],
      "stateMutability": "view",
      "type": "function"
    },
    {
      "inputs": [
        {
          "internalType": "address[]",
          "name": "targets",
          "type": "address[]"
        },
        {
          "internalType": "uint256[]",
          "name": "values",
          "type": "uint256[]"
        },
        {
          "internalType": "bytes[]",
          "name": "calldatas",
          "type": "bytes[]"
        },
        {
          "internalType": "bytes32",
          "name": "descriptionHash",
          "type": "bytes32"
        }
      ],
      "name": "hashProposal",
      "outputs": [
        {
          "internalType": "uint256",
          "name": "",
          "type": "uint256"
        }
      ],
      "stateMutability": "pure",
      "type": "function"
    },
    {
      "inputs": [],
      "name": "name",
      "outputs": [
        {
          "internalType": "string",
          "name": "",
          "type": "string"
        }
      ],
      "stateMutability": "view",
      "type": "function"
    },
    {
      "inputs": [
        {
          "internalType": "uint256",
          "name": "proposalId",
          "type": "uint256"
        }
      ],
      "name": "proposalDeadline",
      "outputs": [
        {
          "internalType": "uint256",
          "name": "",
          "type": "uint256"
        }
      ],
      "stateMutability": "view",
      "type": "function"
    },
    {
      "inputs": [
        {
          "internalType": "uint256",
          "name": "proposalId",
          "type": "uint256"
        }
      ],
      "name": "proposalEta",
      "outputs": [
        {
          "internalType": "uint256",
          "name": "",
          "type": "uint256"
        }
      ],
      "stateMutability": "view",
      "type": "function"
    },
    {
      "inputs": [
        {
          "internalType": "uint256",
          "name": "proposalId",
          "type": "uint256"
        }
      ],
      "name": "proposalSnapshot",
      "outputs": [
        {
          "internalType": "uint256",
          "name": "",
          "type": "uint256"
        }
      ],
      "stateMutability": "view",
      "type": "function"
    },
    {
      "inputs": [],
      "name": "proposalThreshold",
      "outputs": [
        {
          "internalType": "uint256",
          "name": "",
          "type": "uint256"
        }
      ],
      "stateMutability": "view",
      "type": "function"
    },
    {
      "inputs": [
        {
          "internalType": "uint256",
          "name": "proposalId",
          "type": "uint256"
        }
      ],
      "name": "proposalVotes",
      "outputs": [
        {
          "internalType": "uint256",
          "name": "againstVotes",
          "type": "uint256"
        },
        {
          "internalType": "uint256",
          "name": "forVotes",
          "type": "uint256"
        },
        {
          "internalType": "uint256",
          "name": "abstainVotes",
          "type": "uint256"
        }
      ],
      "stateMutability": "view",
      "type": "function"
    },
    {
      "inputs": [
        {
          "internalType": "address[]",
          "name": "targets",
          "type": "address[]"
        },
        {
          "internalType": "uint256[]",
          "name": "values",
          "type": "uint256[]"
        },
        {
          "internalType": "bytes[]",
          "name": "calldatas",
          "type": "bytes[]"
        },
        {
          "internalType": "string",
          "name": "description",
          "type": "string"
        }
      ],
      "name": "propose",
      "outputs": [
        {
          "internalType": "uint256",
          "name": "",
          "type": "uint256"
        }
      ],
      "stateMutability": "nonpayable",
      "type": "function"
    },
    {
      "inputs": [
        {
          "internalType": "address[]",
          "name": "targets",
          "type": "address[]"
        },
        {
          "internalType": "uint256[]",
          "name": "values",
          "type": "uint256[]"
        },
        {
          "internalType": "bytes[]",
          "name": "calldatas",
          "type": "bytes[]"
        },
        {
          "internalType": "bytes32",
          "name": "descriptionHash",
          "type": "bytes32"
        }
      ],
      "name": "queue",
      "outputs": [
        {
          "internalType": "uint256",
          "name": "",
          "type": "uint256"
        }
      ],
      "stateMutability": "nonpayable",
      "type": "function"
    },
    {
      "inputs": [
        {
          "internalType": "uint256",
          "name": "blockNumber",
          "type": "uint256"
        }
      ],
      "name": "quorum",
      "outputs": [
        {
          "internalType": "uint256",
          "name": "",
          "type": "uint256"
        }
      ],
      "stateMutability": "view",
      "type": "function"
    },
    {
      "inputs": [],
      "name": "quorumDenominator",
      "outputs": [
        {
          "internalType": "uint256",
          "name": "",
          "type": "uint256"
        }
      ],
      "stateMutability": "view",
      "type": "function"
    },
    {
      "inputs": [],
      "name": "quorumNumerator",
      "outputs": [
        {
          "internalType": "uint256",
          "name": "",
          "type": "uint256"
        }
      ],
      "stateMutability": "view",
      "type": "function"
    },
    {
      "inputs": [
        {
          "internalType": "address",
          "name": "target",
          "type": "address"
        },
        {
          "internalType": "uint256",
          "name": "value",
          "type": "uint256"
        },
        {
          "internalType": "bytes",
          "name": "data",
          "type": "bytes"
        }
      ],
      "name": "relay",
      "outputs": [],
      "stateMutability": "nonpayable",
      "type": "function"
    },
    {
      "inputs": [],
      "name": "s_votingDelay",
      "outputs": [
        {
          "internalType": "uint256",
          "name": "",
          "type": "uint256"
        }
      ],
      "stateMutability": "view",
      "type": "function"
    },
    {
      "inputs": [],
      "name": "s_votingPeriod",
      "outputs": [
        {
          "internalType": "uint256",
          "name": "",
          "type": "uint256"
        }
      ],
      "stateMutability": "view",
      "type": "function"
    },
    {
      "inputs": [
        {
          "internalType": "uint256",
          "name": "newProposalThreshold",
          "type": "uint256"
        }
      ],
      "name": "setProposalThreshold",
      "outputs": [],
      "stateMutability": "nonpayable",
      "type": "function"
    },
    {
      "inputs": [
        {
          "internalType": "uint256",
          "name": "newVotingDelay",
          "type": "uint256"
        }
      ],
      "name": "setVotingDelay",
      "outputs": [],
      "stateMutability": "nonpayable",
      "type": "function"
    },
    {
      "inputs": [
        {
          "internalType": "uint256",
          "name": "newVotingPeriod",
          "type": "uint256"
        }
      ],
      "name": "setVotingPeriod",
      "outputs": [],
      "stateMutability": "nonpayable",
      "type": "function"
    },
    {
      "inputs": [],
      "name": "showproposals",
      "outputs": [
        {
          "internalType": "uint256[]",
          "name": "",
          "type": "uint256[]"
        }
      ],
      "stateMutability": "view",
      "type": "function"
    },
    {
      "inputs": [
        {
          "internalType": "uint256",
          "name": "proposalId",
          "type": "uint256"
        }
      ],
      "name": "state",
      "outputs": [
        {
          "internalType": "enum IGovernor.ProposalState",
          "name": "",
          "type": "uint8"
        }
      ],
      "stateMutability": "view",
      "type": "function"
    },
    {
      "inputs": [
        {
          "internalType": "bytes4",
          "name": "interfaceId",
          "type": "bytes4"
        }
      ],
      "name": "supportsInterface",
      "outputs": [
        {
          "internalType": "bool",
          "name": "",
          "type": "bool"
        }
      ],
      "stateMutability": "view",
      "type": "function"
    },
    {
      "inputs": [],
      "name": "timelock",
      "outputs": [
        {
          "internalType": "address",
          "name": "",
          "type": "address"
        }
      ],
      "stateMutability": "view",
      "type": "function"
    },
    {
      "inputs": [],
      "name": "token",
      "outputs": [
        {
          "internalType": "contract IVotes",
          "name": "",
          "type": "address"
        }
      ],
      "stateMutability": "view",
      "type": "function"
    },
    {
      "inputs": [
        {
          "internalType": "uint256",
          "name": "newQuorumNumerator",
          "type": "uint256"
        }
      ],
      "name": "updateQuorumNumerator",
      "outputs": [],
      "stateMutability": "nonpayable",
      "type": "function"
    },
    {
      "inputs": [
        {
          "internalType": "contract TimelockController",
          "name": "newTimelock",
          "type": "address"
        }
      ],
      "name": "updateTimelock",
      "outputs": [],
      "stateMutability": "nonpayable",
      "type": "function"
    },
    {
      "inputs": [],
      "name": "version",
      "outputs": [
        {
          "internalType": "string",
          "name": "",
          "type": "string"
        }
      ],
      "stateMutability": "view",
      "type": "function"
    },
    {
      "inputs": [],
      "name": "votingDelay",
      "outputs": [
        {
          "internalType": "uint256",
          "name": "",
          "type": "uint256"
        }
      ],
      "stateMutability": "view",
      "type": "function"
    },
    {
      "inputs": [],
      "name": "votingPeriod",
      "outputs": [
        {
          "internalType": "uint256",
          "name": "",
          "type": "uint256"
        }
      ],
      "stateMutability": "view",
      "type": "function"
    },
    {
      "stateMutability": "payable",
      "type": "receive"
    }
  ],
  "bytecode": "0x6101606040523480156200001257600080fd5b50604051620061a2380380620061a283398181016040528101906200003891906200069d565b838386838560006040518060400160405280601081526020017f476f7665726e6f72436f6e7472616374000000000000000000000000000000008152508062000086620001fb60201b60201c565b60008280519060200120905060008280519060200120905060007f8b73c3c69bb8fe3d512ecc4cf759cc79239f7b179b0ffacaa9a75d522b39400f90508260e081815250508161010081815250504660a08181525050620000ef8184846200023860201b60201c565b608081815250503073ffffffffffffffffffffffffffffffffffffffff1660c08173ffffffffffffffffffffffffffffffffffffffff16815250508061012081815250505050505050806000908051906020019062000150929190620004db565b505062000163836200027460201b60201c565b6200017482620002bb60201b60201c565b62000185816200034860201b60201c565b5050508073ffffffffffffffffffffffffffffffffffffffff166101408173ffffffffffffffffffffffffffffffffffffffff168152505050620001cf816200038f60201b60201c565b50620001e1816200043160201b60201c565b508060098190555081600a819055505050505050620009e5565b60606040518060400160405280600181526020017f3100000000000000000000000000000000000000000000000000000000000000815250905090565b600083838346306040516020016200025595949392919062000762565b6040516020818303038152906040528051906020012090509392505050565b7fc565b045403dc03c2eea82b81a0465edad9e2e7fc4d97e11421c209da93d7a9360025482604051620002a9929190620007bf565b60405180910390a18060028190555050565b6000811162000301576040517f08c379a0000000000000000000000000000000000000000000000000000000008152600401620002f89062000873565b60405180910390fd5b7f7e3f7f0708a84de9203036abaa450dccc85ad5ff52f78c170f3edb55cf5e88286003548260405162000336929190620007bf565b60405180910390a18060038190555050565b7fccb45da8d5717e6c4544694297c4ba5cf151d455c9bb0ed4fc7a38411bc05461600454826040516200037d929190620007bf565b60405180910390a18060048190555050565b6200039f620004d260201b60201c565b811115620003e4576040517f08c379a0000000000000000000000000000000000000000000000000000000008152600401620003db9062000931565b60405180910390fd5b60006006549050816006819055507f0553476bf02ef2726e8ce5ced78d63e26e602e4a2257b1f559418e24b4633997818360405162000425929190620007bf565b60405180910390a15050565b7f08f74ea46ef7894f65eabfb5e6e695de773a000b47c529ab559178069b226401600760009054906101000a900473ffffffffffffffffffffffffffffffffffffffff16826040516200048692919062000953565b60405180910390a180600760006101000a81548173ffffffffffffffffffffffffffffffffffffffff021916908373ffffffffffffffffffffffffffffffffffffffff16021790555050565b60006064905090565b828054620004e990620009af565b90600052602060002090601f0160209004810192826200050d576000855562000559565b82601f106200052857805160ff191683800117855562000559565b8280016001018555821562000559579182015b82811115620005585782518255916020019190600101906200053b565b5b5090506200056891906200056c565b5090565b5b80821115620005875760008160009055506001016200056d565b5090565b600080fd5b600073ffffffffffffffffffffffffffffffffffffffff82169050919050565b6000620005bd8262000590565b9050919050565b6000620005d182620005b0565b9050919050565b620005e381620005c4565b8114620005ef57600080fd5b50565b6000815190506200060381620005d8565b92915050565b6000620006168262000590565b9050919050565b60006200062a8262000609565b9050919050565b6200063c816200061d565b81146200064857600080fd5b50565b6000815190506200065c8162000631565b92915050565b6000819050919050565b620006778162000662565b81146200068357600080fd5b50565b60008151905062000697816200066c565b92915050565b600080600080600060a08688031215620006bc57620006bb6200058b565b5b6000620006cc88828901620005f2565b9550506020620006df888289016200064b565b9450506040620006f28882890162000686565b9350506060620007058882890162000686565b9250506080620007188882890162000686565b9150509295509295909350565b6000819050919050565b6200073a8162000725565b82525050565b6200074b8162000662565b82525050565b6200075c81620005b0565b82525050565b600060a0820190506200077960008301886200072f565b6200078860208301876200072f565b6200079760408301866200072f565b620007a6606083018562000740565b620007b5608083018462000751565b9695505050505050565b6000604082019050620007d6600083018562000740565b620007e5602083018462000740565b9392505050565b600082825260208201905092915050565b7f476f7665726e6f7253657474696e67733a20766f74696e6720706572696f642060008201527f746f6f206c6f7700000000000000000000000000000000000000000000000000602082015250565b60006200085b602783620007ec565b91506200086882620007fd565b604082019050919050565b600060208201905081810360008301526200088e816200084c565b9050919050565b7f476f7665726e6f72566f74657351756f72756d4672616374696f6e3a2071756f60008201527f72756d4e756d657261746f72206f7665722071756f72756d44656e6f6d696e6160208201527f746f720000000000000000000000000000000000000000000000000000000000604082015250565b600062000919604383620007ec565b9150620009268262000895565b606082019050919050565b600060208201905081810360008301526200094c816200090a565b9050919050565b60006040820190506200096a600083018562000751565b62000979602083018462000751565b9392505050565b7f4e487b7100000000000000000000000000000000000000000000000000000000600052602260045260246000fd5b60006002820490506001821680620009c857607f821691505b60208210811415620009df57620009de62000980565b5b50919050565b60805160a05160c05160e05161010051610120516101405161575462000a4e6000396000818161194c01528181612305015261240f01526000612697015260006126d9015260006126b8015260006125ed015260006126430152600061266c01526157546000f3fe6080604052600436106102295760003560e01c80637d5e81e211610123578063c59057e4116100ab578063ea0217cf1161006f578063ea0217cf1461090c578063eb9019d414610935578063ece40cc114610972578063f8ce560a1461099b578063fc0c546a146109d85761026f565b8063c59057e414610811578063d1dbe7d81461084e578063d33219b41461088b578063dd4e2ba5146108b6578063deaaa7cc146108e15761026f565b8063a890c910116100f2578063a890c9101461071a578063ab58fb8e14610743578063b58131b014610780578063c01f9e37146107ab578063c28bc2fa146107e85761026f565b80637d5e81e21461065c57806397c3d33414610699578063a21684ea146106c4578063a7713a70146106ef5761026f565b80633bccf4fd116101b15780635678138811610175578063567813881461055157806370b0f6601461058e578063725ae3dc146105b757806375aa749d146105e25780637b3c71d31461061f5761026f565b80633bccf4fd146104305780633e4f49e61461046d57806343859632146104aa578063544ffc9c146104e757806354fd4d50146105265761026f565b8063102d7f2c116101f8578063102d7f2c14610330578063160cbed71461035b5780632656227d146103985780632d63f693146103c85780633932abb1146104055761026f565b806301ffc9a71461027457806302a251a3146102b157806306f3f9e6146102dc57806306fdde03146103055761026f565b3661026f573073ffffffffffffffffffffffffffffffffffffffff1661024d610a03565b73ffffffffffffffffffffffffffffffffffffffff161461026d57600080fd5b005b600080fd5b34801561028057600080fd5b5061029b600480360381019061029691906133b7565b610a12565b6040516102a891906133ff565b60405180910390f35b3480156102bd57600080fd5b506102c6610a24565b6040516102d39190613433565b60405180910390f35b3480156102e857600080fd5b5061030360048036038101906102fe919061347a565b610a2e565b005b34801561031157600080fd5b5061031a610ab6565b6040516103279190613540565b60405180910390f35b34801561033c57600080fd5b50610345610b48565b6040516103529190613433565b60405180910390f35b34801561036757600080fd5b50610382600480360381019061037d9190613997565b610b4e565b60405161038f9190613433565b60405180910390f35b6103b260048036038101906103ad9190613997565b610e26565b6040516103bf9190613433565b60405180910390f35b3480156103d457600080fd5b506103ef60048036038101906103ea919061347a565b610f59565b6040516103fc9190613433565b60405180910390f35b34801561041157600080fd5b5061041a610fc7565b6040516104279190613433565b60405180910390f35b34801561043c57600080fd5b5061045760048036038101906104529190613a8b565b610fd1565b6040516104649190613433565b60405180910390f35b34801561047957600080fd5b50610494600480360381019061048f919061347a565b61105b565b6040516104a19190613b7d565b60405180910390f35b3480156104b657600080fd5b506104d160048036038101906104cc9190613b98565b61106d565b6040516104de91906133ff565b60405180910390f35b3480156104f357600080fd5b5061050e6004803603810190610509919061347a565b6110d8565b60405161051d93929190613bd8565b60405180910390f35b34801561053257600080fd5b5061053b611110565b6040516105489190613540565b60405180910390f35b34801561055d57600080fd5b5061057860048036038101906105739190613c0f565b61114d565b6040516105859190613433565b60405180910390f35b34801561059a57600080fd5b506105b560048036038101906105b0919061347a565b61117e565b005b3480156105c357600080fd5b506105cc611206565b6040516105d99190613433565b60405180910390f35b3480156105ee57600080fd5b506106096004803603810190610604919061347a565b61120c565b6040516106169190613540565b60405180910390f35b34801561062b57600080fd5b5061064660048036038101906106419190613caa565b6112b2565b6040516106539190613433565b60405180910390f35b34801561066857600080fd5b50610683600480360381019061067e9190613dbf565b61131a565b6040516106909190613433565b60405180910390f35b3480156106a557600080fd5b506106ae61140b565b6040516106bb9190613433565b60405180910390f35b3480156106d057600080fd5b506106d9611414565b6040516106e69190613f54565b60405180910390f35b3480156106fb57600080fd5b5061070461146c565b6040516107119190613433565b60405180910390f35b34801561072657600080fd5b50610741600480360381019061073c9190613fc6565b611476565b005b34801561074f57600080fd5b5061076a6004803603810190610765919061347a565b6114fe565b6040516107779190613433565b60405180910390f35b34801561078c57600080fd5b506107956115da565b6040516107a29190613433565b60405180910390f35b3480156107b757600080fd5b506107d260048036038101906107cd919061347a565b6115e9565b6040516107df9190613433565b60405180910390f35b3480156107f457600080fd5b5061080f600480360381019061080a9190614049565b611657565b005b34801561081d57600080fd5b5061083860048036038101906108339190613997565b611729565b6040516108459190613433565b60405180910390f35b34801561085a57600080fd5b506108756004803603810190610870919061347a565b611765565b6040516108829190613433565b60405180910390f35b34801561089757600080fd5b506108a0611789565b6040516108ad91906140cc565b60405180910390f35b3480156108c257600080fd5b506108cb6117b3565b6040516108d89190613540565b60405180910390f35b3480156108ed57600080fd5b506108f66117f0565b60405161090391906140f6565b60405180910390f35b34801561091857600080fd5b50610933600480360381019061092e919061347a565b611814565b005b34801561094157600080fd5b5061095c60048036038101906109579190614111565b61189c565b6040516109699190613433565b60405180910390f35b34801561097e57600080fd5b506109996004803603810190610994919061347a565b6118b0565b005b3480156109a757600080fd5b506109c260048036038101906109bd919061347a565b611938565b6040516109cf9190613433565b60405180910390f35b3480156109e457600080fd5b506109ed61194a565b6040516109fa91906141b0565b60405180910390f35b6000610a0d61196e565b905090565b6000610a1d82611998565b9050919050565b6000600a54905090565b610a36610a03565b73ffffffffffffffffffffffffffffffffffffffff16610a54611a12565b73ffffffffffffffffffffffffffffffffffffffff1614610aaa576040517f08c379a0000000000000000000000000000000000000000000000000000000008152600401610aa190614217565b60405180910390fd5b610ab381611a1a565b50565b606060008054610ac590614266565b80601f0160208091040260200160405190810160405280929190818152602001828054610af190614266565b8015610b3e5780601f10610b1357610100808354040283529160200191610b3e565b820191906000526020600020905b815481529060010190602001808311610b2157829003601f168201915b5050505050905090565b60095481565b600080610b5d86868686611729565b905060046007811115610b7357610b72613b06565b5b610b7c8261105b565b6007811115610b8e57610b8d613b06565b5b14610bce576040517f08c379a0000000000000000000000000000000000000000000000000000000008152600401610bc59061430a565b60405180910390fd5b6000600760009054906101000a900473ffffffffffffffffffffffffffffffffffffffff1673ffffffffffffffffffffffffffffffffffffffff1663f27a0c926040518163ffffffff1660e01b815260040160206040518083038186803b158015610c3857600080fd5b505afa158015610c4c573d6000803e3d6000fd5b505050506040513d601f19601f82011682018060405250810190610c70919061433f565b9050600760009054906101000a900473ffffffffffffffffffffffffffffffffffffffff1673ffffffffffffffffffffffffffffffffffffffff1663b1c5f4278888886000896040518663ffffffff1660e01b8152600401610cd6959493929190614589565b60206040518083038186803b158015610cee57600080fd5b505afa158015610d02573d6000803e3d6000fd5b505050506040513d601f19601f82011682018060405250810190610d269190614606565b6008600084815260200190815260200160002081905550600760009054906101000a900473ffffffffffffffffffffffffffffffffffffffff1673ffffffffffffffffffffffffffffffffffffffff16638f2a0bb0888888600089876040518763ffffffff1660e01b8152600401610da396959493929190614633565b600060405180830381600087803b158015610dbd57600080fd5b505af1158015610dd1573d6000803e3d6000fd5b505050507f9a2e42fd6722813d69113e7d0079d3d940171428df7373df9c7f7617cfda2892828242610e0391906146d8565b604051610e1192919061472e565b60405180910390a18192505050949350505050565b600080610e3586868686611729565b90506000610e428261105b565b905060046007811115610e5857610e57613b06565b5b816007811115610e6b57610e6a613b06565b5b1480610e9b575060056007811115610e8657610e85613b06565b5b816007811115610e9957610e98613b06565b5b145b610eda576040517f08c379a0000000000000000000000000000000000000000000000000000000008152600401610ed19061430a565b60405180910390fd5b600180600084815260200190815260200160002060020160006101000a81548160ff0219169083151502179055507f712ae1383f79ac853f8d882153778e0260ef8f03b504e2866e0593e04d2b291f82604051610f379190613433565b60405180910390a1610f4c8288888888611aaf565b8192505050949350505050565b6000610fb6600160008481526020019081526020016000206000016040518060200160405290816000820160009054906101000a900467ffffffffffffffff1667ffffffffffffffff1667ffffffffffffffff1681525050611ac3565b67ffffffffffffffff169050919050565b6000600954905090565b60008061103261102a7f150214d74d59b7d1e90c73fc22ef3d991dd0a76b046543d4d80ab92d2a50328f898960405160200161100f93929190614766565b60405160208183030381529060405280519060200120611ad1565b868686611aeb565b905061104f87828860405180602001604052806000815250611b16565b91505095945050505050565b600061106682611c6a565b9050919050565b60006005600084815260200190815260200160002060030160008373ffffffffffffffffffffffffffffffffffffffff1673ffffffffffffffffffffffffffffffffffffffff16815260200190815260200160002060009054906101000a900460ff16905092915050565b600080600080600560008681526020019081526020016000209050806000015481600101548260020154935093509350509193909250565b60606040518060400160405280600181526020017f3100000000000000000000000000000000000000000000000000000000000000815250905090565b600080611158611a12565b905061117584828560405180602001604052806000815250611b16565b91505092915050565b611186610a03565b73ffffffffffffffffffffffffffffffffffffffff166111a4611a12565b73ffffffffffffffffffffffffffffffffffffffff16146111fa576040517f08c379a00000000000000000000000000000000000000000000000000000000081526004016111f190614217565b60405180910390fd5b61120381611e5c565b50565b600a5481565b600c60205280600052604060002060009150905080600301805461122f90614266565b80601f016020809104026020016040519081016040528092919081815260200182805461125b90614266565b80156112a85780601f1061127d576101008083540402835291602001916112a8565b820191906000526020600020905b81548152906001019060200180831161128b57829003601f168201915b5050505050905081565b6000806112bd611a12565b905061130f86828787878080601f016020809104026020016040519081016040528093929190818152602001838380828437600081840152601f19601f82011690508083019250505050505050611b16565b915050949350505050565b60008061132986868686611ea1565b9050600b819080600181540180825580915050600190039060005260206000200160009091909190915055604051806080016040528087815260200186815260200185815260200184815250600c600083815260200190815260200160002060008201518160000190805190602001906113a4929190613087565b5060208201518160010190805190602001906113c1929190613111565b5060408201518160020190805190602001906113de92919061315e565b5060608201518160030190805190602001906113fb9291906131be565b5090505080915050949350505050565b60006064905090565b6060600b80548060200260200160405190810160405280929190818152602001828054801561146257602002820191906000526020600020905b81548152602001906001019080831161144e575b5050505050905090565b6000600654905090565b61147e610a03565b73ffffffffffffffffffffffffffffffffffffffff1661149c611a12565b73ffffffffffffffffffffffffffffffffffffffff16146114f2576040517f08c379a00000000000000000000000000000000000000000000000000000000081526004016114e990614217565b60405180910390fd5b6114fb816121a1565b50565b600080600760009054906101000a900473ffffffffffffffffffffffffffffffffffffffff1673ffffffffffffffffffffffffffffffffffffffff1663d45c443560086000868152602001908152602001600020546040518263ffffffff1660e01b815260040161156f91906140f6565b60206040518083038186803b15801561158757600080fd5b505afa15801561159b573d6000803e3d6000fd5b505050506040513d601f19601f820116820180604052508101906115bf919061433f565b9050600181146115cf57806115d2565b60005b915050919050565b60006115e4612240565b905090565b6000611646600160008481526020019081526020016000206001016040518060200160405290816000820160009054906101000a900467ffffffffffffffff1667ffffffffffffffff1667ffffffffffffffff1681525050611ac3565b67ffffffffffffffff169050919050565b61165f610a03565b73ffffffffffffffffffffffffffffffffffffffff1661167d611a12565b73ffffffffffffffffffffffffffffffffffffffff16146116d3576040517f08c379a00000000000000000000000000000000000000000000000000000000081526004016116ca90614217565b60405180910390fd5b6117228483838080601f016020809104026020016040519081016040528093929190818152602001838380828437600081840152601f19601f820116905080830192505050505050508561224a565b5050505050565b600084848484604051602001611742949392919061479d565b6040516020818303038152906040528051906020012060001c9050949350505050565b600b818154811061177557600080fd5b906000526020600020016000915090505481565b6000600760009054906101000a900473ffffffffffffffffffffffffffffffffffffffff16905090565b60606040518060400160405280602081526020017f737570706f72743d627261766f2671756f72756d3d666f722c6162737461696e815250905090565b7f150214d74d59b7d1e90c73fc22ef3d991dd0a76b046543d4d80ab92d2a50328f81565b61181c610a03565b73ffffffffffffffffffffffffffffffffffffffff1661183a611a12565b73ffffffffffffffffffffffffffffffffffffffff1614611890576040517f08c379a000000000000000000000000000000000000000000000000000000000815260040161188790614217565b60405180910390fd5b61189981612279565b50565b60006118a88383612301565b905092915050565b6118b8610a03565b73ffffffffffffffffffffffffffffffffffffffff166118d6611a12565b73ffffffffffffffffffffffffffffffffffffffff161461192c576040517f08c379a000000000000000000000000000000000000000000000000000000000815260040161192390614217565b60405180910390fd5b611935816123b6565b50565b6000611943826123fb565b9050919050565b7f000000000000000000000000000000000000000000000000000000000000000081565b6000600760009054906101000a900473ffffffffffffffffffffffffffffffffffffffff16905090565b60007f6e665ced000000000000000000000000000000000000000000000000000000007bffffffffffffffffffffffffffffffffffffffffffffffffffffffff1916827bffffffffffffffffffffffffffffffffffffffffffffffffffffffff19161480611a0b5750611a0a826124d1565b5b9050919050565b600033905090565b611a2261140b565b811115611a64576040517f08c379a0000000000000000000000000000000000000000000000000000000008152600401611a5b9061488f565b60405180910390fd5b60006006549050816006819055507f0553476bf02ef2726e8ce5ced78d63e26e602e4a2257b1f559418e24b46339978183604051611aa392919061472e565b60405180910390a15050565b611abc858585858561254b565b5050505050565b600081600001519050919050565b6000611ae4611ade6125e9565b83612703565b9050919050565b6000806000611afc87878787612736565b91509150611b0981612843565b8192505050949350505050565b60008060016000878152602001908152602001600020905060016007811115611b4257611b41613b06565b5b611b4b8761105b565b6007811115611b5d57611b5c613b06565b5b14611b9d576040517f08c379a0000000000000000000000000000000000000000000000000000000008152600401611b9490614921565b60405180910390fd5b6000611bfb86611bec846000016040518060200160405290816000820160009054906101000a900467ffffffffffffffff1667ffffffffffffffff1667ffffffffffffffff1681525050611ac3565b67ffffffffffffffff1661189c565b9050611c0987878784612a18565b8573ffffffffffffffffffffffffffffffffffffffff167fb8e138887d0aa13bab447e82de9d5c1777041ecd21ca36ba824ff1e6c07ddda488878488604051611c559493929190614941565b60405180910390a28092505050949350505050565b600080611c7683612c1e565b905060046007811115611c8c57611c8b613b06565b5b816007811115611c9f57611c9e613b06565b5b14611cad5780915050611e57565b6000600860008581526020019081526020016000205490506000801b811415611cda578192505050611e57565b600760009054906101000a900473ffffffffffffffffffffffffffffffffffffffff1673ffffffffffffffffffffffffffffffffffffffff16632ab0f529826040518263ffffffff1660e01b8152600401611d3591906140f6565b60206040518083038186803b158015611d4d57600080fd5b505afa158015611d61573d6000803e3d6000fd5b505050506040513d601f19601f82011682018060405250810190611d8591906149b9565b15611d9557600792505050611e57565b600760009054906101000a900473ffffffffffffffffffffffffffffffffffffffff1673ffffffffffffffffffffffffffffffffffffffff1663584b153e826040518263ffffffff1660e01b8152600401611df091906140f6565b60206040518083038186803b158015611e0857600080fd5b505afa158015611e1c573d6000803e3d6000fd5b505050506040513d601f19601f82011682018060405250810190611e4091906149b9565b15611e5057600592505050611e57565b6002925050505b919050565b7fc565b045403dc03c2eea82b81a0465edad9e2e7fc4d97e11421c209da93d7a9360025482604051611e8f92919061472e565b60405180910390a18060028190555050565b6000611eab6115da565b611ec133600143611ebc91906149e6565b61189c565b1015611f02576040517f08c379a0000000000000000000000000000000000000000000000000000000008152600401611ef990614ab2565b60405180910390fd5b6000611f178686868680519060200120611729565b90508451865114611f5d576040517f08c379a0000000000000000000000000000000000000000000000000000000008152600401611f5490614b44565b60405180910390fd5b8351865114611fa1576040517f08c379a0000000000000000000000000000000000000000000000000000000008152600401611f9890614b44565b60405180910390fd5b6000865111611fe5576040517f08c379a0000000000000000000000000000000000000000000000000000000008152600401611fdc90614bb0565b60405180910390fd5b6000600160008381526020019081526020016000209050612045816000016040518060200160405290816000820160009054906101000a900467ffffffffffffffff1667ffffffffffffffff1667ffffffffffffffff1681525050612d33565b612084576040517f08c379a000000000000000000000000000000000000000000000000000000000815260040161207b90614c42565b60405180910390fd5b6000612096612091610fc7565b612d4d565b61209f43612d4d565b6120a99190614c76565b905060006120bd6120b8610a24565b612d4d565b826120c89190614c76565b90506120e08284600001612da490919063ffffffff16565b6120f68184600101612da490919063ffffffff16565b7f7d84a6263ae0d98d3329bd7b46bb4e8d6f98cd35a7adb45c274c8b7fd5ebd5e084612120611a12565b8b8b8d5167ffffffffffffffff81111561213d5761213c613567565b5b60405190808252806020026020018201604052801561217057816020015b606081526020019060019003908161215b5790505b508c88888e60405161218a99989796959493929190614df1565b60405180910390a183945050505050949350505050565b7f08f74ea46ef7894f65eabfb5e6e695de773a000b47c529ab559178069b226401600760009054906101000a900473ffffffffffffffffffffffffffffffffffffffff16826040516121f4929190614ea1565b60405180910390a180600760006101000a81548173ffffffffffffffffffffffffffffffffffffffff021916908373ffffffffffffffffffffffffffffffffffffffff16021790555050565b6000600454905090565b60606122708484846040518060600160405280602981526020016156f660299139612dd3565b90509392505050565b600081116122bc576040517f08c379a00000000000000000000000000000000000000000000000000000000081526004016122b390614f3c565b60405180910390fd5b7f7e3f7f0708a84de9203036abaa450dccc85ad5ff52f78c170f3edb55cf5e8828600354826040516122ef92919061472e565b60405180910390a18060038190555050565b60007f000000000000000000000000000000000000000000000000000000000000000073ffffffffffffffffffffffffffffffffffffffff16633a46b1a884846040518363ffffffff1660e01b815260040161235e929190614f5c565b60206040518083038186803b15801561237657600080fd5b505afa15801561238a573d6000803e3d6000fd5b505050506040513d601f19601f820116820180604052508101906123ae919061433f565b905092915050565b7fccb45da8d5717e6c4544694297c4ba5cf151d455c9bb0ed4fc7a38411bc05461600454826040516123e992919061472e565b60405180910390a18060048190555050565b600061240561140b565b61240d61146c565b7f000000000000000000000000000000000000000000000000000000000000000073ffffffffffffffffffffffffffffffffffffffff16638e539e8c856040518263ffffffff1660e01b81526004016124669190613433565b60206040518083038186803b15801561247e57600080fd5b505afa158015612492573d6000803e3d6000fd5b505050506040513d601f19601f820116820180604052508101906124b6919061433f565b6124c09190614f85565b6124ca919061500e565b9050919050565b60007fbf26d897000000000000000000000000000000000000000000000000000000007bffffffffffffffffffffffffffffffffffffffffffffffffffffffff1916827bffffffffffffffffffffffffffffffffffffffffffffffffffffffff19161480612544575061254382612ee7565b5b9050919050565b600760009054906101000a900473ffffffffffffffffffffffffffffffffffffffff1673ffffffffffffffffffffffffffffffffffffffff1663e38335e5348686866000876040518763ffffffff1660e01b81526004016125b0959493929190614589565b6000604051808303818588803b1580156125c957600080fd5b505af11580156125dd573d6000803e3d6000fd5b50505050505050505050565b60007f000000000000000000000000000000000000000000000000000000000000000073ffffffffffffffffffffffffffffffffffffffff163073ffffffffffffffffffffffffffffffffffffffff1614801561266557507f000000000000000000000000000000000000000000000000000000000000000046145b15612692577f00000000000000000000000000000000000000000000000000000000000000009050612700565b6126fd7f00000000000000000000000000000000000000000000000000000000000000007f00000000000000000000000000000000000000000000000000000000000000007f0000000000000000000000000000000000000000000000000000000000000000612f51565b90505b90565b600082826040516020016127189291906150b7565b60405160208183030381529060405280519060200120905092915050565b6000807f7fffffffffffffffffffffffffffffff5d576e7357a4501ddfe92f46681b20a08360001c111561277157600060039150915061283a565b601b8560ff16141580156127895750601c8560ff1614155b1561279b57600060049150915061283a565b6000600187878787604051600081526020016040526040516127c094939291906150ee565b6020604051602081039080840390855afa1580156127e2573d6000803e3d6000fd5b505050602060405103519050600073ffffffffffffffffffffffffffffffffffffffff168173ffffffffffffffffffffffffffffffffffffffff1614156128315760006001925092505061283a565b80600092509250505b94509492505050565b6000600481111561285757612856613b06565b5b81600481111561286a57612869613b06565b5b141561287557612a15565b6001600481111561288957612888613b06565b5b81600481111561289c5761289b613b06565b5b14156128dd576040517f08c379a00000000000000000000000000000000000000000000000000000000081526004016128d49061517f565b60405180910390fd5b600260048111156128f1576128f0613b06565b5b81600481111561290457612903613b06565b5b1415612945576040517f08c379a000000000000000000000000000000000000000000000000000000000815260040161293c906151eb565b60405180910390fd5b6003600481111561295957612958613b06565b5b81600481111561296c5761296b613b06565b5b14156129ad576040517f08c379a00000000000000000000000000000000000000000000000000000000081526004016129a49061527d565b60405180910390fd5b6004808111156129c0576129bf613b06565b5b8160048111156129d3576129d2613b06565b5b1415612a14576040517f08c379a0000000000000000000000000000000000000000000000000000000008152600401612a0b9061530f565b60405180910390fd5b5b50565b60006005600086815260200190815260200160002090508060030160008573ffffffffffffffffffffffffffffffffffffffff1673ffffffffffffffffffffffffffffffffffffffff16815260200190815260200160002060009054906101000a900460ff1615612abe576040517f08c379a0000000000000000000000000000000000000000000000000000000008152600401612ab5906153a1565b60405180910390fd5b60018160030160008673ffffffffffffffffffffffffffffffffffffffff1673ffffffffffffffffffffffffffffffffffffffff16815260200190815260200160002060006101000a81548160ff02191690831515021790555060006002811115612b2c57612b2b613b06565b5b60ff168360ff161415612b595781816000016000828254612b4d91906146d8565b92505081905550612c17565b60016002811115612b6d57612b6c613b06565b5b60ff168360ff161415612b9a5781816001016000828254612b8e91906146d8565b92505081905550612c16565b600280811115612bad57612bac613b06565b5b60ff168360ff161415612bda5781816002016000828254612bce91906146d8565b92505081905550612c15565b6040517f08c379a0000000000000000000000000000000000000000000000000000000008152600401612c0c90615433565b60405180910390fd5b5b5b5050505050565b6000806001600084815260200190815260200160002090508060020160009054906101000a900460ff1615612c57576007915050612d2e565b8060020160019054906101000a900460ff1615612c78576002915050612d2e565b6000612c8384610f59565b90506000811415612cc9576040517f08c379a0000000000000000000000000000000000000000000000000000000008152600401612cc09061549f565b60405180910390fd5b438110612cdb57600092505050612d2e565b6000612ce6856115e9565b9050438110612cfb5760019350505050612d2e565b612d0485612f8b565b8015612d155750612d1485612fd2565b5b15612d265760049350505050612d2e565b600393505050505b919050565b600080826000015167ffffffffffffffff16149050919050565b600067ffffffffffffffff8016821115612d9c576040517f08c379a0000000000000000000000000000000000000000000000000000000008152600401612d9390615531565b60405180910390fd5b819050919050565b808260000160006101000a81548167ffffffffffffffff021916908367ffffffffffffffff1602179055505050565b606082471015612e18576040517f08c379a0000000000000000000000000000000000000000000000000000000008152600401612e0f906155c3565b60405180910390fd5b612e2185612ffd565b612e60576040517f08c379a0000000000000000000000000000000000000000000000000000000008152600401612e579061562f565b60405180910390fd5b6000808673ffffffffffffffffffffffffffffffffffffffff168587604051612e89919061568b565b60006040518083038185875af1925050503d8060008114612ec6576040519150601f19603f3d011682016040523d82523d6000602084013e612ecb565b606091505b5091509150612edb828286613020565b92505050949350505050565b60007f01ffc9a7000000000000000000000000000000000000000000000000000000007bffffffffffffffffffffffffffffffffffffffffffffffffffffffff1916827bffffffffffffffffffffffffffffffffffffffffffffffffffffffff1916149050919050565b60008383834630604051602001612f6c9594939291906156a2565b6040516020818303038152906040528051906020012090509392505050565b60008060056000848152602001908152602001600020905080600201548160010154612fb791906146d8565b612fc8612fc385610f59565b611938565b1115915050919050565b6000806005600084815260200190815260200160002090508060000154816001015411915050919050565b6000808273ffffffffffffffffffffffffffffffffffffffff163b119050919050565b6060831561303057829050613080565b6000835111156130435782518084602001fd5b816040517f08c379a00000000000000000000000000000000000000000000000000000000081526004016130779190613540565b60405180910390fd5b9392505050565b828054828255906000526020600020908101928215613100579160200282015b828111156130ff5782518260006101000a81548173ffffffffffffffffffffffffffffffffffffffff021916908373ffffffffffffffffffffffffffffffffffffffff160217905550916020019190600101906130a7565b5b50905061310d9190613244565b5090565b82805482825590600052602060002090810192821561314d579160200282015b8281111561314c578251825591602001919060010190613131565b5b50905061315a9190613244565b5090565b8280548282559060005260206000209081019282156131ad579160200282015b828111156131ac57825182908051906020019061319c929190613261565b509160200191906001019061317e565b5b5090506131ba91906132e7565b5090565b8280546131ca90614266565b90600052602060002090601f0160209004810192826131ec5760008555613233565b82601f1061320557805160ff1916838001178555613233565b82800160010185558215613233579182015b82811115613232578251825591602001919060010190613217565b5b5090506132409190613244565b5090565b5b8082111561325d576000816000905550600101613245565b5090565b82805461326d90614266565b90600052602060002090601f01602090048101928261328f57600085556132d6565b82601f106132a857805160ff19168380011785556132d6565b828001600101855582156132d6579182015b828111156132d55782518255916020019190600101906132ba565b5b5090506132e39190613244565b5090565b5b8082111561330757600081816132fe919061330b565b506001016132e8565b5090565b50805461331790614266565b6000825580601f106133295750613348565b601f0160209004906000526020600020908101906133479190613244565b5b50565b6000604051905090565b600080fd5b600080fd5b60007fffffffff0000000000000000000000000000000000000000000000000000000082169050919050565b6133948161335f565b811461339f57600080fd5b50565b6000813590506133b18161338b565b92915050565b6000602082840312156133cd576133cc613355565b5b60006133db848285016133a2565b91505092915050565b60008115159050919050565b6133f9816133e4565b82525050565b600060208201905061341460008301846133f0565b92915050565b6000819050919050565b61342d8161341a565b82525050565b60006020820190506134486000830184613424565b92915050565b6134578161341a565b811461346257600080fd5b50565b6000813590506134748161344e565b92915050565b6000602082840312156134905761348f613355565b5b600061349e84828501613465565b91505092915050565b600081519050919050565b600082825260208201905092915050565b60005b838110156134e15780820151818401526020810190506134c6565b838111156134f0576000848401525b50505050565b6000601f19601f8301169050919050565b6000613512826134a7565b61351c81856134b2565b935061352c8185602086016134c3565b613535816134f6565b840191505092915050565b6000602082019050818103600083015261355a8184613507565b905092915050565b600080fd5b7f4e487b7100000000000000000000000000000000000000000000000000000000600052604160045260246000fd5b61359f826134f6565b810181811067ffffffffffffffff821117156135be576135bd613567565b5b80604052505050565b60006135d161334b565b90506135dd8282613596565b919050565b600067ffffffffffffffff8211156135fd576135fc613567565b5b602082029050602081019050919050565b600080fd5b600073ffffffffffffffffffffffffffffffffffffffff82169050919050565b600061363e82613613565b9050919050565b61364e81613633565b811461365957600080fd5b50565b60008135905061366b81613645565b92915050565b600061368461367f846135e2565b6135c7565b905080838252602082019050602084028301858111156136a7576136a661360e565b5b835b818110156136d057806136bc888261365c565b8452602084019350506020810190506136a9565b5050509392505050565b600082601f8301126136ef576136ee613562565b5b81356136ff848260208601613671565b91505092915050565b600067ffffffffffffffff82111561372357613722613567565b5b602082029050602081019050919050565b600061374761374284613708565b6135c7565b9050808382526020820190506020840283018581111561376a5761376961360e565b5b835b81811015613793578061377f8882613465565b84526020840193505060208101905061376c565b5050509392505050565b600082601f8301126137b2576137b1613562565b5b81356137c2848260208601613734565b91505092915050565b600067ffffffffffffffff8211156137e6576137e5613567565b5b602082029050602081019050919050565b600080fd5b600067ffffffffffffffff82111561381757613816613567565b5b613820826134f6565b9050602081019050919050565b82818337600083830152505050565b600061384f61384a846137fc565b6135c7565b90508281526020810184848401111561386b5761386a6137f7565b5b61387684828561382d565b509392505050565b600082601f83011261389357613892613562565b5b81356138a384826020860161383c565b91505092915050565b60006138bf6138ba846137cb565b6135c7565b905080838252602082019050602084028301858111156138e2576138e161360e565b5b835b8181101561392957803567ffffffffffffffff81111561390757613906613562565b5b808601613914898261387e565b855260208501945050506020810190506138e4565b5050509392505050565b600082601f83011261394857613947613562565b5b81356139588482602086016138ac565b91505092915050565b6000819050919050565b61397481613961565b811461397f57600080fd5b50565b6000813590506139918161396b565b92915050565b600080600080608085870312156139b1576139b0613355565b5b600085013567ffffffffffffffff8111156139cf576139ce61335a565b5b6139db878288016136da565b945050602085013567ffffffffffffffff8111156139fc576139fb61335a565b5b613a088782880161379d565b935050604085013567ffffffffffffffff811115613a2957613a2861335a565b5b613a3587828801613933565b9250506060613a4687828801613982565b91505092959194509250565b600060ff82169050919050565b613a6881613a52565b8114613a7357600080fd5b50565b600081359050613a8581613a5f565b92915050565b600080600080600060a08688031215613aa757613aa6613355565b5b6000613ab588828901613465565b9550506020613ac688828901613a76565b9450506040613ad788828901613a76565b9350506060613ae888828901613982565b9250506080613af988828901613982565b9150509295509295909350565b7f4e487b7100000000000000000000000000000000000000000000000000000000600052602160045260246000fd5b60088110613b4657613b45613b06565b5b50565b6000819050613b5782613b35565b919050565b6000613b6782613b49565b9050919050565b613b7781613b5c565b82525050565b6000602082019050613b926000830184613b6e565b92915050565b60008060408385031215613baf57613bae613355565b5b6000613bbd85828601613465565b9250506020613bce8582860161365c565b9150509250929050565b6000606082019050613bed6000830186613424565b613bfa6020830185613424565b613c076040830184613424565b949350505050565b60008060408385031215613c2657613c25613355565b5b6000613c3485828601613465565b9250506020613c4585828601613a76565b9150509250929050565b600080fd5b60008083601f840112613c6a57613c69613562565b5b8235905067ffffffffffffffff811115613c8757613c86613c4f565b5b602083019150836001820283011115613ca357613ca261360e565b5b9250929050565b60008060008060608587031215613cc457613cc3613355565b5b6000613cd287828801613465565b9450506020613ce387828801613a76565b935050604085013567ffffffffffffffff811115613d0457613d0361335a565b5b613d1087828801613c54565b925092505092959194509250565b600067ffffffffffffffff821115613d3957613d38613567565b5b613d42826134f6565b9050602081019050919050565b6000613d62613d5d84613d1e565b6135c7565b905082815260208101848484011115613d7e57613d7d6137f7565b5b613d8984828561382d565b509392505050565b600082601f830112613da657613da5613562565b5b8135613db6848260208601613d4f565b91505092915050565b60008060008060808587031215613dd957613dd8613355565b5b600085013567ffffffffffffffff811115613df757613df661335a565b5b613e03878288016136da565b945050602085013567ffffffffffffffff811115613e2457613e2361335a565b5b613e308782880161379d565b935050604085013567ffffffffffffffff811115613e5157613e5061335a565b5b613e5d87828801613933565b925050606085013567ffffffffffffffff811115613e7e57613e7d61335a565b5b613e8a87828801613d91565b91505092959194509250565b600081519050919050565b600082825260208201905092915050565b6000819050602082019050919050565b613ecb8161341a565b82525050565b6000613edd8383613ec2565b60208301905092915050565b6000602082019050919050565b6000613f0182613e96565b613f0b8185613ea1565b9350613f1683613eb2565b8060005b83811015613f47578151613f2e8882613ed1565b9750613f3983613ee9565b925050600181019050613f1a565b5085935050505092915050565b60006020820190508181036000830152613f6e8184613ef6565b905092915050565b6000613f8182613613565b9050919050565b6000613f9382613f76565b9050919050565b613fa381613f88565b8114613fae57600080fd5b50565b600081359050613fc081613f9a565b92915050565b600060208284031215613fdc57613fdb613355565b5b6000613fea84828501613fb1565b91505092915050565b60008083601f84011261400957614008613562565b5b8235905067ffffffffffffffff81111561402657614025613c4f565b5b6020830191508360018202830111156140425761404161360e565b5b9250929050565b6000806000806060858703121561406357614062613355565b5b60006140718782880161365c565b945050602061408287828801613465565b935050604085013567ffffffffffffffff8111156140a3576140a261335a565b5b6140af87828801613ff3565b925092505092959194509250565b6140c681613633565b82525050565b60006020820190506140e160008301846140bd565b92915050565b6140f081613961565b82525050565b600060208201905061410b60008301846140e7565b92915050565b6000806040838503121561412857614127613355565b5b60006141368582860161365c565b925050602061414785828601613465565b9150509250929050565b6000819050919050565b600061417661417161416c84613613565b614151565b613613565b9050919050565b60006141888261415b565b9050919050565b600061419a8261417d565b9050919050565b6141aa8161418f565b82525050565b60006020820190506141c560008301846141a1565b92915050565b7f476f7665726e6f723a206f6e6c79476f7665726e616e63650000000000000000600082015250565b60006142016018836134b2565b915061420c826141cb565b602082019050919050565b60006020820190508181036000830152614230816141f4565b9050919050565b7f4e487b7100000000000000000000000000000000000000000000000000000000600052602260045260246000fd5b6000600282049050600182168061427e57607f821691505b6020821081141561429257614291614237565b5b50919050565b7f476f7665726e6f723a2070726f706f73616c206e6f742073756363657373667560008201527f6c00000000000000000000000000000000000000000000000000000000000000602082015250565b60006142f46021836134b2565b91506142ff82614298565b604082019050919050565b60006020820190508181036000830152614323816142e7565b9050919050565b6000815190506143398161344e565b92915050565b60006020828403121561435557614354613355565b5b60006143638482850161432a565b91505092915050565b600081519050919050565b600082825260208201905092915050565b6000819050602082019050919050565b6143a181613633565b82525050565b60006143b38383614398565b60208301905092915050565b6000602082019050919050565b60006143d78261436c565b6143e18185614377565b93506143ec83614388565b8060005b8381101561441d57815161440488826143a7565b975061440f836143bf565b9250506001810190506143f0565b5085935050505092915050565b600081519050919050565b600082825260208201905092915050565b6000819050602082019050919050565b600081519050919050565b600082825260208201905092915050565b600061447d82614456565b6144878185614461565b93506144978185602086016134c3565b6144a0816134f6565b840191505092915050565b60006144b78383614472565b905092915050565b6000602082019050919050565b60006144d78261442a565b6144e18185614435565b9350836020820285016144f385614446565b8060005b8581101561452f578484038952815161451085826144ab565b945061451b836144bf565b925060208a019950506001810190506144f7565b50829750879550505050505092915050565b6000819050919050565b60008160001b9050919050565b600061457361456e61456984614541565b61454b565b613961565b9050919050565b61458381614558565b82525050565b600060a08201905081810360008301526145a381886143cc565b905081810360208301526145b78187613ef6565b905081810360408301526145cb81866144cc565b90506145da606083018561457a565b6145e760808301846140e7565b9695505050505050565b6000815190506146008161396b565b92915050565b60006020828403121561461c5761461b613355565b5b600061462a848285016145f1565b91505092915050565b600060c082019050818103600083015261464d81896143cc565b905081810360208301526146618188613ef6565b9050818103604083015261467581876144cc565b9050614684606083018661457a565b61469160808301856140e7565b61469e60a0830184613424565b979650505050505050565b7f4e487b7100000000000000000000000000000000000000000000000000000000600052601160045260246000fd5b60006146e38261341a565b91506146ee8361341a565b9250827fffffffffffffffffffffffffffffffffffffffffffffffffffffffffffffffff03821115614723576147226146a9565b5b828201905092915050565b60006040820190506147436000830185613424565b6147506020830184613424565b9392505050565b61476081613a52565b82525050565b600060608201905061477b60008301866140e7565b6147886020830185613424565b6147956040830184614757565b949350505050565b600060808201905081810360008301526147b781876143cc565b905081810360208301526147cb8186613ef6565b905081810360408301526147df81856144cc565b90506147ee60608301846140e7565b95945050505050565b7f476f7665726e6f72566f74657351756f72756d4672616374696f6e3a2071756f60008201527f72756d4e756d657261746f72206f7665722071756f72756d44656e6f6d696e6160208201527f746f720000000000000000000000000000000000000000000000000000000000604082015250565b60006148796043836134b2565b9150614884826147f7565b606082019050919050565b600060208201905081810360008301526148a88161486c565b9050919050565b7f476f7665726e6f723a20766f7465206e6f742063757272656e746c792061637460008201527f6976650000000000000000000000000000000000000000000000000000000000602082015250565b600061490b6023836134b2565b9150614916826148af565b604082019050919050565b6000602082019050818103600083015261493a816148fe565b9050919050565b60006080820190506149566000830187613424565b6149636020830186614757565b6149706040830185613424565b81810360608301526149828184613507565b905095945050505050565b614996816133e4565b81146149a157600080fd5b50565b6000815190506149b38161498d565b92915050565b6000602082840312156149cf576149ce613355565b5b60006149dd848285016149a4565b91505092915050565b60006149f18261341a565b91506149fc8361341a565b925082821015614a0f57614a0e6146a9565b5b828203905092915050565b7f476f7665726e6f72436f6d7061746962696c697479427261766f3a2070726f7060008201527f6f73657220766f7465732062656c6f772070726f706f73616c2074687265736860208201527f6f6c640000000000000000000000000000000000000000000000000000000000604082015250565b6000614a9c6043836134b2565b9150614aa782614a1a565b606082019050919050565b60006020820190508181036000830152614acb81614a8f565b9050919050565b7f476f7665726e6f723a20696e76616c69642070726f706f73616c206c656e677460008201527f6800000000000000000000000000000000000000000000000000000000000000602082015250565b6000614b2e6021836134b2565b9150614b3982614ad2565b604082019050919050565b60006020820190508181036000830152614b5d81614b21565b9050919050565b7f476f7665726e6f723a20656d7074792070726f706f73616c0000000000000000600082015250565b6000614b9a6018836134b2565b9150614ba582614b64565b602082019050919050565b60006020820190508181036000830152614bc981614b8d565b9050919050565b7f476f7665726e6f723a2070726f706f73616c20616c726561647920657869737460008201527f7300000000000000000000000000000000000000000000000000000000000000602082015250565b6000614c2c6021836134b2565b9150614c3782614bd0565b604082019050919050565b60006020820190508181036000830152614c5b81614c1f565b9050919050565b600067ffffffffffffffff82169050919050565b6000614c8182614c62565b9150614c8c83614c62565b92508267ffffffffffffffff03821115614ca957614ca86146a9565b5b828201905092915050565b600081519050919050565b600082825260208201905092915050565b6000819050602082019050919050565b600082825260208201905092915050565b6000614cfc826134a7565b614d068185614ce0565b9350614d168185602086016134c3565b614d1f816134f6565b840191505092915050565b6000614d368383614cf1565b905092915050565b6000602082019050919050565b6000614d5682614cb4565b614d608185614cbf565b935083602082028501614d7285614cd0565b8060005b85811015614dae5784840389528151614d8f8582614d2a565b9450614d9a83614d3e565b925060208a01995050600181019050614d76565b50829750879550505050505092915050565b6000614ddb614dd6614dd184614c62565b614151565b61341a565b9050919050565b614deb81614dc0565b82525050565b600061012082019050614e07600083018c613424565b614e14602083018b6140bd565b8181036040830152614e26818a6143cc565b90508181036060830152614e3a8189613ef6565b90508181036080830152614e4e8188614d4b565b905081810360a0830152614e6281876144cc565b9050614e7160c0830186614de2565b614e7e60e0830185614de2565b818103610100830152614e918184613507565b90509a9950505050505050505050565b6000604082019050614eb660008301856140bd565b614ec360208301846140bd565b9392505050565b7f476f7665726e6f7253657474696e67733a20766f74696e6720706572696f642060008201527f746f6f206c6f7700000000000000000000000000000000000000000000000000602082015250565b6000614f266027836134b2565b9150614f3182614eca565b604082019050919050565b60006020820190508181036000830152614f5581614f19565b9050919050565b6000604082019050614f7160008301856140bd565b614f7e6020830184613424565b9392505050565b6000614f908261341a565b9150614f9b8361341a565b9250817fffffffffffffffffffffffffffffffffffffffffffffffffffffffffffffffff0483118215151615614fd457614fd36146a9565b5b828202905092915050565b7f4e487b7100000000000000000000000000000000000000000000000000000000600052601260045260246000fd5b60006150198261341a565b91506150248361341a565b92508261503457615033614fdf565b5b828204905092915050565b600081905092915050565b7f1901000000000000000000000000000000000000000000000000000000000000600082015250565b600061508060028361503f565b915061508b8261504a565b600282019050919050565b6000819050919050565b6150b16150ac82613961565b615096565b82525050565b60006150c282615073565b91506150ce82856150a0565b6020820191506150de82846150a0565b6020820191508190509392505050565b600060808201905061510360008301876140e7565b6151106020830186614757565b61511d60408301856140e7565b61512a60608301846140e7565b95945050505050565b7f45434453413a20696e76616c6964207369676e61747572650000000000000000600082015250565b60006151696018836134b2565b915061517482615133565b602082019050919050565b600060208201905081810360008301526151988161515c565b9050919050565b7f45434453413a20696e76616c6964207369676e6174757265206c656e67746800600082015250565b60006151d5601f836134b2565b91506151e08261519f565b602082019050919050565b60006020820190508181036000830152615204816151c8565b9050919050565b7f45434453413a20696e76616c6964207369676e6174757265202773272076616c60008201527f7565000000000000000000000000000000000000000000000000000000000000602082015250565b60006152676022836134b2565b91506152728261520b565b604082019050919050565b600060208201905081810360008301526152968161525a565b9050919050565b7f45434453413a20696e76616c6964207369676e6174757265202776272076616c60008201527f7565000000000000000000000000000000000000000000000000000000000000602082015250565b60006152f96022836134b2565b91506153048261529d565b604082019050919050565b60006020820190508181036000830152615328816152ec565b9050919050565b7f476f7665726e6f72566f74696e6753696d706c653a20766f746520616c72656160008201527f6479206361737400000000000000000000000000000000000000000000000000602082015250565b600061538b6027836134b2565b91506153968261532f565b604082019050919050565b600060208201905081810360008301526153ba8161537e565b9050919050565b7f476f7665726e6f72566f74696e6753696d706c653a20696e76616c696420766160008201527f6c756520666f7220656e756d20566f7465547970650000000000000000000000602082015250565b600061541d6035836134b2565b9150615428826153c1565b604082019050919050565b6000602082019050818103600083015261544c81615410565b9050919050565b7f476f7665726e6f723a20756e6b6e6f776e2070726f706f73616c206964000000600082015250565b6000615489601d836134b2565b915061549482615453565b602082019050919050565b600060208201905081810360008301526154b88161547c565b9050919050565b7f53616665436173743a2076616c756520646f65736e27742066697420696e203660008201527f3420626974730000000000000000000000000000000000000000000000000000602082015250565b600061551b6026836134b2565b9150615526826154bf565b604082019050919050565b6000602082019050818103600083015261554a8161550e565b9050919050565b7f416464726573733a20696e73756666696369656e742062616c616e636520666f60008201527f722063616c6c0000000000000000000000000000000000000000000000000000602082015250565b60006155ad6026836134b2565b91506155b882615551565b604082019050919050565b600060208201905081810360008301526155dc816155a0565b9050919050565b7f416464726573733a2063616c6c20746f206e6f6e2d636f6e7472616374000000600082015250565b6000615619601d836134b2565b9150615624826155e3565b602082019050919050565b600060208201905081810360008301526156488161560c565b9050919050565b600081905092915050565b600061566582614456565b61566f818561564f565b935061567f8185602086016134c3565b80840191505092915050565b6000615697828461565a565b915081905092915050565b600060a0820190506156b760008301886140e7565b6156c460208301876140e7565b6156d160408301866140e7565b6156de6060830185613424565b6156eb60808301846140bd565b969550505050505056fe416464726573733a206c6f772d6c6576656c2063616c6c20776974682076616c7565206661696c6564a26469706673582212206cd205e913bdefeef8986a4bda194cda0d64a8c2e7a1f0ceba8e2bb6bf8b20e664736f6c63430008090033",
  "linkReferences": {},
  "deployedLinkReferences": {}
}