{
  "_format": "hh-sol-artifact-1",
  "contractName": "TeamLineup",
  "sourceName": "contracts/TeamLineup.sol",
  "abi": [
    {
      "anonymous": false,
      "inputs": [
        {
          "indexed": true,
          "internalType": "address",
          "name": "previousOwner",
          "type": "address"
        },
        {
          "indexed": true,
          "internalType": "address",
          "name": "newOwner",
          "type": "address"
        }
      ],
      "name": "OwnershipTransferred",
      "type": "event"
    },
    {
      "inputs": [
        {
          "internalType": "uint256[11]",
          "name": "newplayers",
          "type": "uint256[11]"
        }
      ],
      "name": "changeplayers",
      "outputs": [],
      "stateMutability": "nonpayable",
      "type": "function"
    },
    {
      "inputs": [],
      "name": "owner",
      "outputs": [
        {
          "internalType": "address",
          "name": "",
          "type": "address"
        }
      ],
      "stateMutability": "view",
      "type": "function"
    },
    {
      "inputs": [],
      "name": "renounceOwnership",
      "outputs": [],
      "stateMutability": "nonpayable",
      "type": "function"
    },
    {
      "inputs": [],
      "name": "showplayers",
      "outputs": [
        {
          "internalType": "uint256[11]",
          "name": "",
          "type": "uint256[11]"
        }
      ],
      "stateMutability": "view",
      "type": "function"
    },
    {
      "inputs": [
        {
          "internalType": "address",
          "name": "newOwner",
          "type": "address"
        }
      ],
      "name": "transferOwnership",
      "outputs": [],
      "stateMutability": "nonpayable",
      "type": "function"
    }
  ],
  "bytecode": "0x608060405234801561001057600080fd5b5061002d61002261003260201b60201c565b61003a60201b60201c565b6100fe565b600033905090565b60008060009054906101000a900473ffffffffffffffffffffffffffffffffffffffff169050816000806101000a81548173ffffffffffffffffffffffffffffffffffffffff021916908373ffffffffffffffffffffffffffffffffffffffff1602179055508173ffffffffffffffffffffffffffffffffffffffff168173ffffffffffffffffffffffffffffffffffffffff167f8be0079c531659141344cd1fd0a4f28419497f9722a3daafe3b4186f6b6457e060405160405180910390a35050565b6108c08061010d6000396000f3fe608060405234801561001057600080fd5b50600436106100575760003560e01c8063715018a61461005c5780638da5cb5b14610066578063f2fde38b14610084578063fd00e42f146100a0578063fdfb1340146100bc575b600080fd5b6100646100da565b005b61006e610162565b60405161007b91906106e5565b60405180910390f35b61009e6004803603810190610099919061055f565b61018b565b005b6100ba60048036038101906100b59190610588565b610283565b005b6100c4610314565b6040516100d19190610700565b60405180910390f35b6100e261035f565b73ffffffffffffffffffffffffffffffffffffffff16610100610162565b73ffffffffffffffffffffffffffffffffffffffff1614610156576040517f08c379a000000000000000000000000000000000000000000000000000000000815260040161014d9061073c565b60405180910390fd5b6101606000610367565b565b60008060009054906101000a900473ffffffffffffffffffffffffffffffffffffffff16905090565b61019361035f565b73ffffffffffffffffffffffffffffffffffffffff166101b1610162565b73ffffffffffffffffffffffffffffffffffffffff1614610207576040517f08c379a00000000000000000000000000000000000000000000000000000000081526004016101fe9061073c565b60405180910390fd5b600073ffffffffffffffffffffffffffffffffffffffff168173ffffffffffffffffffffffffffffffffffffffff161415610277576040517f08c379a000000000000000000000000000000000000000000000000000000000815260040161026e9061071c565b60405180910390fd5b61028081610367565b50565b61028b61035f565b73ffffffffffffffffffffffffffffffffffffffff166102a9610162565b73ffffffffffffffffffffffffffffffffffffffff16146102ff576040517f08c379a00000000000000000000000000000000000000000000000000000000081526004016102f69061073c565b60405180910390fd5b80600190600b61031092919061042b565b5050565b61031c61046b565b6001600b806020026040519081016040528092919082600b8015610355576020028201915b815481526020019060010190808311610341575b5050505050905090565b600033905090565b60008060009054906101000a900473ffffffffffffffffffffffffffffffffffffffff169050816000806101000a81548173ffffffffffffffffffffffffffffffffffffffff021916908373ffffffffffffffffffffffffffffffffffffffff1602179055508173ffffffffffffffffffffffffffffffffffffffff168173ffffffffffffffffffffffffffffffffffffffff167f8be0079c531659141344cd1fd0a4f28419497f9722a3daafe3b4186f6b6457e060405160405180910390a35050565b82600b810192821561045a579160200282015b8281111561045957825182559160200191906001019061043e565b5b509050610467919061048e565b5090565b604051806101600160405280600b90602082028036833780820191505090505090565b5b808211156104a757600081600090555060010161048f565b5090565b60006104be6104b98461078d565b61075c565b905080828560208602820111156104d457600080fd5b60005b8581101561050457816104ea888261054a565b8452602084019350602083019250506001810190506104d7565b5050509392505050565b60008135905061051d8161085c565b92915050565b600082601f83011261053457600080fd5b600b6105418482856104ab565b91505092915050565b60008135905061055981610873565b92915050565b60006020828403121561057157600080fd5b600061057f8482850161050e565b91505092915050565b6000610160828403121561059b57600080fd5b60006105a984828501610523565b91505092915050565b60006105be83836106d6565b60208301905092915050565b6105d3816107f1565b82525050565b6105e2816107bd565b6105ec81846107d5565b92506105f7826107b3565b8060005b8381101561062857815161060f87826105b2565b965061061a836107c8565b9250506001810190506105fb565b505050505050565b600061063d6026836107e0565b91507f4f776e61626c653a206e6577206f776e657220697320746865207a65726f206160008301527f64647265737300000000000000000000000000000000000000000000000000006020830152604082019050919050565b60006106a36020836107e0565b91507f4f776e61626c653a2063616c6c6572206973206e6f7420746865206f776e65726000830152602082019050919050565b6106df81610823565b82525050565b60006020820190506106fa60008301846105ca565b92915050565b60006101608201905061071660008301846105d9565b92915050565b6000602082019050818103600083015261073581610630565b9050919050565b6000602082019050818103600083015261075581610696565b9050919050565b6000604051905081810181811067ffffffffffffffff821117156107835761078261082d565b5b8060405250919050565b600067ffffffffffffffff8211156107a8576107a761082d565b5b602082029050919050565b6000819050919050565b6000600b9050919050565b6000602082019050919050565b600081905092915050565b600082825260208201905092915050565b60006107fc82610803565b9050919050565b600073ffffffffffffffffffffffffffffffffffffffff82169050919050565b6000819050919050565b7f4e487b7100000000000000000000000000000000000000000000000000000000600052604160045260246000fd5b610865816107f1565b811461087057600080fd5b50565b61087c81610823565b811461088757600080fd5b5056fea2646970667358221220ad1b3aa01f05891280cb1189a29843adfda9182917eb9ea6231b45252d6ca52364736f6c63430008000033",
  "linkReferences": {},
  "deployedLinkReferences": {}
}