{
  "_format": "hh-sol-artifact-1",
  "contractName": "Tickets",
  "sourceName": "contracts/Tickets.sol",
  "abi": [
    {
      "anonymous": false,
      "inputs": [
        {
          "indexed": true,
          "internalType": "address",
          "name": "previousOwner",
          "type": "address"
        },
        {
          "indexed": true,
          "internalType": "address",
          "name": "newOwner",
          "type": "address"
        }
      ],
      "name": "OwnershipTransferred",
      "type": "event"
    },
    {
      "inputs": [
        {
          "internalType": "string",
          "name": "gamename",
          "type": "string"
        },
        {
          "components": [
            {
              "internalType": "uint256",
              "name": "date",
              "type": "uint256"
            },
            {
              "internalType": "uint256",
              "name": "month",
              "type": "uint256"
            },
            {
              "internalType": "uint256",
              "name": "year",
              "type": "uint256"
            }
          ],
          "internalType": "struct Tickets.time",
          "name": "t",
          "type": "tuple"
        },
        {
          "internalType": "uint256",
          "name": "seatnumber",
          "type": "uint256"
        },
        {
          "internalType": "uint256",
          "name": "ticketprice",
          "type": "uint256"
        }
      ],
      "name": "addtickets",
      "outputs": [],
      "stateMutability": "nonpayable",
      "type": "function"
    },
    {
      "inputs": [
        {
          "internalType": "string",
          "name": "gamename",
          "type": "string"
        },
        {
          "components": [
            {
              "internalType": "uint256",
              "name": "date",
              "type": "uint256"
            },
            {
              "internalType": "uint256",
              "name": "month",
              "type": "uint256"
            },
            {
              "internalType": "uint256",
              "name": "year",
              "type": "uint256"
            }
          ],
          "internalType": "struct Tickets.time",
          "name": "t",
          "type": "tuple"
        },
        {
          "internalType": "uint256",
          "name": "seatnumber",
          "type": "uint256"
        }
      ],
      "name": "buytickets",
      "outputs": [
        {
          "components": [
            {
              "internalType": "string",
              "name": "gamename",
              "type": "string"
            },
            {
              "internalType": "uint256",
              "name": "seatNumber",
              "type": "uint256"
            },
            {
              "internalType": "uint256",
              "name": "ticketPrice",
              "type": "uint256"
            },
            {
              "internalType": "uint256",
              "name": "day",
              "type": "uint256"
            },
            {
              "internalType": "uint256",
              "name": "month",
              "type": "uint256"
            },
            {
              "internalType": "uint256",
              "name": "year",
              "type": "uint256"
            }
          ],
          "internalType": "struct Tickets.Ticket",
          "name": "",
          "type": "tuple"
        }
      ],
      "stateMutability": "payable",
      "type": "function"
    },
    {
      "inputs": [],
      "name": "owner",
      "outputs": [
        {
          "internalType": "address",
          "name": "",
          "type": "address"
        }
      ],
      "stateMutability": "view",
      "type": "function"
    },
    {
      "inputs": [],
      "name": "renounceOwnership",
      "outputs": [],
      "stateMutability": "nonpayable",
      "type": "function"
    },
    {
      "inputs": [
        {
          "internalType": "address",
          "name": "newOwner",
          "type": "address"
        }
      ],
      "name": "transferOwnership",
      "outputs": [],
      "stateMutability": "nonpayable",
      "type": "function"
    }
  ],
  "bytecode": "0x608060405234801561001057600080fd5b5061002d61002261003260201b60201c565b61003a60201b60201c565b6100fe565b600033905090565b60008060009054906101000a900473ffffffffffffffffffffffffffffffffffffffff169050816000806101000a81548173ffffffffffffffffffffffffffffffffffffffff021916908373ffffffffffffffffffffffffffffffffffffffff1602179055508173ffffffffffffffffffffffffffffffffffffffff168173ffffffffffffffffffffffffffffffffffffffff167f8be0079c531659141344cd1fd0a4f28419497f9722a3daafe3b4186f6b6457e060405160405180910390a35050565b61105a8061010d6000396000f3fe60806040526004361061004a5760003560e01c80630b3b7e4f1461004f57806345210cd614610078578063715018a6146100a85780638da5cb5b146100bf578063f2fde38b146100ea575b600080fd5b34801561005b57600080fd5b506100766004803603810190610071919061096c565b610113565b005b610092600480360381019061008d91906109ef565b61024a565b60405161009f9190610b7e565b60405180910390f35b3480156100b457600080fd5b506100bd6104c8565b005b3480156100cb57600080fd5b506100d4610550565b6040516100e19190610be1565b60405180910390f35b3480156100f657600080fd5b50610111600480360381019061010c9190610c28565b610579565b005b61011b610671565b73ffffffffffffffffffffffffffffffffffffffff16610139610550565b73ffffffffffffffffffffffffffffffffffffffff161461018f576040517f08c379a000000000000000000000000000000000000000000000000000000000815260040161018690610cb2565b60405180910390fd5b60006002600085604001518152602001908152602001600020600085602001518152602001908152602001600020600085600001518152602001908152602001600020856040516101e09190610d0e565b9081526020016040518091039020905060008160050160008581526020019081526020016000205414156102295780600101600081548092919061022390610d54565b91905055505b81816005016000858152602001908152602001600020819055505050505050565b61025261073d565b60006002600085604001518152602001908152602001600020600085602001518152602001908152602001600020600085600001518152602001908152602001600020856040516102a39190610d0e565b9081526020016040518091039020905060008160010154116102fa576040517f08c379a00000000000000000000000000000000000000000000000000000000081526004016102f190610de9565b60405180910390fd5b60008160050160008581526020019081526020016000205411610352576040517f08c379a000000000000000000000000000000000000000000000000000000000815260040161034990610e55565b60405180910390fd5b8060050160008481526020019081526020016000205434146103a9576040517f08c379a00000000000000000000000000000000000000000000000000000000081526004016103a090610ee7565b60405180910390fd5b6000816005016000858152602001908152602001600020819055508060010160008154809291906103d990610f07565b919050555060006040518060c001604052808360000180546103fa90610f60565b80601f016020809104026020016040519081016040528092919081815260200182805461042690610f60565b80156104735780601f1061044857610100808354040283529160200191610473565b820191906000526020600020905b81548152906001019060200180831161045657829003601f168201915b5050505050815260200185815260200183600501600087815260200190815260200160002054815260200183600201548152602001836003015481526020018360040154815250905080925050509392505050565b6104d0610671565b73ffffffffffffffffffffffffffffffffffffffff166104ee610550565b73ffffffffffffffffffffffffffffffffffffffff1614610544576040517f08c379a000000000000000000000000000000000000000000000000000000000815260040161053b90610cb2565b60405180910390fd5b61054e6000610679565b565b60008060009054906101000a900473ffffffffffffffffffffffffffffffffffffffff16905090565b610581610671565b73ffffffffffffffffffffffffffffffffffffffff1661059f610550565b73ffffffffffffffffffffffffffffffffffffffff16146105f5576040517f08c379a00000000000000000000000000000000000000000000000000000000081526004016105ec90610cb2565b60405180910390fd5b600073ffffffffffffffffffffffffffffffffffffffff168173ffffffffffffffffffffffffffffffffffffffff161415610665576040517f08c379a000000000000000000000000000000000000000000000000000000000815260040161065c90611004565b60405180910390fd5b61066e81610679565b50565b600033905090565b60008060009054906101000a900473ffffffffffffffffffffffffffffffffffffffff169050816000806101000a81548173ffffffffffffffffffffffffffffffffffffffff021916908373ffffffffffffffffffffffffffffffffffffffff1602179055508173ffffffffffffffffffffffffffffffffffffffff168173ffffffffffffffffffffffffffffffffffffffff167f8be0079c531659141344cd1fd0a4f28419497f9722a3daafe3b4186f6b6457e060405160405180910390a35050565b6040518060c001604052806060815260200160008152602001600081526020016000815260200160008152602001600081525090565b6000604051905090565b600080fd5b600080fd5b600080fd5b600080fd5b6000601f19601f8301169050919050565b7f4e487b7100000000000000000000000000000000000000000000000000000000600052604160045260246000fd5b6107da82610791565b810181811067ffffffffffffffff821117156107f9576107f86107a2565b5b80604052505050565b600061080c610773565b905061081882826107d1565b919050565b600067ffffffffffffffff821115610838576108376107a2565b5b61084182610791565b9050602081019050919050565b82818337600083830152505050565b600061087061086b8461081d565b610802565b90508281526020810184848401111561088c5761088b61078c565b5b61089784828561084e565b509392505050565b600082601f8301126108b4576108b3610787565b5b81356108c484826020860161085d565b91505092915050565b600080fd5b6000819050919050565b6108e5816108d2565b81146108f057600080fd5b50565b600081359050610902816108dc565b92915050565b60006060828403121561091e5761091d6108cd565b5b6109286060610802565b90506000610938848285016108f3565b600083015250602061094c848285016108f3565b6020830152506040610960848285016108f3565b60408301525092915050565b60008060008060c085870312156109865761098561077d565b5b600085013567ffffffffffffffff8111156109a4576109a3610782565b5b6109b08782880161089f565b94505060206109c187828801610908565b93505060806109d2878288016108f3565b92505060a06109e3878288016108f3565b91505092959194509250565b600080600060a08486031215610a0857610a0761077d565b5b600084013567ffffffffffffffff811115610a2657610a25610782565b5b610a328682870161089f565b9350506020610a4386828701610908565b9250506080610a54868287016108f3565b9150509250925092565b600081519050919050565b600082825260208201905092915050565b60005b83811015610a98578082015181840152602081019050610a7d565b83811115610aa7576000848401525b50505050565b6000610ab882610a5e565b610ac28185610a69565b9350610ad2818560208601610a7a565b610adb81610791565b840191505092915050565b610aef816108d2565b82525050565b600060c0830160008301518482036000860152610b128282610aad565b9150506020830151610b276020860182610ae6565b506040830151610b3a6040860182610ae6565b506060830151610b4d6060860182610ae6565b506080830151610b606080860182610ae6565b5060a0830151610b7360a0860182610ae6565b508091505092915050565b60006020820190508181036000830152610b988184610af5565b905092915050565b600073ffffffffffffffffffffffffffffffffffffffff82169050919050565b6000610bcb82610ba0565b9050919050565b610bdb81610bc0565b82525050565b6000602082019050610bf66000830184610bd2565b92915050565b610c0581610bc0565b8114610c1057600080fd5b50565b600081359050610c2281610bfc565b92915050565b600060208284031215610c3e57610c3d61077d565b5b6000610c4c84828501610c13565b91505092915050565b600082825260208201905092915050565b7f4f776e61626c653a2063616c6c6572206973206e6f7420746865206f776e6572600082015250565b6000610c9c602083610c55565b9150610ca782610c66565b602082019050919050565b60006020820190508181036000830152610ccb81610c8f565b9050919050565b600081905092915050565b6000610ce882610a5e565b610cf28185610cd2565b9350610d02818560208601610a7a565b80840191505092915050565b6000610d1a8284610cdd565b915081905092915050565b7f4e487b7100000000000000000000000000000000000000000000000000000000600052601160045260246000fd5b6000610d5f826108d2565b91507fffffffffffffffffffffffffffffffffffffffffffffffffffffffffffffffff821415610d9257610d91610d25565b5b600182019050919050565b7f4e6f207469636b657473206c6566740000000000000000000000000000000000600082015250565b6000610dd3600f83610c55565b9150610dde82610d9d565b602082019050919050565b60006020820190508181036000830152610e0281610dc6565b9050919050565b7f546869732073656174206973206e6f7420666f722073616c6500000000000000600082015250565b6000610e3f601983610c55565b9150610e4a82610e09565b602082019050919050565b60006020820190508181036000830152610e6e81610e32565b9050919050565b7f416d6f756e74206973206e6f7420657175616c20746f207469636b657420707260008201527f6963650000000000000000000000000000000000000000000000000000000000602082015250565b6000610ed1602383610c55565b9150610edc82610e75565b604082019050919050565b60006020820190508181036000830152610f0081610ec4565b9050919050565b6000610f12826108d2565b91506000821415610f2657610f25610d25565b5b600182039050919050565b7f4e487b7100000000000000000000000000000000000000000000000000000000600052602260045260246000fd5b60006002820490506001821680610f7857607f821691505b60208210811415610f8c57610f8b610f31565b5b50919050565b7f4f776e61626c653a206e6577206f776e657220697320746865207a65726f206160008201527f6464726573730000000000000000000000000000000000000000000000000000602082015250565b6000610fee602683610c55565b9150610ff982610f92565b604082019050919050565b6000602082019050818103600083015261101d81610fe1565b905091905056fea2646970667358221220765a18936e8b8c8a6ef50433fb3ca4a2659c6c320e9241e72fc9e1525ddf164264736f6c63430008090033",
  "linkReferences": {},
  "deployedLinkReferences": {}
}