{
  "_format": "hh-sol-artifact-1",
  "contractName": "Tickets",
  "sourceName": "contracts/Tickets.sol",
  "abi": [
    {
      "anonymous": false,
      "inputs": [
        {
          "indexed": true,
          "internalType": "address",
          "name": "previousOwner",
          "type": "address"
        },
        {
          "indexed": true,
          "internalType": "address",
          "name": "newOwner",
          "type": "address"
        }
      ],
      "name": "OwnershipTransferred",
      "type": "event"
    },
    {
      "inputs": [
        {
          "internalType": "string",
          "name": "gamename",
          "type": "string"
        },
        {
          "internalType": "uint256",
          "name": "date",
          "type": "uint256"
        },
        {
          "internalType": "uint256",
          "name": "month",
          "type": "uint256"
        },
        {
          "internalType": "uint256",
          "name": "year",
          "type": "uint256"
        },
        {
          "internalType": "uint256",
          "name": "seatnumber",
          "type": "uint256"
        },
        {
          "internalType": "uint256",
          "name": "ticketprice",
          "type": "uint256"
        }
      ],
      "name": "addtickets",
      "outputs": [],
      "stateMutability": "nonpayable",
      "type": "function"
    },
    {
      "inputs": [
        {
          "internalType": "string",
          "name": "gamename",
          "type": "string"
        },
        {
          "components": [
            {
              "internalType": "uint256",
              "name": "date",
              "type": "uint256"
            },
            {
              "internalType": "uint256",
              "name": "month",
              "type": "uint256"
            },
            {
              "internalType": "uint256",
              "name": "year",
              "type": "uint256"
            }
          ],
          "internalType": "struct Tickets.time",
          "name": "t",
          "type": "tuple"
        },
        {
          "internalType": "uint256",
          "name": "seatnumber",
          "type": "uint256"
        }
      ],
      "name": "buytickets",
      "outputs": [
        {
          "components": [
            {
              "internalType": "string",
              "name": "gamename",
              "type": "string"
            },
            {
              "internalType": "uint256",
              "name": "seatNumber",
              "type": "uint256"
            },
            {
              "internalType": "uint256",
              "name": "ticketPrice",
              "type": "uint256"
            },
            {
              "internalType": "uint256",
              "name": "day",
              "type": "uint256"
            },
            {
              "internalType": "uint256",
              "name": "month",
              "type": "uint256"
            },
            {
              "internalType": "uint256",
              "name": "year",
              "type": "uint256"
            },
            {
              "internalType": "bool",
              "name": "sold",
              "type": "bool"
            }
          ],
          "internalType": "struct Tickets.Ticket",
          "name": "",
          "type": "tuple"
        }
      ],
      "stateMutability": "payable",
      "type": "function"
    },
    {
      "inputs": [],
      "name": "owner",
      "outputs": [
        {
          "internalType": "address",
          "name": "",
          "type": "address"
        }
      ],
      "stateMutability": "view",
      "type": "function"
    },
    {
      "inputs": [],
      "name": "renounceOwnership",
      "outputs": [],
      "stateMutability": "nonpayable",
      "type": "function"
    },
    {
      "inputs": [
        {
          "internalType": "uint256",
          "name": "date",
          "type": "uint256"
        },
        {
          "internalType": "uint256",
          "name": "month",
          "type": "uint256"
        },
        {
          "internalType": "uint256",
          "name": "year",
          "type": "uint256"
        }
      ],
      "name": "showallticketsoftheday",
      "outputs": [
        {
          "components": [
            {
              "internalType": "string",
              "name": "gamename",
              "type": "string"
            },
            {
              "internalType": "uint256",
              "name": "seatNumber",
              "type": "uint256"
            },
            {
              "internalType": "uint256",
              "name": "ticketPrice",
              "type": "uint256"
            },
            {
              "internalType": "uint256",
              "name": "day",
              "type": "uint256"
            },
            {
              "internalType": "uint256",
              "name": "month",
              "type": "uint256"
            },
            {
              "internalType": "uint256",
              "name": "year",
              "type": "uint256"
            },
            {
              "internalType": "bool",
              "name": "sold",
              "type": "bool"
            }
          ],
          "internalType": "struct Tickets.Ticket[]",
          "name": "",
          "type": "tuple[]"
        }
      ],
      "stateMutability": "view",
      "type": "function"
    },
    {
      "inputs": [
        {
          "internalType": "address",
          "name": "newOwner",
          "type": "address"
        }
      ],
      "name": "transferOwnership",
      "outputs": [],
      "stateMutability": "nonpayable",
      "type": "function"
    }
  ],
  "bytecode": "0x608060405234801561001057600080fd5b5061002d61002261003260201b60201c565b61003a60201b60201c565b6100fe565b600033905090565b60008060009054906101000a900473ffffffffffffffffffffffffffffffffffffffff169050816000806101000a81548173ffffffffffffffffffffffffffffffffffffffff021916908373ffffffffffffffffffffffffffffffffffffffff1602179055508173ffffffffffffffffffffffffffffffffffffffff168173ffffffffffffffffffffffffffffffffffffffff167f8be0079c531659141344cd1fd0a4f28419497f9722a3daafe3b4186f6b6457e060405160405180910390a35050565b6118ca8061010d6000396000f3fe6080604052600436106100555760003560e01c806320c5fa901461005a57806345210cd614610097578063715018a6146100c75780638da5cb5b146100de578063f1b3997b14610109578063f2fde38b14610132575b600080fd5b34801561006657600080fd5b50610081600480360381019061007c9190610d6b565b61015b565b60405161008e9190610fdf565b60405180910390f35b6100b160048036038101906100ac919061119f565b6104d2565b6040516100be91906112aa565b60405180910390f35b3480156100d357600080fd5b506100dc610759565b005b3480156100ea57600080fd5b506100f36107e1565b604051610100919061130d565b60405180910390f35b34801561011557600080fd5b50610130600480360381019061012b9190611328565b61080a565b005b34801561013e57600080fd5b50610159600480360381019061015491906113fd565b610a7b565b005b606060008060005b6003600086815260200190815260200160002060008781526020019081526020016000206000888152602001908152602001600020805490508110156102375760001515600360008781526020019081526020016000206000888152602001908152602001600020600089815260200190815260200160002082815481106101ee576101ed61142a565b5b906000526020600020906007020160060160009054906101000a900460ff161515141561022457828061022090611488565b9350505b808061022f90611488565b915050610163565b5060008267ffffffffffffffff8111156102545761025361100b565b5b60405190808252806020026020018201604052801561028d57816020015b61027a610c3f565b8152602001906001900390816102725790505b50905060005b6003600087815260200190815260200160002060008881526020019081526020016000206000898152602001908152602001600020805490508110156104c4576000151560036000888152602001908152602001600020600089815260200190815260200160002060008a8152602001908152602001600020828154811061031e5761031d61142a565b5b906000526020600020906007020160060160009054906101000a900460ff16151514156104b1576003600087815260200190815260200160002060008881526020019081526020016000206000898152602001908152602001600020818154811061038c5761038b61142a565b5b90600052602060002090600702016040518060e00160405290816000820180546103b590611500565b80601f01602080910402602001604051908101604052809291908181526020018280546103e190611500565b801561042e5780601f106104035761010080835404028352916020019161042e565b820191906000526020600020905b81548152906001019060200180831161041157829003601f168201915b5050505050815260200160018201548152602001600282015481526020016003820154815260200160048201548152602001600582015481526020016006820160009054906101000a900460ff1615151515815250508284815181106104975761049661142a565b5b602002602001018190525082806104ad90611488565b9350505b80806104bc90611488565b915050610293565b508093505050509392505050565b6104da610c3f565b600060026000856040015181526020019081526020016000206000856020015181526020019081526020016000206000856000015181526020019081526020016000208560405161052b919061156e565b908152602001604051809103902090506000816001015411610582576040517f08c379a0000000000000000000000000000000000000000000000000000000008152600401610579906115e2565b60405180910390fd5b600081600501600085815260200190815260200160002054116105da576040517f08c379a00000000000000000000000000000000000000000000000000000000081526004016105d19061164e565b60405180910390fd5b806005016000848152602001908152602001600020543414610631576040517f08c379a0000000000000000000000000000000000000000000000000000000008152600401610628906116e0565b60405180910390fd5b60008160050160008581526020019081526020016000208190555080600101600081548092919061066190611700565b919050555060006040518060e0016040528083600001805461068290611500565b80601f01602080910402602001604051908101604052809291908181526020018280546106ae90611500565b80156106fb5780601f106106d0576101008083540402835291602001916106fb565b820191906000526020600020905b8154815290600101906020018083116106de57829003601f168201915b5050505050815260200185815260200183600501600087815260200190815260200160002054815260200183600201548152602001836003015481526020018360040154815260200160011515815250905080925050509392505050565b610761610b73565b73ffffffffffffffffffffffffffffffffffffffff1661077f6107e1565b73ffffffffffffffffffffffffffffffffffffffff16146107d5576040517f08c379a00000000000000000000000000000000000000000000000000000000081526004016107cc90611776565b60405180910390fd5b6107df6000610b7b565b565b60008060009054906101000a900473ffffffffffffffffffffffffffffffffffffffff16905090565b610812610b73565b73ffffffffffffffffffffffffffffffffffffffff166108306107e1565b73ffffffffffffffffffffffffffffffffffffffff1614610886576040517f08c379a000000000000000000000000000000000000000000000000000000000815260040161087d90611776565b60405180910390fd5b60006002600085815260200190815260200160002060008681526020019081526020016000206000878152602001908152602001600020876040516108cb919061156e565b9081526020016040518091039020905060008160050160008581526020019081526020016000205414610933576040517f08c379a000000000000000000000000000000000000000000000000000000000815260040161092a906117e2565b60405180910390fd5b80600101600081548092919061094890611488565b919050555060006040518060e0016040528089815260200185815260200184815260200188815260200187815260200186815260200160001515815250905060036000868152602001908152602001600020600087815260200190815260200160002060008881526020019081526020016000208190806001815401808255809150506001900390600052602060002090600702016000909190919091506000820151816000019080519060200190610a02929190610c7e565b506020820151816001015560408201518160020155606082015181600301556080820151816004015560a0820151816005015560c08201518160060160006101000a81548160ff021916908315150217905550505082826005016000868152602001908152602001600020819055505050505050505050565b610a83610b73565b73ffffffffffffffffffffffffffffffffffffffff16610aa16107e1565b73ffffffffffffffffffffffffffffffffffffffff1614610af7576040517f08c379a0000000000000000000000000000000000000000000000000000000008152600401610aee90611776565b60405180910390fd5b600073ffffffffffffffffffffffffffffffffffffffff168173ffffffffffffffffffffffffffffffffffffffff161415610b67576040517f08c379a0000000000000000000000000000000000000000000000000000000008152600401610b5e90611874565b60405180910390fd5b610b7081610b7b565b50565b600033905090565b60008060009054906101000a900473ffffffffffffffffffffffffffffffffffffffff169050816000806101000a81548173ffffffffffffffffffffffffffffffffffffffff021916908373ffffffffffffffffffffffffffffffffffffffff1602179055508173ffffffffffffffffffffffffffffffffffffffff168173ffffffffffffffffffffffffffffffffffffffff167f8be0079c531659141344cd1fd0a4f28419497f9722a3daafe3b4186f6b6457e060405160405180910390a35050565b6040518060e001604052806060815260200160008152602001600081526020016000815260200160008152602001600081526020016000151581525090565b828054610c8a90611500565b90600052602060002090601f016020900481019282610cac5760008555610cf3565b82601f10610cc557805160ff1916838001178555610cf3565b82800160010185558215610cf3579182015b82811115610cf2578251825591602001919060010190610cd7565b5b509050610d009190610d04565b5090565b5b80821115610d1d576000816000905550600101610d05565b5090565b6000604051905090565b600080fd5b600080fd5b6000819050919050565b610d4881610d35565b8114610d5357600080fd5b50565b600081359050610d6581610d3f565b92915050565b600080600060608486031215610d8457610d83610d2b565b5b6000610d9286828701610d56565b9350506020610da386828701610d56565b9250506040610db486828701610d56565b9150509250925092565b600081519050919050565b600082825260208201905092915050565b6000819050602082019050919050565b600081519050919050565b600082825260208201905092915050565b60005b83811015610e24578082015181840152602081019050610e09565b83811115610e33576000848401525b50505050565b6000601f19601f8301169050919050565b6000610e5582610dea565b610e5f8185610df5565b9350610e6f818560208601610e06565b610e7881610e39565b840191505092915050565b610e8c81610d35565b82525050565b60008115159050919050565b610ea781610e92565b82525050565b600060e0830160008301518482036000860152610eca8282610e4a565b9150506020830151610edf6020860182610e83565b506040830151610ef26040860182610e83565b506060830151610f056060860182610e83565b506080830151610f186080860182610e83565b5060a0830151610f2b60a0860182610e83565b5060c0830151610f3e60c0860182610e9e565b508091505092915050565b6000610f558383610ead565b905092915050565b6000602082019050919050565b6000610f7582610dbe565b610f7f8185610dc9565b935083602082028501610f9185610dda565b8060005b85811015610fcd5784840389528151610fae8582610f49565b9450610fb983610f5d565b925060208a01995050600181019050610f95565b50829750879550505050505092915050565b60006020820190508181036000830152610ff98184610f6a565b905092915050565b600080fd5b600080fd5b7f4e487b7100000000000000000000000000000000000000000000000000000000600052604160045260246000fd5b61104382610e39565b810181811067ffffffffffffffff821117156110625761106161100b565b5b80604052505050565b6000611075610d21565b9050611081828261103a565b919050565b600067ffffffffffffffff8211156110a1576110a061100b565b5b6110aa82610e39565b9050602081019050919050565b82818337600083830152505050565b60006110d96110d484611086565b61106b565b9050828152602081018484840111156110f5576110f4611006565b5b6111008482856110b7565b509392505050565b600082601f83011261111d5761111c611001565b5b813561112d8482602086016110c6565b91505092915050565b600080fd5b60006060828403121561115157611150611136565b5b61115b606061106b565b9050600061116b84828501610d56565b600083015250602061117f84828501610d56565b602083015250604061119384828501610d56565b60408301525092915050565b600080600060a084860312156111b8576111b7610d2b565b5b600084013567ffffffffffffffff8111156111d6576111d5610d30565b5b6111e286828701611108565b93505060206111f38682870161113b565b925050608061120486828701610d56565b9150509250925092565b600060e083016000830151848203600086015261122b8282610e4a565b91505060208301516112406020860182610e83565b5060408301516112536040860182610e83565b5060608301516112666060860182610e83565b5060808301516112796080860182610e83565b5060a083015161128c60a0860182610e83565b5060c083015161129f60c0860182610e9e565b508091505092915050565b600060208201905081810360008301526112c4818461120e565b905092915050565b600073ffffffffffffffffffffffffffffffffffffffff82169050919050565b60006112f7826112cc565b9050919050565b611307816112ec565b82525050565b600060208201905061132260008301846112fe565b92915050565b60008060008060008060c0878903121561134557611344610d2b565b5b600087013567ffffffffffffffff81111561136357611362610d30565b5b61136f89828a01611108565b965050602061138089828a01610d56565b955050604061139189828a01610d56565b94505060606113a289828a01610d56565b93505060806113b389828a01610d56565b92505060a06113c489828a01610d56565b9150509295509295509295565b6113da816112ec565b81146113e557600080fd5b50565b6000813590506113f7816113d1565b92915050565b60006020828403121561141357611412610d2b565b5b6000611421848285016113e8565b91505092915050565b7f4e487b7100000000000000000000000000000000000000000000000000000000600052603260045260246000fd5b7f4e487b7100000000000000000000000000000000000000000000000000000000600052601160045260246000fd5b600061149382610d35565b91507fffffffffffffffffffffffffffffffffffffffffffffffffffffffffffffffff8214156114c6576114c5611459565b5b600182019050919050565b7f4e487b7100000000000000000000000000000000000000000000000000000000600052602260045260246000fd5b6000600282049050600182168061151857607f821691505b6020821081141561152c5761152b6114d1565b5b50919050565b600081905092915050565b600061154882610dea565b6115528185611532565b9350611562818560208601610e06565b80840191505092915050565b600061157a828461153d565b915081905092915050565b600082825260208201905092915050565b7f4e6f207469636b657473206c6566740000000000000000000000000000000000600082015250565b60006115cc600f83611585565b91506115d782611596565b602082019050919050565b600060208201905081810360008301526115fb816115bf565b9050919050565b7f546869732073656174206973206e6f7420666f722073616c6500000000000000600082015250565b6000611638601983611585565b915061164382611602565b602082019050919050565b600060208201905081810360008301526116678161162b565b9050919050565b7f416d6f756e74206973206e6f7420657175616c20746f207469636b657420707260008201527f6963650000000000000000000000000000000000000000000000000000000000602082015250565b60006116ca602383611585565b91506116d58261166e565b604082019050919050565b600060208201905081810360008301526116f9816116bd565b9050919050565b600061170b82610d35565b9150600082141561171f5761171e611459565b5b600182039050919050565b7f4f776e61626c653a2063616c6c6572206973206e6f7420746865206f776e6572600082015250565b6000611760602083611585565b915061176b8261172a565b602082019050919050565b6000602082019050818103600083015261178f81611753565b9050919050565b7f5469636b657420616c72656164792070726573656e7400000000000000000000600082015250565b60006117cc601683611585565b91506117d782611796565b602082019050919050565b600060208201905081810360008301526117fb816117bf565b9050919050565b7f4f776e61626c653a206e6577206f776e657220697320746865207a65726f206160008201527f6464726573730000000000000000000000000000000000000000000000000000602082015250565b600061185e602683611585565b915061186982611802565b604082019050919050565b6000602082019050818103600083015261188d81611851565b905091905056fea264697066735822122046030a726be97904f3363de925ef82be995bb75f1c701ed16b7d7c3a5771eb0364736f6c63430008090033",
  "linkReferences": {},
  "deployedLinkReferences": {}
}